{
  "_format": "hh-sol-artifact-1",
  "contractName": "Lollipop",
  "sourceName": "contracts/Lollipop.sol",
  "abi": [
    {
      "inputs": [
        {
          "internalType": "address",
          "name": "initialOwner",
          "type": "address"
        },
        {
          "internalType": "address",
          "name": "_router",
          "type": "address"
        },
        {
          "internalType": "address",
          "name": "_feesReceiver",
          "type": "address"
        }
      ],
      "stateMutability": "nonpayable",
      "type": "constructor"
    },
    {
      "inputs": [
        {
          "internalType": "address",
          "name": "spender",
          "type": "address"
        },
        {
          "internalType": "uint256",
          "name": "allowance",
          "type": "uint256"
        },
        {
          "internalType": "uint256",
          "name": "needed",
          "type": "uint256"
        }
      ],
      "name": "ERC20InsufficientAllowance",
      "type": "error"
    },
    {
      "inputs": [
        {
          "internalType": "address",
          "name": "sender",
          "type": "address"
        },
        {
          "internalType": "uint256",
          "name": "balance",
          "type": "uint256"
        },
        {
          "internalType": "uint256",
          "name": "needed",
          "type": "uint256"
        }
      ],
      "name": "ERC20InsufficientBalance",
      "type": "error"
    },
    {
      "inputs": [
        {
          "internalType": "address",
          "name": "approver",
          "type": "address"
        }
      ],
      "name": "ERC20InvalidApprover",
      "type": "error"
    },
    {
      "inputs": [
        {
          "internalType": "address",
          "name": "receiver",
          "type": "address"
        }
      ],
      "name": "ERC20InvalidReceiver",
      "type": "error"
    },
    {
      "inputs": [
        {
          "internalType": "address",
          "name": "sender",
          "type": "address"
        }
      ],
      "name": "ERC20InvalidSender",
      "type": "error"
    },
    {
      "inputs": [
        {
          "internalType": "address",
          "name": "spender",
          "type": "address"
        }
      ],
      "name": "ERC20InvalidSpender",
      "type": "error"
    },
    {
      "inputs": [],
      "name": "EnforcedPause",
      "type": "error"
    },
    {
      "inputs": [],
      "name": "ExpectedPause",
      "type": "error"
    },
    {
      "inputs": [
        {
          "internalType": "address",
          "name": "owner",
          "type": "address"
        }
      ],
      "name": "OwnableInvalidOwner",
      "type": "error"
    },
    {
      "inputs": [
        {
          "internalType": "address",
          "name": "account",
          "type": "address"
        }
      ],
      "name": "OwnableUnauthorizedAccount",
      "type": "error"
    },
    {
      "inputs": [],
      "name": "ReentrancyGuardReentrantCall",
      "type": "error"
    },
    {
      "anonymous": false,
      "inputs": [
        {
          "indexed": true,
          "internalType": "address",
          "name": "owner",
          "type": "address"
        },
        {
          "indexed": true,
          "internalType": "address",
          "name": "spender",
          "type": "address"
        },
        {
          "indexed": false,
          "internalType": "uint256",
          "name": "value",
          "type": "uint256"
        }
      ],
      "name": "Approval",
      "type": "event"
    },
    {
      "anonymous": false,
      "inputs": [
        {
          "indexed": true,
          "internalType": "address",
          "name": "previousOwner",
          "type": "address"
        },
        {
          "indexed": true,
          "internalType": "address",
          "name": "newOwner",
          "type": "address"
        }
      ],
      "name": "OwnershipTransferred",
      "type": "event"
    },
    {
      "anonymous": false,
      "inputs": [
        {
          "indexed": false,
          "internalType": "address",
          "name": "account",
          "type": "address"
        }
      ],
      "name": "Paused",
      "type": "event"
    },
    {
      "anonymous": false,
      "inputs": [
        {
          "indexed": false,
          "internalType": "uint256",
          "name": "fee",
          "type": "uint256"
        }
      ],
      "name": "SetBuyFee",
      "type": "event"
    },
    {
      "anonymous": false,
      "inputs": [
        {
          "indexed": false,
          "internalType": "address",
          "name": "_address",
          "type": "address"
        },
        {
          "indexed": false,
          "internalType": "bool",
          "name": "flag",
          "type": "bool"
        }
      ],
      "name": "SetFeeExemptAddress",
      "type": "event"
    },
    {
      "anonymous": false,
      "inputs": [
        {
          "indexed": false,
          "internalType": "address",
          "name": "_address",
          "type": "address"
        }
      ],
      "name": "SetFeeToken",
      "type": "event"
    },
    {
      "anonymous": false,
      "inputs": [
        {
          "indexed": false,
          "internalType": "address",
          "name": "_address",
          "type": "address"
        }
      ],
      "name": "SetFeesReceiver",
      "type": "event"
    },
    {
      "anonymous": false,
      "inputs": [
        {
          "indexed": false,
          "internalType": "address",
          "name": "_address",
          "type": "address"
        }
      ],
      "name": "SetPair",
      "type": "event"
    },
    {
      "anonymous": false,
      "inputs": [
        {
          "indexed": false,
          "internalType": "address",
          "name": "_address",
          "type": "address"
        }
      ],
      "name": "SetRouter",
      "type": "event"
    },
    {
      "anonymous": false,
      "inputs": [
        {
          "indexed": false,
          "internalType": "uint256",
          "name": "fee",
          "type": "uint256"
        }
      ],
      "name": "SetSellFee",
      "type": "event"
    },
    {
      "anonymous": false,
      "inputs": [
        {
          "indexed": true,
          "internalType": "address",
          "name": "from",
          "type": "address"
        },
        {
          "indexed": true,
          "internalType": "address",
          "name": "to",
          "type": "address"
        },
        {
          "indexed": false,
          "internalType": "uint256",
          "name": "value",
          "type": "uint256"
        }
      ],
      "name": "Transfer",
      "type": "event"
    },
    {
      "anonymous": false,
      "inputs": [
        {
          "indexed": false,
          "internalType": "address",
          "name": "account",
          "type": "address"
        }
      ],
      "name": "Unpaused",
      "type": "event"
    },
    {
      "inputs": [],
      "name": "MAX_FEE",
      "outputs": [
        {
          "internalType": "uint256",
          "name": "",
          "type": "uint256"
        }
      ],
      "stateMutability": "view",
      "type": "function"
    },
    {
      "inputs": [
        {
          "internalType": "address",
          "name": "owner",
          "type": "address"
        },
        {
          "internalType": "address",
          "name": "spender",
          "type": "address"
        }
      ],
      "name": "allowance",
      "outputs": [
        {
          "internalType": "uint256",
          "name": "",
          "type": "uint256"
        }
      ],
      "stateMutability": "view",
      "type": "function"
    },
    {
      "inputs": [
        {
          "internalType": "address",
          "name": "spender",
          "type": "address"
        },
        {
          "internalType": "uint256",
          "name": "value",
          "type": "uint256"
        }
      ],
      "name": "approve",
      "outputs": [
        {
          "internalType": "bool",
          "name": "",
          "type": "bool"
        }
      ],
      "stateMutability": "nonpayable",
      "type": "function"
    },
    {
      "inputs": [
        {
          "internalType": "address",
          "name": "account",
          "type": "address"
        }
      ],
      "name": "balanceOf",
      "outputs": [
        {
          "internalType": "uint256",
          "name": "",
          "type": "uint256"
        }
      ],
      "stateMutability": "view",
      "type": "function"
    },
    {
      "inputs": [
        {
          "internalType": "uint256",
          "name": "value",
          "type": "uint256"
        }
      ],
      "name": "burn",
      "outputs": [],
      "stateMutability": "nonpayable",
      "type": "function"
    },
    {
      "inputs": [
        {
          "internalType": "address",
          "name": "account",
          "type": "address"
        },
        {
          "internalType": "uint256",
          "name": "value",
          "type": "uint256"
        }
      ],
      "name": "burnFrom",
      "outputs": [],
      "stateMutability": "nonpayable",
      "type": "function"
    },
    {
      "inputs": [],
      "name": "buyFee",
      "outputs": [
        {
          "internalType": "uint256",
          "name": "",
          "type": "uint256"
        }
      ],
      "stateMutability": "view",
      "type": "function"
    },
    {
      "inputs": [],
      "name": "decimals",
      "outputs": [
        {
          "internalType": "uint8",
          "name": "",
          "type": "uint8"
        }
      ],
      "stateMutability": "view",
      "type": "function"
    },
    {
      "inputs": [],
      "name": "feeToken",
      "outputs": [
        {
          "internalType": "address",
          "name": "",
          "type": "address"
        }
      ],
      "stateMutability": "view",
      "type": "function"
    },
    {
      "inputs": [],
      "name": "feesReceiver",
      "outputs": [
        {
          "internalType": "address",
          "name": "",
          "type": "address"
        }
      ],
      "stateMutability": "view",
      "type": "function"
    },
    {
      "inputs": [
        {
          "internalType": "address",
          "name": "",
          "type": "address"
        }
      ],
      "name": "isFeeExempt",
      "outputs": [
        {
          "internalType": "bool",
          "name": "",
          "type": "bool"
        }
      ],
      "stateMutability": "view",
      "type": "function"
    },
    {
      "inputs": [],
      "name": "name",
      "outputs": [
        {
          "internalType": "string",
          "name": "",
          "type": "string"
        }
      ],
      "stateMutability": "view",
      "type": "function"
    },
    {
      "inputs": [],
      "name": "owner",
      "outputs": [
        {
          "internalType": "address",
          "name": "",
          "type": "address"
        }
      ],
      "stateMutability": "view",
      "type": "function"
    },
    {
      "inputs": [],
      "name": "pair",
      "outputs": [
        {
          "internalType": "address",
          "name": "",
          "type": "address"
        }
      ],
      "stateMutability": "view",
      "type": "function"
    },
    {
      "inputs": [],
      "name": "pause",
      "outputs": [],
      "stateMutability": "nonpayable",
      "type": "function"
    },
    {
      "inputs": [],
      "name": "paused",
      "outputs": [
        {
          "internalType": "bool",
          "name": "",
          "type": "bool"
        }
      ],
      "stateMutability": "view",
      "type": "function"
    },
    {
      "inputs": [],
      "name": "renounceOwnership",
      "outputs": [],
      "stateMutability": "nonpayable",
      "type": "function"
    },
    {
      "inputs": [],
      "name": "router",
      "outputs": [
        {
          "internalType": "contract IUniswapV2Router02",
          "name": "",
          "type": "address"
        }
      ],
      "stateMutability": "view",
      "type": "function"
    },
    {
      "inputs": [],
      "name": "sellFee",
      "outputs": [
        {
          "internalType": "uint256",
          "name": "",
          "type": "uint256"
        }
      ],
      "stateMutability": "view",
      "type": "function"
    },
    {
      "inputs": [
        {
          "internalType": "uint256",
          "name": "fee",
          "type": "uint256"
        }
      ],
      "name": "setBuyFee",
      "outputs": [],
      "stateMutability": "nonpayable",
      "type": "function"
    },
    {
      "inputs": [
        {
          "internalType": "address",
          "name": "_address",
          "type": "address"
        },
        {
          "internalType": "bool",
          "name": "_flag",
          "type": "bool"
        }
      ],
      "name": "setFeeExemptAddress",
      "outputs": [],
      "stateMutability": "nonpayable",
      "type": "function"
    },
    {
      "inputs": [
        {
          "internalType": "address",
          "name": "_address",
          "type": "address"
        }
      ],
      "name": "setFeeToken",
      "outputs": [],
      "stateMutability": "nonpayable",
      "type": "function"
    },
    {
      "inputs": [
        {
          "internalType": "address",
          "name": "_address",
          "type": "address"
        }
      ],
      "name": "setFeesReceiver",
      "outputs": [],
      "stateMutability": "nonpayable",
      "type": "function"
    },
    {
      "inputs": [
        {
          "internalType": "address",
          "name": "_address",
          "type": "address"
        }
      ],
      "name": "setPair",
      "outputs": [],
      "stateMutability": "nonpayable",
      "type": "function"
    },
    {
      "inputs": [
        {
          "internalType": "address",
          "name": "_address",
          "type": "address"
        }
      ],
      "name": "setRouter",
      "outputs": [],
      "stateMutability": "nonpayable",
      "type": "function"
    },
    {
      "inputs": [
        {
          "internalType": "uint256",
          "name": "fee",
          "type": "uint256"
        }
      ],
      "name": "setSellFee",
      "outputs": [],
      "stateMutability": "nonpayable",
      "type": "function"
    },
    {
      "inputs": [],
      "name": "symbol",
      "outputs": [
        {
          "internalType": "string",
          "name": "",
          "type": "string"
        }
      ],
      "stateMutability": "view",
      "type": "function"
    },
    {
      "inputs": [],
      "name": "totalSupply",
      "outputs": [
        {
          "internalType": "uint256",
          "name": "",
          "type": "uint256"
        }
      ],
      "stateMutability": "view",
      "type": "function"
    },
    {
      "inputs": [
        {
          "internalType": "address",
          "name": "to",
          "type": "address"
        },
        {
          "internalType": "uint256",
          "name": "value",
          "type": "uint256"
        }
      ],
      "name": "transfer",
      "outputs": [
        {
          "internalType": "bool",
          "name": "",
          "type": "bool"
        }
      ],
      "stateMutability": "nonpayable",
      "type": "function"
    },
    {
      "inputs": [
        {
          "internalType": "address",
          "name": "from",
          "type": "address"
        },
        {
          "internalType": "address",
          "name": "to",
          "type": "address"
        },
        {
          "internalType": "uint256",
          "name": "value",
          "type": "uint256"
        }
      ],
      "name": "transferFrom",
      "outputs": [
        {
          "internalType": "bool",
          "name": "",
          "type": "bool"
        }
      ],
      "stateMutability": "nonpayable",
      "type": "function"
    },
    {
      "inputs": [
        {
          "internalType": "address",
          "name": "newOwner",
          "type": "address"
        }
      ],
      "name": "transferOwnership",
      "outputs": [],
      "stateMutability": "nonpayable",
      "type": "function"
    },
    {
      "inputs": [],
      "name": "unpause",
      "outputs": [],
      "stateMutability": "nonpayable",
      "type": "function"
    }
  ],
  "bytecode": "0x6080604052600360075560056008553480156200001b57600080fd5b5060405162002dc638038062002dc68339818101604052810190620000419190620006e0565b826040518060400160405280600e81526020017f4c6f497465726174696f6e4f6e650000000000000000000000000000000000008152506040518060400160405280600381526020017f4c494f00000000000000000000000000000000000000000000000000000000008152508160039081620000bf9190620009b6565b508060049081620000d19190620009b6565b5050506000600560006101000a81548160ff021916908315150217905550600073ffffffffffffffffffffffffffffffffffffffff168173ffffffffffffffffffffffffffffffffffffffff1603620001645760006040517f1e4fbdf70000000000000000000000000000000000000000000000000000000081526004016200015b919062000aae565b60405180910390fd5b62000175816200024960201b60201c565b506001600681905550620001be33620001936200030f60201b60201c565b600a620001a1919062000c5b565b633b9aca00620001b2919062000cac565b6200031860201b60201c565b80600960006101000a81548173ffffffffffffffffffffffffffffffffffffffff021916908373ffffffffffffffffffffffffffffffffffffffff16021790555081600c60006101000a81548173ffffffffffffffffffffffffffffffffffffffff021916908373ffffffffffffffffffffffffffffffffffffffff16021790555050505062000d9d565b6000600560019054906101000a900473ffffffffffffffffffffffffffffffffffffffff16905081600560016101000a81548173ffffffffffffffffffffffffffffffffffffffff021916908373ffffffffffffffffffffffffffffffffffffffff1602179055508173ffffffffffffffffffffffffffffffffffffffff168173ffffffffffffffffffffffffffffffffffffffff167f8be0079c531659141344cd1fd0a4f28419497f9722a3daafe3b4186f6b6457e060405160405180910390a35050565b60006012905090565b600073ffffffffffffffffffffffffffffffffffffffff168273ffffffffffffffffffffffffffffffffffffffff16036200038d5760006040517fec442f0500000000000000000000000000000000000000000000000000000000815260040162000384919062000aae565b60405180910390fd5b620003a160008383620003a560201b60201c565b5050565b620003b8838383620003bd60201b60201c565b505050565b620003cd620003e560201b60201c565b620003e08383836200042f60201b60201c565b505050565b620003f56200065f60201b60201c565b156200042d576040517fd93c066500000000000000000000000000000000000000000000000000000000815260040160405180910390fd5b565b600073ffffffffffffffffffffffffffffffffffffffff168373ffffffffffffffffffffffffffffffffffffffff16036200048557806002600082825462000478919062000cf7565b925050819055506200055b565b60008060008573ffffffffffffffffffffffffffffffffffffffff1673ffffffffffffffffffffffffffffffffffffffff1681526020019081526020016000205490508181101562000514578381836040517fe450d38c0000000000000000000000000000000000000000000000000000000081526004016200050b9392919062000d43565b60405180910390fd5b8181036000808673ffffffffffffffffffffffffffffffffffffffff1673ffffffffffffffffffffffffffffffffffffffff16815260200190815260200160002081905550505b600073ffffffffffffffffffffffffffffffffffffffff168273ffffffffffffffffffffffffffffffffffffffff1603620005a65780600260008282540392505081905550620005f3565b806000808473ffffffffffffffffffffffffffffffffffffffff1673ffffffffffffffffffffffffffffffffffffffff168152602001908152602001600020600082825401925050819055505b8173ffffffffffffffffffffffffffffffffffffffff168373ffffffffffffffffffffffffffffffffffffffff167fddf252ad1be2c89b69c2b068fc378daa952ba7f163c4a11628f55a4df523b3ef8360405162000652919062000d80565b60405180910390a3505050565b6000600560009054906101000a900460ff16905090565b600080fd5b600073ffffffffffffffffffffffffffffffffffffffff82169050919050565b6000620006a8826200067b565b9050919050565b620006ba816200069b565b8114620006c657600080fd5b50565b600081519050620006da81620006af565b92915050565b600080600060608486031215620006fc57620006fb62000676565b5b60006200070c86828701620006c9565b93505060206200071f86828701620006c9565b92505060406200073286828701620006c9565b9150509250925092565b600081519050919050565b7f4e487b7100000000000000000000000000000000000000000000000000000000600052604160045260246000fd5b7f4e487b7100000000000000000000000000000000000000000000000000000000600052602260045260246000fd5b60006002820490506001821680620007be57607f821691505b602082108103620007d457620007d362000776565b5b50919050565b60008190508160005260206000209050919050565b60006020601f8301049050919050565b600082821b905092915050565b6000600883026200083e7fffffffffffffffffffffffffffffffffffffffffffffffffffffffffffffffff82620007ff565b6200084a8683620007ff565b95508019841693508086168417925050509392505050565b6000819050919050565b6000819050919050565b600062000897620008916200088b8462000862565b6200086c565b62000862565b9050919050565b6000819050919050565b620008b38362000876565b620008cb620008c2826200089e565b8484546200080c565b825550505050565b600090565b620008e2620008d3565b620008ef818484620008a8565b505050565b5b8181101562000917576200090b600082620008d8565b600181019050620008f5565b5050565b601f82111562000966576200093081620007da565b6200093b84620007ef565b810160208510156200094b578190505b620009636200095a85620007ef565b830182620008f4565b50505b505050565b600082821c905092915050565b60006200098b600019846008026200096b565b1980831691505092915050565b6000620009a6838362000978565b9150826002028217905092915050565b620009c1826200073c565b67ffffffffffffffff811115620009dd57620009dc62000747565b5b620009e98254620007a5565b620009f68282856200091b565b600060209050601f83116001811462000a2e576000841562000a19578287015190505b62000a25858262000998565b86555062000a95565b601f19841662000a3e86620007da565b60005b8281101562000a685784890151825560018201915060208501945060208101905062000a41565b8683101562000a88578489015162000a84601f89168262000978565b8355505b6001600288020188555050505b505050505050565b62000aa8816200069b565b82525050565b600060208201905062000ac5600083018462000a9d565b92915050565b7f4e487b7100000000000000000000000000000000000000000000000000000000600052601160045260246000fd5b60008160011c9050919050565b6000808291508390505b600185111562000b595780860481111562000b315762000b3062000acb565b5b600185161562000b415780820291505b808102905062000b518562000afa565b945062000b11565b94509492505050565b60008262000b74576001905062000c47565b8162000b84576000905062000c47565b816001811462000b9d576002811462000ba85762000bde565b600191505062000c47565b60ff84111562000bbd5762000bbc62000acb565b5b8360020a91508482111562000bd75762000bd662000acb565b5b5062000c47565b5060208310610133831016604e8410600b841016171562000c185782820a90508381111562000c125762000c1162000acb565b5b62000c47565b62000c27848484600162000b07565b9250905081840481111562000c415762000c4062000acb565b5b81810290505b9392505050565b600060ff82169050919050565b600062000c688262000862565b915062000c758362000c4e565b925062000ca47fffffffffffffffffffffffffffffffffffffffffffffffffffffffffffffffff848462000b62565b905092915050565b600062000cb98262000862565b915062000cc68362000862565b925082820262000cd68162000862565b9150828204841483151762000cf05762000cef62000acb565b5b5092915050565b600062000d048262000862565b915062000d118362000862565b925082820190508082111562000d2c5762000d2b62000acb565b5b92915050565b62000d3d8162000862565b82525050565b600060608201905062000d5a600083018662000a9d565b62000d69602083018562000d32565b62000d78604083018462000d32565b949350505050565b600060208201905062000d97600083018462000d32565b92915050565b6120198062000dad6000396000f3fe608060405234801561001057600080fd5b50600436106101f05760003560e01c8063715018a61161010f578063a9059cbb116100a2578063dd62ed3e11610071578063dd62ed3e1461054b578063f18e79511461057b578063f2fde38b14610597578063f887ea40146105b3576101f0565b8063a9059cbb146104c3578063bc063e1a146104f3578063bca93cf514610511578063c0d786551461052f576101f0565b80638b4cee08116100de5780638b4cee081461044d5780638da5cb5b1461046957806395d89b4114610487578063a8aa1b31146104a5576101f0565b8063715018a61461040157806379cc67901461040b5780638187f516146104275780638456cb5914610443576101f0565b80633f4218e0116101875780635c975abb116101565780635c975abb14610379578063600b2c8a14610397578063647846a5146103b357806370a08231146103d1576101f0565b80633f4218e0146103055780633f4ba83a1461033557806342966c681461033f578063470624021461035b576101f0565b806318160ddd116101c357806318160ddd1461027b57806323b872dd146102995780632b14ca56146102c9578063313ce567146102e7576101f0565b806306fdde03146101f5578063095ea7b3146102135780630cc835a31461024357806315cce2241461025f575b600080fd5b6101fd6105d1565b60405161020a91906119a1565b60405180910390f35b61022d60048036038101906102289190611a5c565b610663565b60405161023a9190611ab7565b60405180910390f35b61025d60048036038101906102589190611ad2565b610686565b005b61027960048036038101906102749190611aff565b610713565b005b610283610805565b6040516102909190611b3b565b60405180910390f35b6102b360048036038101906102ae9190611b56565b61080f565b6040516102c09190611ab7565b60405180910390f35b6102d161083e565b6040516102de9190611b3b565b60405180910390f35b6102ef610844565b6040516102fc9190611bc5565b60405180910390f35b61031f600480360381019061031a9190611aff565b61084d565b60405161032c9190611ab7565b60405180910390f35b61033d61086d565b005b61035960048036038101906103549190611ad2565b61087f565b005b610363610893565b6040516103709190611b3b565b60405180910390f35b610381610899565b60405161038e9190611ab7565b60405180910390f35b6103b160048036038101906103ac9190611c0c565b6108b0565b005b6103bb6109bb565b6040516103c89190611c5b565b60405180910390f35b6103eb60048036038101906103e69190611aff565b6109e1565b6040516103f89190611b3b565b60405180910390f35b610409610a29565b005b61042560048036038101906104209190611a5c565b610a3d565b005b610441600480360381019061043c9190611aff565b610a5d565b005b61044b610b4f565b005b61046760048036038101906104629190611ad2565b610b61565b005b610471610bee565b60405161047e9190611c5b565b60405180910390f35b61048f610c18565b60405161049c91906119a1565b60405180910390f35b6104ad610caa565b6040516104ba9190611c5b565b60405180910390f35b6104dd60048036038101906104d89190611a5c565b610cd0565b6040516104ea9190611ab7565b60405180910390f35b6104fb610cf3565b6040516105089190611b3b565b60405180910390f35b610519610cf8565b6040516105269190611c5b565b60405180910390f35b61054960048036038101906105449190611aff565b610d1e565b005b61056560048036038101906105609190611c76565b610e10565b6040516105729190611b3b565b60405180910390f35b61059560048036038101906105909190611aff565b610e97565b005b6105b160048036038101906105ac9190611aff565b610f89565b005b6105bb61100f565b6040516105c89190611d15565b60405180910390f35b6060600380546105e090611d5f565b80601f016020809104026020016040519081016040528092919081815260200182805461060c90611d5f565b80156106595780601f1061062e57610100808354040283529160200191610659565b820191906000526020600020905b81548152906001019060200180831161063c57829003601f168201915b5050505050905090565b60008061066e611035565b905061067b81858561103d565b600191505092915050565b61068e61104f565b600a8111156106d2576040517f08c379a00000000000000000000000000000000000000000000000000000000081526004016106c990611e02565b60405180910390fd5b806008819055507f4164afd9904b0eee72326020b7f2a0de2e3f5b8998738fbacf09229b66e5fd80816040516107089190611b3b565b60405180910390a150565b61071b61104f565b600073ffffffffffffffffffffffffffffffffffffffff168173ffffffffffffffffffffffffffffffffffffffff160361078a576040517f08c379a000000000000000000000000000000000000000000000000000000000815260040161078190611e6e565b60405180910390fd5b80600a60006101000a81548173ffffffffffffffffffffffffffffffffffffffff021916908373ffffffffffffffffffffffffffffffffffffffff1602179055507f0842bcbb92ca6d47ae89816778a843992dff9b876fad009865e1c5df73d46d1f816040516107fa9190611c5b565b60405180910390a150565b6000600254905090565b60008061081a611035565b90506108278582856110d6565b61083285858561116a565b60019150509392505050565b60075481565b60006012905090565b600d6020528060005260406000206000915054906101000a900460ff1681565b61087561104f565b61087d61125e565b565b61089061088a611035565b826112c1565b50565b60085481565b6000600560009054906101000a900460ff16905090565b6108b861104f565b600073ffffffffffffffffffffffffffffffffffffffff168273ffffffffffffffffffffffffffffffffffffffff1603610927576040517f08c379a000000000000000000000000000000000000000000000000000000000815260040161091e90611e6e565b60405180910390fd5b80600d60008473ffffffffffffffffffffffffffffffffffffffff1673ffffffffffffffffffffffffffffffffffffffff16815260200190815260200160002060006101000a81548160ff0219169083151502179055507f3cb0dc9d432b9f6f82bd813b801d540e7937da97f51df31272c984e5f1a1da2e82826040516109af929190611e8e565b60405180910390a15050565b600a60009054906101000a900473ffffffffffffffffffffffffffffffffffffffff1681565b60008060008373ffffffffffffffffffffffffffffffffffffffff1673ffffffffffffffffffffffffffffffffffffffff168152602001908152602001600020549050919050565b610a3161104f565b610a3b6000611343565b565b610a4f82610a49611035565b836110d6565b610a5982826112c1565b5050565b610a6561104f565b600073ffffffffffffffffffffffffffffffffffffffff168173ffffffffffffffffffffffffffffffffffffffff1603610ad4576040517f08c379a0000000000000000000000000000000000000000000000000000000008152600401610acb90611e6e565b60405180910390fd5b80600b60006101000a81548173ffffffffffffffffffffffffffffffffffffffff021916908373ffffffffffffffffffffffffffffffffffffffff1602179055507f88d61fbc2c37e8a539b73481a13b38e481e0a71b20e372509165fd07eec05df381604051610b449190611c5b565b60405180910390a150565b610b5761104f565b610b5f611409565b565b610b6961104f565b600a811115610bad576040517f08c379a0000000000000000000000000000000000000000000000000000000008152600401610ba490611f29565b60405180910390fd5b806007819055507f74ee7e999ca1ca5e528cb19e41c5e12b09ef7ec7f52723b917fec754ce95047281604051610be39190611b3b565b60405180910390a150565b6000600560019054906101000a900473ffffffffffffffffffffffffffffffffffffffff16905090565b606060048054610c2790611d5f565b80601f0160208091040260200160405190810160405280929190818152602001828054610c5390611d5f565b8015610ca05780601f10610c7557610100808354040283529160200191610ca0565b820191906000526020600020905b815481529060010190602001808311610c8357829003601f168201915b5050505050905090565b600b60009054906101000a900473ffffffffffffffffffffffffffffffffffffffff1681565b600080610cdb611035565b9050610ce881858561116a565b600191505092915050565b600a81565b600960009054906101000a900473ffffffffffffffffffffffffffffffffffffffff1681565b610d2661104f565b600073ffffffffffffffffffffffffffffffffffffffff168173ffffffffffffffffffffffffffffffffffffffff1603610d95576040517f08c379a0000000000000000000000000000000000000000000000000000000008152600401610d8c90611e6e565b60405180910390fd5b80600c60006101000a81548173ffffffffffffffffffffffffffffffffffffffff021916908373ffffffffffffffffffffffffffffffffffffffff1602179055507f6de4326a8b9054d72d9dbab97d27bc4edffadee7d966f5af9cc4eafdaf8e545581604051610e059190611c5b565b60405180910390a150565b6000600160008473ffffffffffffffffffffffffffffffffffffffff1673ffffffffffffffffffffffffffffffffffffffff16815260200190815260200160002060008373ffffffffffffffffffffffffffffffffffffffff1673ffffffffffffffffffffffffffffffffffffffff16815260200190815260200160002054905092915050565b610e9f61104f565b600073ffffffffffffffffffffffffffffffffffffffff168173ffffffffffffffffffffffffffffffffffffffff1603610f0e576040517f08c379a0000000000000000000000000000000000000000000000000000000008152600401610f0590611e6e565b60405180910390fd5b80600960006101000a81548173ffffffffffffffffffffffffffffffffffffffff021916908373ffffffffffffffffffffffffffffffffffffffff1602179055507f739fe1a68aad7be430b27de30ccf7d935b85459de671a05e7d60ea3d5677229581604051610f7e9190611c5b565b60405180910390a150565b610f9161104f565b600073ffffffffffffffffffffffffffffffffffffffff168173ffffffffffffffffffffffffffffffffffffffff16036110035760006040517f1e4fbdf7000000000000000000000000000000000000000000000000000000008152600401610ffa9190611c5b565b60405180910390fd5b61100c81611343565b50565b600c60009054906101000a900473ffffffffffffffffffffffffffffffffffffffff1681565b600033905090565b61104a838383600161146c565b505050565b611057611035565b73ffffffffffffffffffffffffffffffffffffffff16611075610bee565b73ffffffffffffffffffffffffffffffffffffffff16146110d457611098611035565b6040517f118cdaa70000000000000000000000000000000000000000000000000000000081526004016110cb9190611c5b565b60405180910390fd5b565b60006110e28484610e10565b90507fffffffffffffffffffffffffffffffffffffffffffffffffffffffffffffffff81146111645781811015611154578281836040517ffb8f41b200000000000000000000000000000000000000000000000000000000815260040161114b93929190611f49565b60405180910390fd5b6111638484848403600061146c565b5b50505050565b600073ffffffffffffffffffffffffffffffffffffffff168373ffffffffffffffffffffffffffffffffffffffff16036111dc5760006040517f96c6fd1e0000000000000000000000000000000000000000000000000000000081526004016111d39190611c5b565b60405180910390fd5b600073ffffffffffffffffffffffffffffffffffffffff168273ffffffffffffffffffffffffffffffffffffffff160361124e5760006040517fec442f050000000000000000000000000000000000000000000000000000000081526004016112459190611c5b565b60405180910390fd5b611259838383611643565b505050565b611266611653565b6000600560006101000a81548160ff0219169083151502179055507f5db9ee0a495bf2e6ff9c91a7834c1ba4fdd244a5e8aa4e537bd38aeae4b073aa6112aa611035565b6040516112b79190611c5b565b60405180910390a1565b600073ffffffffffffffffffffffffffffffffffffffff168273ffffffffffffffffffffffffffffffffffffffff16036113335760006040517f96c6fd1e00000000000000000000000000000000000000000000000000000000815260040161132a9190611c5b565b60405180910390fd5b61133f82600083611643565b5050565b6000600560019054906101000a900473ffffffffffffffffffffffffffffffffffffffff16905081600560016101000a81548173ffffffffffffffffffffffffffffffffffffffff021916908373ffffffffffffffffffffffffffffffffffffffff1602179055508173ffffffffffffffffffffffffffffffffffffffff168173ffffffffffffffffffffffffffffffffffffffff167f8be0079c531659141344cd1fd0a4f28419497f9722a3daafe3b4186f6b6457e060405160405180910390a35050565b611411611693565b6001600560006101000a81548160ff0219169083151502179055507f62e78cea01bee320cd4e420270b5ea74000d11b0c9f74754ebdbfc544b05a258611455611035565b6040516114629190611c5b565b60405180910390a1565b600073ffffffffffffffffffffffffffffffffffffffff168473ffffffffffffffffffffffffffffffffffffffff16036114de5760006040517fe602df050000000000000000000000000000000000000000000000000000000081526004016114d59190611c5b565b60405180910390fd5b600073ffffffffffffffffffffffffffffffffffffffff168373ffffffffffffffffffffffffffffffffffffffff16036115505760006040517f94280d620000000000000000000000000000000000000000000000000000000081526004016115479190611c5b565b60405180910390fd5b81600160008673ffffffffffffffffffffffffffffffffffffffff1673ffffffffffffffffffffffffffffffffffffffff16815260200190815260200160002060008573ffffffffffffffffffffffffffffffffffffffff1673ffffffffffffffffffffffffffffffffffffffff16815260200190815260200160002081905550801561163d578273ffffffffffffffffffffffffffffffffffffffff168473ffffffffffffffffffffffffffffffffffffffff167f8c5be1e5ebec7d5bd14f71427d1e84f3dd0314c0f7b2291e5b200ac8c7c3b925846040516116349190611b3b565b60405180910390a35b50505050565b61164e8383836116d4565b505050565b61165b610899565b611691576040517f8dfc202b00000000000000000000000000000000000000000000000000000000815260040160405180910390fd5b565b61169b610899565b156116d2576040517fd93c066500000000000000000000000000000000000000000000000000000000815260040160405180910390fd5b565b6116dc611693565b6116e78383836116ec565b505050565b600073ffffffffffffffffffffffffffffffffffffffff168373ffffffffffffffffffffffffffffffffffffffff160361173e5780600260008282546117329190611faf565b92505081905550611811565b60008060008573ffffffffffffffffffffffffffffffffffffffff1673ffffffffffffffffffffffffffffffffffffffff168152602001908152602001600020549050818110156117ca578381836040517fe450d38c0000000000000000000000000000000000000000000000000000000081526004016117c193929190611f49565b60405180910390fd5b8181036000808673ffffffffffffffffffffffffffffffffffffffff1673ffffffffffffffffffffffffffffffffffffffff16815260200190815260200160002081905550505b600073ffffffffffffffffffffffffffffffffffffffff168273ffffffffffffffffffffffffffffffffffffffff160361185a57806002600082825403925050819055506118a7565b806000808473ffffffffffffffffffffffffffffffffffffffff1673ffffffffffffffffffffffffffffffffffffffff168152602001908152602001600020600082825401925050819055505b8173ffffffffffffffffffffffffffffffffffffffff168373ffffffffffffffffffffffffffffffffffffffff167fddf252ad1be2c89b69c2b068fc378daa952ba7f163c4a11628f55a4df523b3ef836040516119049190611b3b565b60405180910390a3505050565b600081519050919050565b600082825260208201905092915050565b60005b8381101561194b578082015181840152602081019050611930565b60008484015250505050565b6000601f19601f8301169050919050565b600061197382611911565b61197d818561191c565b935061198d81856020860161192d565b61199681611957565b840191505092915050565b600060208201905081810360008301526119bb8184611968565b905092915050565b600080fd5b600073ffffffffffffffffffffffffffffffffffffffff82169050919050565b60006119f3826119c8565b9050919050565b611a03816119e8565b8114611a0e57600080fd5b50565b600081359050611a20816119fa565b92915050565b6000819050919050565b611a3981611a26565b8114611a4457600080fd5b50565b600081359050611a5681611a30565b92915050565b60008060408385031215611a7357611a726119c3565b5b6000611a8185828601611a11565b9250506020611a9285828601611a47565b9150509250929050565b60008115159050919050565b611ab181611a9c565b82525050565b6000602082019050611acc6000830184611aa8565b92915050565b600060208284031215611ae857611ae76119c3565b5b6000611af684828501611a47565b91505092915050565b600060208284031215611b1557611b146119c3565b5b6000611b2384828501611a11565b91505092915050565b611b3581611a26565b82525050565b6000602082019050611b506000830184611b2c565b92915050565b600080600060608486031215611b6f57611b6e6119c3565b5b6000611b7d86828701611a11565b9350506020611b8e86828701611a11565b9250506040611b9f86828701611a47565b9150509250925092565b600060ff82169050919050565b611bbf81611ba9565b82525050565b6000602082019050611bda6000830184611bb6565b92915050565b611be981611a9c565b8114611bf457600080fd5b50565b600081359050611c0681611be0565b92915050565b60008060408385031215611c2357611c226119c3565b5b6000611c3185828601611a11565b9250506020611c4285828601611bf7565b9150509250929050565b611c55816119e8565b82525050565b6000602082019050611c706000830184611c4c565b92915050565b60008060408385031215611c8d57611c8c6119c3565b5b6000611c9b85828601611a11565b9250506020611cac85828601611a11565b9150509250929050565b6000819050919050565b6000611cdb611cd6611cd1846119c8565b611cb6565b6119c8565b9050919050565b6000611ced82611cc0565b9050919050565b6000611cff82611ce2565b9050919050565b611d0f81611cf4565b82525050565b6000602082019050611d2a6000830184611d06565b92915050565b7f4e487b7100000000000000000000000000000000000000000000000000000000600052602260045260246000fd5b60006002820490506001821680611d7757607f821691505b602082108103611d8a57611d89611d30565b5b50919050565b7f427579206665652063616e6e6f74206265206c6172676572207468616e204d4160008201527f585f464545000000000000000000000000000000000000000000000000000000602082015250565b6000611dec60258361191c565b9150611df782611d90565b604082019050919050565b60006020820190508181036000830152611e1b81611ddf565b9050919050565b7f494e56414c494420414444524553530000000000000000000000000000000000600082015250565b6000611e58600f8361191c565b9150611e6382611e22565b602082019050919050565b60006020820190508181036000830152611e8781611e4b565b9050919050565b6000604082019050611ea36000830185611c4c565b611eb06020830184611aa8565b9392505050565b7f53656c6c206665652063616e6e6f74206265206c6172676572207468616e204d60008201527f41585f4645450000000000000000000000000000000000000000000000000000602082015250565b6000611f1360268361191c565b9150611f1e82611eb7565b604082019050919050565b60006020820190508181036000830152611f4281611f06565b9050919050565b6000606082019050611f5e6000830186611c4c565b611f6b6020830185611b2c565b611f786040830184611b2c565b949350505050565b7f4e487b7100000000000000000000000000000000000000000000000000000000600052601160045260246000fd5b6000611fba82611a26565b9150611fc583611a26565b9250828201905080821115611fdd57611fdc611f80565b5b9291505056fea26469706673582212204e37f6659648b7ab2325229229e9ed3321a17dba4d94b0dc985fd31b674188fb64736f6c63430008180033",
  "linkReferences": {},
  "deployedLinkReferences": {}
}