{
  "_format": "hh-sol-artifact-1",
  "contractName": "Lollipop",
  "sourceName": "contracts/Lollipop.sol",
  "abi": [
    {
      "inputs": [
        {
          "internalType": "address",
          "name": "initialOwner",
          "type": "address"
        },
        {
          "internalType": "address",
          "name": "_router",
          "type": "address"
        },
        {
          "internalType": "address",
          "name": "_feesReceiver",
          "type": "address"
        }
      ],
      "stateMutability": "nonpayable",
      "type": "constructor"
    },
    {
      "inputs": [
        {
          "internalType": "address",
          "name": "spender",
          "type": "address"
        },
        {
          "internalType": "uint256",
          "name": "allowance",
          "type": "uint256"
        },
        {
          "internalType": "uint256",
          "name": "needed",
          "type": "uint256"
        }
      ],
      "name": "ERC20InsufficientAllowance",
      "type": "error"
    },
    {
      "inputs": [
        {
          "internalType": "address",
          "name": "sender",
          "type": "address"
        },
        {
          "internalType": "uint256",
          "name": "balance",
          "type": "uint256"
        },
        {
          "internalType": "uint256",
          "name": "needed",
          "type": "uint256"
        }
      ],
      "name": "ERC20InsufficientBalance",
      "type": "error"
    },
    {
      "inputs": [
        {
          "internalType": "address",
          "name": "approver",
          "type": "address"
        }
      ],
      "name": "ERC20InvalidApprover",
      "type": "error"
    },
    {
      "inputs": [
        {
          "internalType": "address",
          "name": "receiver",
          "type": "address"
        }
      ],
      "name": "ERC20InvalidReceiver",
      "type": "error"
    },
    {
      "inputs": [
        {
          "internalType": "address",
          "name": "sender",
          "type": "address"
        }
      ],
      "name": "ERC20InvalidSender",
      "type": "error"
    },
    {
      "inputs": [
        {
          "internalType": "address",
          "name": "spender",
          "type": "address"
        }
      ],
      "name": "ERC20InvalidSpender",
      "type": "error"
    },
    {
      "inputs": [],
      "name": "EnforcedPause",
      "type": "error"
    },
    {
      "inputs": [],
      "name": "ExpectedPause",
      "type": "error"
    },
    {
      "inputs": [
        {
          "internalType": "address",
          "name": "owner",
          "type": "address"
        }
      ],
      "name": "OwnableInvalidOwner",
      "type": "error"
    },
    {
      "inputs": [
        {
          "internalType": "address",
          "name": "account",
          "type": "address"
        }
      ],
      "name": "OwnableUnauthorizedAccount",
      "type": "error"
    },
    {
      "inputs": [],
      "name": "ReentrancyGuardReentrantCall",
      "type": "error"
    },
    {
      "anonymous": false,
      "inputs": [
        {
          "indexed": true,
          "internalType": "address",
          "name": "owner",
          "type": "address"
        },
        {
          "indexed": true,
          "internalType": "address",
          "name": "spender",
          "type": "address"
        },
        {
          "indexed": false,
          "internalType": "uint256",
          "name": "value",
          "type": "uint256"
        }
      ],
      "name": "Approval",
      "type": "event"
    },
    {
      "anonymous": false,
      "inputs": [],
      "name": "DistributeFees",
      "type": "event"
    },
    {
      "anonymous": false,
      "inputs": [
        {
          "indexed": true,
          "internalType": "address",
          "name": "previousOwner",
          "type": "address"
        },
        {
          "indexed": true,
          "internalType": "address",
          "name": "newOwner",
          "type": "address"
        }
      ],
      "name": "OwnershipTransferred",
      "type": "event"
    },
    {
      "anonymous": false,
      "inputs": [
        {
          "indexed": false,
          "internalType": "address",
          "name": "account",
          "type": "address"
        }
      ],
      "name": "Paused",
      "type": "event"
    },
    {
      "anonymous": false,
      "inputs": [
        {
          "indexed": false,
          "internalType": "uint256",
          "name": "fee",
          "type": "uint256"
        }
      ],
      "name": "SetBuyFee",
      "type": "event"
    },
    {
      "anonymous": false,
      "inputs": [
        {
          "indexed": false,
          "internalType": "address",
          "name": "_address",
          "type": "address"
        },
        {
          "indexed": false,
          "internalType": "bool",
          "name": "_flag",
          "type": "bool"
        }
      ],
      "name": "SetFeeExemptAddress",
      "type": "event"
    },
    {
      "anonymous": false,
      "inputs": [
        {
          "indexed": false,
          "internalType": "address",
          "name": "_address",
          "type": "address"
        }
      ],
      "name": "SetFeeToken",
      "type": "event"
    },
    {
      "anonymous": false,
      "inputs": [
        {
          "indexed": false,
          "internalType": "address",
          "name": "_address",
          "type": "address"
        }
      ],
      "name": "SetFeesReceiver",
      "type": "event"
    },
    {
      "anonymous": false,
      "inputs": [],
      "name": "SetInitialized",
      "type": "event"
    },
    {
      "anonymous": false,
      "inputs": [
        {
          "indexed": false,
          "internalType": "address",
          "name": "_address",
          "type": "address"
        }
      ],
      "name": "SetPair",
      "type": "event"
    },
    {
      "anonymous": false,
      "inputs": [
        {
          "indexed": false,
          "internalType": "address",
          "name": "_address",
          "type": "address"
        }
      ],
      "name": "SetRouter",
      "type": "event"
    },
    {
      "anonymous": false,
      "inputs": [
        {
          "indexed": false,
          "internalType": "uint256",
          "name": "fee",
          "type": "uint256"
        }
      ],
      "name": "SetSellFee",
      "type": "event"
    },
    {
      "anonymous": false,
      "inputs": [
        {
          "indexed": true,
          "internalType": "address",
          "name": "from",
          "type": "address"
        },
        {
          "indexed": true,
          "internalType": "address",
          "name": "to",
          "type": "address"
        },
        {
          "indexed": false,
          "internalType": "uint256",
          "name": "value",
          "type": "uint256"
        }
      ],
      "name": "Transfer",
      "type": "event"
    },
    {
      "anonymous": false,
      "inputs": [
        {
          "indexed": false,
          "internalType": "address",
          "name": "account",
          "type": "address"
        }
      ],
      "name": "Unpaused",
      "type": "event"
    },
    {
      "inputs": [],
      "name": "MAX_FEE",
      "outputs": [
        {
          "internalType": "uint256",
          "name": "",
          "type": "uint256"
        }
      ],
      "stateMutability": "view",
      "type": "function"
    },
    {
      "inputs": [
        {
          "internalType": "address",
          "name": "owner",
          "type": "address"
        },
        {
          "internalType": "address",
          "name": "spender",
          "type": "address"
        }
      ],
      "name": "allowance",
      "outputs": [
        {
          "internalType": "uint256",
          "name": "",
          "type": "uint256"
        }
      ],
      "stateMutability": "view",
      "type": "function"
    },
    {
      "inputs": [
        {
          "internalType": "address",
          "name": "spender",
          "type": "address"
        },
        {
          "internalType": "uint256",
          "name": "value",
          "type": "uint256"
        }
      ],
      "name": "approve",
      "outputs": [
        {
          "internalType": "bool",
          "name": "",
          "type": "bool"
        }
      ],
      "stateMutability": "nonpayable",
      "type": "function"
    },
    {
      "inputs": [
        {
          "internalType": "address",
          "name": "account",
          "type": "address"
        }
      ],
      "name": "balanceOf",
      "outputs": [
        {
          "internalType": "uint256",
          "name": "",
          "type": "uint256"
        }
      ],
      "stateMutability": "view",
      "type": "function"
    },
    {
      "inputs": [
        {
          "internalType": "uint256",
          "name": "value",
          "type": "uint256"
        }
      ],
      "name": "burn",
      "outputs": [],
      "stateMutability": "nonpayable",
      "type": "function"
    },
    {
      "inputs": [
        {
          "internalType": "address",
          "name": "account",
          "type": "address"
        },
        {
          "internalType": "uint256",
          "name": "value",
          "type": "uint256"
        }
      ],
      "name": "burnFrom",
      "outputs": [],
      "stateMutability": "nonpayable",
      "type": "function"
    },
    {
      "inputs": [],
      "name": "buyFee",
      "outputs": [
        {
          "internalType": "uint256",
          "name": "",
          "type": "uint256"
        }
      ],
      "stateMutability": "view",
      "type": "function"
    },
    {
      "inputs": [],
      "name": "decimals",
      "outputs": [
        {
          "internalType": "uint8",
          "name": "",
          "type": "uint8"
        }
      ],
      "stateMutability": "view",
      "type": "function"
    },
    {
      "inputs": [],
      "name": "distributeFee",
      "outputs": [],
      "stateMutability": "nonpayable",
      "type": "function"
    },
    {
      "inputs": [],
      "name": "feeToken",
      "outputs": [
        {
          "internalType": "address",
          "name": "",
          "type": "address"
        }
      ],
      "stateMutability": "view",
      "type": "function"
    },
    {
      "inputs": [],
      "name": "feesReceiver",
      "outputs": [
        {
          "internalType": "address",
          "name": "",
          "type": "address"
        }
      ],
      "stateMutability": "view",
      "type": "function"
    },
    {
      "inputs": [],
      "name": "initialize",
      "outputs": [],
      "stateMutability": "nonpayable",
      "type": "function"
    },
    {
      "inputs": [
        {
          "internalType": "address",
          "name": "",
          "type": "address"
        }
      ],
      "name": "isFeeExempt",
      "outputs": [
        {
          "internalType": "bool",
          "name": "",
          "type": "bool"
        }
      ],
      "stateMutability": "view",
      "type": "function"
    },
    {
      "inputs": [],
      "name": "name",
      "outputs": [
        {
          "internalType": "string",
          "name": "",
          "type": "string"
        }
      ],
      "stateMutability": "view",
      "type": "function"
    },
    {
      "inputs": [],
      "name": "owner",
      "outputs": [
        {
          "internalType": "address",
          "name": "",
          "type": "address"
        }
      ],
      "stateMutability": "view",
      "type": "function"
    },
    {
      "inputs": [],
      "name": "pair",
      "outputs": [
        {
          "internalType": "address",
          "name": "",
          "type": "address"
        }
      ],
      "stateMutability": "view",
      "type": "function"
    },
    {
      "inputs": [],
      "name": "pause",
      "outputs": [],
      "stateMutability": "nonpayable",
      "type": "function"
    },
    {
      "inputs": [],
      "name": "paused",
      "outputs": [
        {
          "internalType": "bool",
          "name": "",
          "type": "bool"
        }
      ],
      "stateMutability": "view",
      "type": "function"
    },
    {
      "inputs": [],
      "name": "renounceOwnership",
      "outputs": [],
      "stateMutability": "nonpayable",
      "type": "function"
    },
    {
      "inputs": [],
      "name": "router",
      "outputs": [
        {
          "internalType": "contract IUniswapV2Router02",
          "name": "",
          "type": "address"
        }
      ],
      "stateMutability": "view",
      "type": "function"
    },
    {
      "inputs": [],
      "name": "sellFee",
      "outputs": [
        {
          "internalType": "uint256",
          "name": "",
          "type": "uint256"
        }
      ],
      "stateMutability": "view",
      "type": "function"
    },
    {
      "inputs": [
        {
          "internalType": "uint256",
          "name": "fee",
          "type": "uint256"
        }
      ],
      "name": "setBuyFee",
      "outputs": [],
      "stateMutability": "nonpayable",
      "type": "function"
    },
    {
      "inputs": [
        {
          "internalType": "address",
          "name": "_address",
          "type": "address"
        },
        {
          "internalType": "bool",
          "name": "_flag",
          "type": "bool"
        }
      ],
      "name": "setFeeExemptAddress",
      "outputs": [],
      "stateMutability": "nonpayable",
      "type": "function"
    },
    {
      "inputs": [
        {
          "internalType": "address",
          "name": "_address",
          "type": "address"
        }
      ],
      "name": "setFeeToken",
      "outputs": [],
      "stateMutability": "nonpayable",
      "type": "function"
    },
    {
      "inputs": [
        {
          "internalType": "address",
          "name": "_address",
          "type": "address"
        }
      ],
      "name": "setFeesReceiver",
      "outputs": [],
      "stateMutability": "nonpayable",
      "type": "function"
    },
    {
      "inputs": [
        {
          "internalType": "address",
          "name": "_address",
          "type": "address"
        }
      ],
      "name": "setPair",
      "outputs": [],
      "stateMutability": "nonpayable",
      "type": "function"
    },
    {
      "inputs": [
        {
          "internalType": "address",
          "name": "_address",
          "type": "address"
        }
      ],
      "name": "setRouter",
      "outputs": [],
      "stateMutability": "nonpayable",
      "type": "function"
    },
    {
      "inputs": [
        {
          "internalType": "uint256",
          "name": "fee",
          "type": "uint256"
        }
      ],
      "name": "setSellFee",
      "outputs": [],
      "stateMutability": "nonpayable",
      "type": "function"
    },
    {
      "inputs": [],
      "name": "symbol",
      "outputs": [
        {
          "internalType": "string",
          "name": "",
          "type": "string"
        }
      ],
      "stateMutability": "view",
      "type": "function"
    },
    {
      "inputs": [],
      "name": "totalSupply",
      "outputs": [
        {
          "internalType": "uint256",
          "name": "",
          "type": "uint256"
        }
      ],
      "stateMutability": "view",
      "type": "function"
    },
    {
      "inputs": [
        {
          "internalType": "address",
          "name": "to",
          "type": "address"
        },
        {
          "internalType": "uint256",
          "name": "value",
          "type": "uint256"
        }
      ],
      "name": "transfer",
      "outputs": [
        {
          "internalType": "bool",
          "name": "",
          "type": "bool"
        }
      ],
      "stateMutability": "nonpayable",
      "type": "function"
    },
    {
      "inputs": [
        {
          "internalType": "address",
          "name": "from",
          "type": "address"
        },
        {
          "internalType": "address",
          "name": "to",
          "type": "address"
        },
        {
          "internalType": "uint256",
          "name": "value",
          "type": "uint256"
        }
      ],
      "name": "transferFrom",
      "outputs": [
        {
          "internalType": "bool",
          "name": "",
          "type": "bool"
        }
      ],
      "stateMutability": "nonpayable",
      "type": "function"
    },
    {
      "inputs": [
        {
          "internalType": "address",
          "name": "newOwner",
          "type": "address"
        }
      ],
      "name": "transferOwnership",
      "outputs": [],
      "stateMutability": "nonpayable",
      "type": "function"
    },
    {
      "inputs": [],
      "name": "unpause",
      "outputs": [],
      "stateMutability": "nonpayable",
      "type": "function"
    },
    {
      "stateMutability": "payable",
      "type": "receive"
    }
  ],
  "bytecode": "0x60806040526003600755600560085573ae13d989dac2f0debff460ac112a837c89baa7cd600a60006101000a81548173ffffffffffffffffffffffffffffffffffffffff021916908373ffffffffffffffffffffffffffffffffffffffff1602179055506000600c60146101000a81548160ff0219169083151502179055503480156200008b57600080fd5b5060405162004819380380620048198339818101604052810190620000b19190620012f7565b826040518060400160405280600f81526020017f4c6f497465726174696f6e466f757200000000000000000000000000000000008152506040518060400160405280600381526020017f4c4946000000000000000000000000000000000000000000000000000000000081525081600390816200012f9190620015cd565b508060049081620001419190620015cd565b5050506000600560006101000a81548160ff021916908315150217905550600073ffffffffffffffffffffffffffffffffffffffff168173ffffffffffffffffffffffffffffffffffffffff1603620001d45760006040517f1e4fbdf7000000000000000000000000000000000000000000000000000000008152600401620001cb9190620016c5565b60405180910390fd5b620001e5816200043b60201b60201c565b5060016006819055506200022e33620002036200050160201b60201c565b600a62000211919062001872565b633b9aca00620002229190620018c3565b6200050a60201b60201c565b80600960006101000a81548173ffffffffffffffffffffffffffffffffffffffff021916908373ffffffffffffffffffffffffffffffffffffffff16021790555081600c60006101000a81548173ffffffffffffffffffffffffffffffffffffffff021916908373ffffffffffffffffffffffffffffffffffffffff1602179055506001600d6000600960009054906101000a900473ffffffffffffffffffffffffffffffffffffffff1673ffffffffffffffffffffffffffffffffffffffff1673ffffffffffffffffffffffffffffffffffffffff16815260200190815260200160002060006101000a81548160ff0219169083151502179055506001600d60008573ffffffffffffffffffffffffffffffffffffffff1673ffffffffffffffffffffffffffffffffffffffff16815260200190815260200160002060006101000a81548160ff0219169083151502179055506001600d60003073ffffffffffffffffffffffffffffffffffffffff1673ffffffffffffffffffffffffffffffffffffffff16815260200190815260200160002060006101000a81548160ff0219169083151502179055506001600d60003373ffffffffffffffffffffffffffffffffffffffff1673ffffffffffffffffffffffffffffffffffffffff16815260200190815260200160002060006101000a81548160ff02191690831515021790555050505062001c29565b6000600560019054906101000a900473ffffffffffffffffffffffffffffffffffffffff16905081600560016101000a81548173ffffffffffffffffffffffffffffffffffffffff021916908373ffffffffffffffffffffffffffffffffffffffff1602179055508173ffffffffffffffffffffffffffffffffffffffff168173ffffffffffffffffffffffffffffffffffffffff167f8be0079c531659141344cd1fd0a4f28419497f9722a3daafe3b4186f6b6457e060405160405180910390a35050565b60006012905090565b600073ffffffffffffffffffffffffffffffffffffffff168273ffffffffffffffffffffffffffffffffffffffff16036200057f5760006040517fec442f05000000000000000000000000000000000000000000000000000000008152600401620005769190620016c5565b60405180910390fd5b62000593600083836200059760201b60201c565b5050565b6000600c60149054906101000a900460ff168015620005c45750620005c384846200061260201b60201c565b5b15620005e557620005dd848484620006d160201b60201c565b9050620005e9565b8190505b620005fc848483620007da60201b60201c565b6200060c6200080260201b60201c565b50505050565b6000600d60008473ffffffffffffffffffffffffffffffffffffffff1673ffffffffffffffffffffffffffffffffffffffff16815260200190815260200160002060009054906101000a900460ff1680620006b65750600d60008373ffffffffffffffffffffffffffffffffffffffff1673ffffffffffffffffffffffffffffffffffffffff16815260200190815260200160002060009054906101000a900460ff165b15620006c65760009050620006cb565b600190505b92915050565b6000806000620006e886866200086f60201b60201c565b9050600060028111156200070157620007006200190e565b5b8160028111156200071757620007166200190e565b5b03620007285760075491506200076c565b600160028111156200073f576200073e6200190e565b5b8160028111156200075557620007546200190e565b5b03620007665760085491506200076b565b600091505b5b6000606483866200077e9190620018c3565b6200078a91906200196c565b905084811115620007a157849350505050620007d3565b6000831115620007bf57620007be873083620007da60201b60201c565b5b8085620007cd9190620019a4565b93505050505b9392505050565b620007ea620009f460201b60201c565b620007fd83838362000a3e60201b60201c565b505050565b6200081262000c6e60201b60201c565b6000620008253062000cb560201b60201c565b9050600081118015620008445750600c60149054906101000a900460ff165b156200085c576200085b8162000cfd60201b60201c565b5b506200086d62000feb60201b60201c565b565b6000600b60009054906101000a900473ffffffffffffffffffffffffffffffffffffffff1673ffffffffffffffffffffffffffffffffffffffff168373ffffffffffffffffffffffffffffffffffffffff161480156200091d5750600c60009054906101000a900473ffffffffffffffffffffffffffffffffffffffff1673ffffffffffffffffffffffffffffffffffffffff168273ffffffffffffffffffffffffffffffffffffffff1614155b156200092d5760009050620009ee565b600b60009054906101000a900473ffffffffffffffffffffffffffffffffffffffff1673ffffffffffffffffffffffffffffffffffffffff168273ffffffffffffffffffffffffffffffffffffffff16148015620009d95750600c60009054906101000a900473ffffffffffffffffffffffffffffffffffffffff1673ffffffffffffffffffffffffffffffffffffffff168373ffffffffffffffffffffffffffffffffffffffff1614155b15620009e95760019050620009ee565b600290505b92915050565b62000a0462000ff560201b60201c565b1562000a3c576040517fd93c066500000000000000000000000000000000000000000000000000000000815260040160405180910390fd5b565b600073ffffffffffffffffffffffffffffffffffffffff168373ffffffffffffffffffffffffffffffffffffffff160362000a9457806002600082825462000a879190620019df565b9250508190555062000b6a565b60008060008573ffffffffffffffffffffffffffffffffffffffff1673ffffffffffffffffffffffffffffffffffffffff1681526020019081526020016000205490508181101562000b23578381836040517fe450d38c00000000000000000000000000000000000000000000000000000000815260040162000b1a9392919062001a2b565b60405180910390fd5b8181036000808673ffffffffffffffffffffffffffffffffffffffff1673ffffffffffffffffffffffffffffffffffffffff16815260200190815260200160002081905550505b600073ffffffffffffffffffffffffffffffffffffffff168273ffffffffffffffffffffffffffffffffffffffff160362000bb5578060026000828254039250508190555062000c02565b806000808473ffffffffffffffffffffffffffffffffffffffff1673ffffffffffffffffffffffffffffffffffffffff168152602001908152602001600020600082825401925050819055505b8173ffffffffffffffffffffffffffffffffffffffff168373ffffffffffffffffffffffffffffffffffffffff167fddf252ad1be2c89b69c2b068fc378daa952ba7f163c4a11628f55a4df523b3ef8360405162000c61919062001a68565b60405180910390a3505050565b60026006540362000cab576040517f3ee5aeb500000000000000000000000000000000000000000000000000000000815260040160405180910390fd5b6002600681905550565b60008060008373ffffffffffffffffffffffffffffffffffffffff1673ffffffffffffffffffffffffffffffffffffffff168152602001908152602001600020549050919050565b600073ffffffffffffffffffffffffffffffffffffffff16600a60009054906101000a900473ffffffffffffffffffffffffffffffffffffffff1673ffffffffffffffffffffffffffffffffffffffff161462000fe8576000600267ffffffffffffffff81111562000d745762000d736200135e565b5b60405190808252806020026020018201604052801562000da35781602001602082028036833780820191505090505b509050308160008151811062000dbe5762000dbd62001a85565b5b602002602001019073ffffffffffffffffffffffffffffffffffffffff16908173ffffffffffffffffffffffffffffffffffffffff1681525050600a60009054906101000a900473ffffffffffffffffffffffffffffffffffffffff168160018151811062000e325762000e3162001a85565b5b602002602001019073ffffffffffffffffffffffffffffffffffffffff16908173ffffffffffffffffffffffffffffffffffffffff16815250508162000ea130600c60009054906101000a900473ffffffffffffffffffffffffffffffffffffffff166200100c60201b60201c565b101562000efe5762000efd30600c60009054906101000a900473ffffffffffffffffffffffffffffffffffffffff167fffffffffffffffffffffffffffffffffffffffffffffffffffffffffffffffff6200109360201b60201c565b5b600c60009054906101000a900473ffffffffffffffffffffffffffffffffffffffff1673ffffffffffffffffffffffffffffffffffffffff16635c11d79583600084600960009054906101000a900473ffffffffffffffffffffffffffffffffffffffff16426040518663ffffffff1660e01b815260040162000f8695949392919062001bc5565b600060405180830381600087803b15801562000fa157600080fd5b505af115801562000fb6573d6000803e3d6000fd5b505050507f3afa91d1a8eb0883356e6e4b01f51ae90fe2ad872448f518bda8c09141f33e1160405160405180910390a1505b50565b6001600681905550565b6000600560009054906101000a900460ff16905090565b6000600160008473ffffffffffffffffffffffffffffffffffffffff1673ffffffffffffffffffffffffffffffffffffffff16815260200190815260200160002060008373ffffffffffffffffffffffffffffffffffffffff1673ffffffffffffffffffffffffffffffffffffffff16815260200190815260200160002054905092915050565b620010a88383836001620010ad60201b60201c565b505050565b600073ffffffffffffffffffffffffffffffffffffffff168473ffffffffffffffffffffffffffffffffffffffff1603620011225760006040517fe602df05000000000000000000000000000000000000000000000000000000008152600401620011199190620016c5565b60405180910390fd5b600073ffffffffffffffffffffffffffffffffffffffff168373ffffffffffffffffffffffffffffffffffffffff1603620011975760006040517f94280d620000000000000000000000000000000000000000000000000000000081526004016200118e9190620016c5565b60405180910390fd5b81600160008673ffffffffffffffffffffffffffffffffffffffff1673ffffffffffffffffffffffffffffffffffffffff16815260200190815260200160002060008573ffffffffffffffffffffffffffffffffffffffff1673ffffffffffffffffffffffffffffffffffffffff16815260200190815260200160002081905550801562001287578273ffffffffffffffffffffffffffffffffffffffff168473ffffffffffffffffffffffffffffffffffffffff167f8c5be1e5ebec7d5bd14f71427d1e84f3dd0314c0f7b2291e5b200ac8c7c3b925846040516200127e919062001a68565b60405180910390a35b50505050565b600080fd5b600073ffffffffffffffffffffffffffffffffffffffff82169050919050565b6000620012bf8262001292565b9050919050565b620012d181620012b2565b8114620012dd57600080fd5b50565b600081519050620012f181620012c6565b92915050565b6000806000606084860312156200131357620013126200128d565b5b60006200132386828701620012e0565b93505060206200133686828701620012e0565b92505060406200134986828701620012e0565b9150509250925092565b600081519050919050565b7f4e487b7100000000000000000000000000000000000000000000000000000000600052604160045260246000fd5b7f4e487b7100000000000000000000000000000000000000000000000000000000600052602260045260246000fd5b60006002820490506001821680620013d557607f821691505b602082108103620013eb57620013ea6200138d565b5b50919050565b60008190508160005260206000209050919050565b60006020601f8301049050919050565b600082821b905092915050565b600060088302620014557fffffffffffffffffffffffffffffffffffffffffffffffffffffffffffffffff8262001416565b62001461868362001416565b95508019841693508086168417925050509392505050565b6000819050919050565b6000819050919050565b6000620014ae620014a8620014a28462001479565b62001483565b62001479565b9050919050565b6000819050919050565b620014ca836200148d565b620014e2620014d982620014b5565b84845462001423565b825550505050565b600090565b620014f9620014ea565b62001506818484620014bf565b505050565b5b818110156200152e5762001522600082620014ef565b6001810190506200150c565b5050565b601f8211156200157d576200154781620013f1565b620015528462001406565b8101602085101562001562578190505b6200157a620015718562001406565b8301826200150b565b50505b505050565b600082821c905092915050565b6000620015a26000198460080262001582565b1980831691505092915050565b6000620015bd83836200158f565b9150826002028217905092915050565b620015d88262001353565b67ffffffffffffffff811115620015f457620015f36200135e565b5b620016008254620013bc565b6200160d82828562001532565b600060209050601f83116001811462001645576000841562001630578287015190505b6200163c8582620015af565b865550620016ac565b601f1984166200165586620013f1565b60005b828110156200167f5784890151825560018201915060208501945060208101905062001658565b868310156200169f57848901516200169b601f8916826200158f565b8355505b6001600288020188555050505b505050505050565b620016bf81620012b2565b82525050565b6000602082019050620016dc6000830184620016b4565b92915050565b7f4e487b7100000000000000000000000000000000000000000000000000000000600052601160045260246000fd5b60008160011c9050919050565b6000808291508390505b60018511156200177057808604811115620017485762001747620016e2565b5b6001851615620017585780820291505b8081029050620017688562001711565b945062001728565b94509492505050565b6000826200178b57600190506200185e565b816200179b57600090506200185e565b8160018114620017b45760028114620017bf57620017f5565b60019150506200185e565b60ff841115620017d457620017d3620016e2565b5b8360020a915084821115620017ee57620017ed620016e2565b5b506200185e565b5060208310610133831016604e8410600b84101617156200182f5782820a905083811115620018295762001828620016e2565b5b6200185e565b6200183e84848460016200171e565b92509050818404811115620018585762001857620016e2565b5b81810290505b9392505050565b600060ff82169050919050565b60006200187f8262001479565b91506200188c8362001865565b9250620018bb7fffffffffffffffffffffffffffffffffffffffffffffffffffffffffffffffff848462001779565b905092915050565b6000620018d08262001479565b9150620018dd8362001479565b9250828202620018ed8162001479565b91508282048414831517620019075762001906620016e2565b5b5092915050565b7f4e487b7100000000000000000000000000000000000000000000000000000000600052602160045260246000fd5b7f4e487b7100000000000000000000000000000000000000000000000000000000600052601260045260246000fd5b6000620019798262001479565b9150620019868362001479565b9250826200199957620019986200193d565b5b828204905092915050565b6000620019b18262001479565b9150620019be8362001479565b9250828203905081811115620019d957620019d8620016e2565b5b92915050565b6000620019ec8262001479565b9150620019f98362001479565b925082820190508082111562001a145762001a13620016e2565b5b92915050565b62001a258162001479565b82525050565b600060608201905062001a426000830186620016b4565b62001a51602083018562001a1a565b62001a60604083018462001a1a565b949350505050565b600060208201905062001a7f600083018462001a1a565b92915050565b7f4e487b7100000000000000000000000000000000000000000000000000000000600052603260045260246000fd5b6000819050919050565b600062001adf62001ad962001ad38462001ab4565b62001483565b62001479565b9050919050565b62001af18162001abe565b82525050565b600081519050919050565b600082825260208201905092915050565b6000819050602082019050919050565b62001b2e81620012b2565b82525050565b600062001b42838362001b23565b60208301905092915050565b6000602082019050919050565b600062001b688262001af7565b62001b74818562001b02565b935062001b818362001b13565b8060005b8381101562001bb857815162001b9c888262001b34565b975062001ba98362001b4e565b92505060018101905062001b85565b5085935050505092915050565b600060a08201905062001bdc600083018862001a1a565b62001beb602083018762001ae6565b818103604083015262001bff818662001b5b565b905062001c106060830185620016b4565b62001c1f608083018462001a1a565b9695505050505050565b612be08062001c396000396000f3fe6080604052600436106101fd5760003560e01c8063715018a61161010d578063a8aa1b31116100a0578063c0d786551161006f578063c0d78655146106d0578063dd62ed3e146106f9578063f18e795114610736578063f2fde38b1461075f578063f887ea401461078857610204565b8063a8aa1b3114610612578063a9059cbb1461063d578063bc063e1a1461067a578063bca93cf5146106a557610204565b80638456cb59116100dc5780638456cb591461057c5780638b4cee08146105935780638da5cb5b146105bc57806395d89b41146105e757610204565b8063715018a6146104fc57806379cc6790146105135780638129fc1c1461053c5780638187f5161461055357610204565b8063313ce56711610190578063470624021161015f57806347062402146104155780635c975abb14610440578063600b2c8a1461046b578063647846a51461049457806370a08231146104bf57610204565b8063313ce5671461036d5780633f4218e0146103985780633f4ba83a146103d557806342966c68146103ec57610204565b806318160ddd116101cc57806318160ddd146102c357806323b872dd146102ee57806326c4e60d1461032b5780632b14ca561461034257610204565b806306fdde0314610209578063095ea7b3146102345780630cc835a31461027157806315cce2241461029a57610204565b3661020457005b600080fd5b34801561021557600080fd5b5061021e6107b3565b60405161022b91906122b2565b60405180910390f35b34801561024057600080fd5b5061025b6004803603810190610256919061236d565b610845565b60405161026891906123c8565b60405180910390f35b34801561027d57600080fd5b50610298600480360381019061029391906123e3565b610868565b005b3480156102a657600080fd5b506102c160048036038101906102bc9190612410565b6108f5565b005b3480156102cf57600080fd5b506102d86109e7565b6040516102e5919061244c565b60405180910390f35b3480156102fa57600080fd5b5061031560048036038101906103109190612467565b6109f1565b60405161032291906123c8565b60405180910390f35b34801561033757600080fd5b50610340610a20565b005b34801561034e57600080fd5b50610357610a32565b604051610364919061244c565b60405180910390f35b34801561037957600080fd5b50610382610a38565b60405161038f91906124d6565b60405180910390f35b3480156103a457600080fd5b506103bf60048036038101906103ba9190612410565b610a41565b6040516103cc91906123c8565b60405180910390f35b3480156103e157600080fd5b506103ea610a61565b005b3480156103f857600080fd5b50610413600480360381019061040e91906123e3565b610a73565b005b34801561042157600080fd5b5061042a610a87565b604051610437919061244c565b60405180910390f35b34801561044c57600080fd5b50610455610a8d565b60405161046291906123c8565b60405180910390f35b34801561047757600080fd5b50610492600480360381019061048d919061251d565b610aa4565b005b3480156104a057600080fd5b506104a9610baf565b6040516104b6919061256c565b60405180910390f35b3480156104cb57600080fd5b506104e660048036038101906104e19190612410565b610bd5565b6040516104f3919061244c565b60405180910390f35b34801561050857600080fd5b50610511610c1d565b005b34801561051f57600080fd5b5061053a6004803603810190610535919061236d565b610c31565b005b34801561054857600080fd5b50610551610c51565b005b34801561055f57600080fd5b5061057a60048036038101906105759190612410565b610ca2565b005b34801561058857600080fd5b50610591610d94565b005b34801561059f57600080fd5b506105ba60048036038101906105b591906123e3565b610da6565b005b3480156105c857600080fd5b506105d1610e33565b6040516105de919061256c565b60405180910390f35b3480156105f357600080fd5b506105fc610e5d565b60405161060991906122b2565b60405180910390f35b34801561061e57600080fd5b50610627610eef565b604051610634919061256c565b60405180910390f35b34801561064957600080fd5b50610664600480360381019061065f919061236d565b610f15565b60405161067191906123c8565b60405180910390f35b34801561068657600080fd5b5061068f610f38565b60405161069c919061244c565b60405180910390f35b3480156106b157600080fd5b506106ba610f3d565b6040516106c7919061256c565b60405180910390f35b3480156106dc57600080fd5b506106f760048036038101906106f29190612410565b610f63565b005b34801561070557600080fd5b50610720600480360381019061071b9190612587565b611055565b60405161072d919061244c565b60405180910390f35b34801561074257600080fd5b5061075d60048036038101906107589190612410565b6110dc565b005b34801561076b57600080fd5b5061078660048036038101906107819190612410565b6111ce565b005b34801561079457600080fd5b5061079d611254565b6040516107aa9190612626565b60405180910390f35b6060600380546107c290612670565b80601f01602080910402602001604051908101604052809291908181526020018280546107ee90612670565b801561083b5780601f106108105761010080835404028352916020019161083b565b820191906000526020600020905b81548152906001019060200180831161081e57829003601f168201915b5050505050905090565b60008061085061127a565b905061085d818585611282565b600191505092915050565b610870611294565b600a8111156108b4576040517f08c379a00000000000000000000000000000000000000000000000000000000081526004016108ab90612713565b60405180910390fd5b806007819055507f4164afd9904b0eee72326020b7f2a0de2e3f5b8998738fbacf09229b66e5fd80816040516108ea919061244c565b60405180910390a150565b6108fd611294565b600073ffffffffffffffffffffffffffffffffffffffff168173ffffffffffffffffffffffffffffffffffffffff160361096c576040517f08c379a00000000000000000000000000000000000000000000000000000000081526004016109639061277f565b60405180910390fd5b80600a60006101000a81548173ffffffffffffffffffffffffffffffffffffffff021916908373ffffffffffffffffffffffffffffffffffffffff1602179055507f0842bcbb92ca6d47ae89816778a843992dff9b876fad009865e1c5df73d46d1f816040516109dc919061256c565b60405180910390a150565b6000600254905090565b6000806109fc61127a565b9050610a0985828561131b565b610a148585856113af565b60019150509392505050565b610a28611294565b610a306114a3565b565b60085481565b60006012905090565b600d6020528060005260406000206000915054906101000a900460ff1681565b610a69611294565b610a716114ee565b565b610a84610a7e61127a565b82611551565b50565b60075481565b6000600560009054906101000a900460ff16905090565b610aac611294565b600073ffffffffffffffffffffffffffffffffffffffff168273ffffffffffffffffffffffffffffffffffffffff1603610b1b576040517f08c379a0000000000000000000000000000000000000000000000000000000008152600401610b129061277f565b60405180910390fd5b80600d60008473ffffffffffffffffffffffffffffffffffffffff1673ffffffffffffffffffffffffffffffffffffffff16815260200190815260200160002060006101000a81548160ff0219169083151502179055507f3cb0dc9d432b9f6f82bd813b801d540e7937da97f51df31272c984e5f1a1da2e8282604051610ba392919061279f565b60405180910390a15050565b600a60009054906101000a900473ffffffffffffffffffffffffffffffffffffffff1681565b60008060008373ffffffffffffffffffffffffffffffffffffffff1673ffffffffffffffffffffffffffffffffffffffff168152602001908152602001600020549050919050565b610c25611294565b610c2f60006115d3565b565b610c4382610c3d61127a565b8361131b565b610c4d8282611551565b5050565b610c59611294565b6001600c60146101000a81548160ff0219169083151502179055507fea2aa166849b59556dbc130836002cd3a1404ac0c035da12d6f098b35941e99b60405160405180910390a1565b610caa611294565b600073ffffffffffffffffffffffffffffffffffffffff168173ffffffffffffffffffffffffffffffffffffffff1603610d19576040517f08c379a0000000000000000000000000000000000000000000000000000000008152600401610d109061277f565b60405180910390fd5b80600b60006101000a81548173ffffffffffffffffffffffffffffffffffffffff021916908373ffffffffffffffffffffffffffffffffffffffff1602179055507f88d61fbc2c37e8a539b73481a13b38e481e0a71b20e372509165fd07eec05df381604051610d89919061256c565b60405180910390a150565b610d9c611294565b610da4611699565b565b610dae611294565b600a811115610df2576040517f08c379a0000000000000000000000000000000000000000000000000000000008152600401610de99061283a565b60405180910390fd5b806008819055507f74ee7e999ca1ca5e528cb19e41c5e12b09ef7ec7f52723b917fec754ce95047281604051610e28919061244c565b60405180910390a150565b6000600560019054906101000a900473ffffffffffffffffffffffffffffffffffffffff16905090565b606060048054610e6c90612670565b80601f0160208091040260200160405190810160405280929190818152602001828054610e9890612670565b8015610ee55780601f10610eba57610100808354040283529160200191610ee5565b820191906000526020600020905b815481529060010190602001808311610ec857829003601f168201915b5050505050905090565b600b60009054906101000a900473ffffffffffffffffffffffffffffffffffffffff1681565b600080610f2061127a565b9050610f2d8185856113af565b600191505092915050565b600a81565b600960009054906101000a900473ffffffffffffffffffffffffffffffffffffffff1681565b610f6b611294565b600073ffffffffffffffffffffffffffffffffffffffff168173ffffffffffffffffffffffffffffffffffffffff1603610fda576040517f08c379a0000000000000000000000000000000000000000000000000000000008152600401610fd19061277f565b60405180910390fd5b80600c60006101000a81548173ffffffffffffffffffffffffffffffffffffffff021916908373ffffffffffffffffffffffffffffffffffffffff1602179055507f6de4326a8b9054d72d9dbab97d27bc4edffadee7d966f5af9cc4eafdaf8e54558160405161104a919061256c565b60405180910390a150565b6000600160008473ffffffffffffffffffffffffffffffffffffffff1673ffffffffffffffffffffffffffffffffffffffff16815260200190815260200160002060008373ffffffffffffffffffffffffffffffffffffffff1673ffffffffffffffffffffffffffffffffffffffff16815260200190815260200160002054905092915050565b6110e4611294565b600073ffffffffffffffffffffffffffffffffffffffff168173ffffffffffffffffffffffffffffffffffffffff1603611153576040517f08c379a000000000000000000000000000000000000000000000000000000000815260040161114a9061277f565b60405180910390fd5b80600960006101000a81548173ffffffffffffffffffffffffffffffffffffffff021916908373ffffffffffffffffffffffffffffffffffffffff1602179055507f739fe1a68aad7be430b27de30ccf7d935b85459de671a05e7d60ea3d56772295816040516111c3919061256c565b60405180910390a150565b6111d6611294565b600073ffffffffffffffffffffffffffffffffffffffff168173ffffffffffffffffffffffffffffffffffffffff16036112485760006040517f1e4fbdf700000000000000000000000000000000000000000000000000000000815260040161123f919061256c565b60405180910390fd5b611251816115d3565b50565b600c60009054906101000a900473ffffffffffffffffffffffffffffffffffffffff1681565b600033905090565b61128f83838360016116fc565b505050565b61129c61127a565b73ffffffffffffffffffffffffffffffffffffffff166112ba610e33565b73ffffffffffffffffffffffffffffffffffffffff1614611319576112dd61127a565b6040517f118cdaa7000000000000000000000000000000000000000000000000000000008152600401611310919061256c565b60405180910390fd5b565b60006113278484611055565b90507fffffffffffffffffffffffffffffffffffffffffffffffffffffffffffffffff81146113a95781811015611399578281836040517ffb8f41b20000000000000000000000000000000000000000000000000000000081526004016113909392919061285a565b60405180910390fd5b6113a8848484840360006116fc565b5b50505050565b600073ffffffffffffffffffffffffffffffffffffffff168373ffffffffffffffffffffffffffffffffffffffff16036114215760006040517f96c6fd1e000000000000000000000000000000000000000000000000000000008152600401611418919061256c565b60405180910390fd5b600073ffffffffffffffffffffffffffffffffffffffff168273ffffffffffffffffffffffffffffffffffffffff16036114935760006040517fec442f0500000000000000000000000000000000000000000000000000000000815260040161148a919061256c565b60405180910390fd5b61149e8383836118d3565b505050565b6114ab61192b565b60006114b630610bd5565b90506000811180156114d45750600c60149054906101000a900460ff165b156114e3576114e281611971565b5b506114ec611c3f565b565b6114f6611c49565b6000600560006101000a81548160ff0219169083151502179055507f5db9ee0a495bf2e6ff9c91a7834c1ba4fdd244a5e8aa4e537bd38aeae4b073aa61153a61127a565b604051611547919061256c565b60405180910390a1565b600073ffffffffffffffffffffffffffffffffffffffff168273ffffffffffffffffffffffffffffffffffffffff16036115c35760006040517f96c6fd1e0000000000000000000000000000000000000000000000000000000081526004016115ba919061256c565b60405180910390fd5b6115cf826000836118d3565b5050565b6000600560019054906101000a900473ffffffffffffffffffffffffffffffffffffffff16905081600560016101000a81548173ffffffffffffffffffffffffffffffffffffffff021916908373ffffffffffffffffffffffffffffffffffffffff1602179055508173ffffffffffffffffffffffffffffffffffffffff168173ffffffffffffffffffffffffffffffffffffffff167f8be0079c531659141344cd1fd0a4f28419497f9722a3daafe3b4186f6b6457e060405160405180910390a35050565b6116a1611c89565b6001600560006101000a81548160ff0219169083151502179055507f62e78cea01bee320cd4e420270b5ea74000d11b0c9f74754ebdbfc544b05a2586116e561127a565b6040516116f2919061256c565b60405180910390a1565b600073ffffffffffffffffffffffffffffffffffffffff168473ffffffffffffffffffffffffffffffffffffffff160361176e5760006040517fe602df05000000000000000000000000000000000000000000000000000000008152600401611765919061256c565b60405180910390fd5b600073ffffffffffffffffffffffffffffffffffffffff168373ffffffffffffffffffffffffffffffffffffffff16036117e05760006040517f94280d620000000000000000000000000000000000000000000000000000000081526004016117d7919061256c565b60405180910390fd5b81600160008673ffffffffffffffffffffffffffffffffffffffff1673ffffffffffffffffffffffffffffffffffffffff16815260200190815260200160002060008573ffffffffffffffffffffffffffffffffffffffff1673ffffffffffffffffffffffffffffffffffffffff1681526020019081526020016000208190555080156118cd578273ffffffffffffffffffffffffffffffffffffffff168473ffffffffffffffffffffffffffffffffffffffff167f8c5be1e5ebec7d5bd14f71427d1e84f3dd0314c0f7b2291e5b200ac8c7c3b925846040516118c4919061244c565b60405180910390a35b50505050565b6000600c60149054906101000a900460ff1680156118f757506118f68484611cca565b5b1561190e57611907848484611d86565b9050611912565b8190505b61191d848483611e66565b6119256114a3565b50505050565b600260065403611967576040517f3ee5aeb500000000000000000000000000000000000000000000000000000000815260040160405180910390fd5b6002600681905550565b600073ffffffffffffffffffffffffffffffffffffffff16600a60009054906101000a900473ffffffffffffffffffffffffffffffffffffffff1673ffffffffffffffffffffffffffffffffffffffff1614611c3c576000600267ffffffffffffffff8111156119e4576119e3612891565b5b604051908082528060200260200182016040528015611a125781602001602082028036833780820191505090505b5090503081600081518110611a2a57611a296128c0565b5b602002602001019073ffffffffffffffffffffffffffffffffffffffff16908173ffffffffffffffffffffffffffffffffffffffff1681525050600a60009054906101000a900473ffffffffffffffffffffffffffffffffffffffff1681600181518110611a9b57611a9a6128c0565b5b602002602001019073ffffffffffffffffffffffffffffffffffffffff16908173ffffffffffffffffffffffffffffffffffffffff168152505081611b0230600c60009054906101000a900473ffffffffffffffffffffffffffffffffffffffff16611055565b1015611b5657611b5530600c60009054906101000a900473ffffffffffffffffffffffffffffffffffffffff167fffffffffffffffffffffffffffffffffffffffffffffffffffffffffffffffff611282565b5b600c60009054906101000a900473ffffffffffffffffffffffffffffffffffffffff1673ffffffffffffffffffffffffffffffffffffffff16635c11d79583600084600960009054906101000a900473ffffffffffffffffffffffffffffffffffffffff16426040518663ffffffff1660e01b8152600401611bdc9594939291906129e8565b600060405180830381600087803b158015611bf657600080fd5b505af1158015611c0a573d6000803e3d6000fd5b505050507f3afa91d1a8eb0883356e6e4b01f51ae90fe2ad872448f518bda8c09141f33e1160405160405180910390a1505b50565b6001600681905550565b611c51610a8d565b611c87576040517f8dfc202b00000000000000000000000000000000000000000000000000000000815260040160405180910390fd5b565b611c91610a8d565b15611cc8576040517fd93c066500000000000000000000000000000000000000000000000000000000815260040160405180910390fd5b565b6000600d60008473ffffffffffffffffffffffffffffffffffffffff1673ffffffffffffffffffffffffffffffffffffffff16815260200190815260200160002060009054906101000a900460ff1680611d6d5750600d60008373ffffffffffffffffffffffffffffffffffffffff1673ffffffffffffffffffffffffffffffffffffffff16815260200190815260200160002060009054906101000a900460ff165b15611d7b5760009050611d80565b600190505b92915050565b6000806000611d958686611e7e565b905060006002811115611dab57611daa612a42565b5b816002811115611dbe57611dbd612a42565b5b03611dcd576007549150611e09565b60016002811115611de157611de0612a42565b5b816002811115611df457611df3612a42565b5b03611e03576008549150611e08565b600091505b5b600060648386611e199190612aa0565b611e239190612b11565b905084811115611e3857849350505050611e5f565b6000831115611e4d57611e4c873083611e66565b5b8085611e599190612b42565b93505050505b9392505050565b611e6e611c89565b611e79838383611ffd565b505050565b6000600b60009054906101000a900473ffffffffffffffffffffffffffffffffffffffff1673ffffffffffffffffffffffffffffffffffffffff168373ffffffffffffffffffffffffffffffffffffffff16148015611f2b5750600c60009054906101000a900473ffffffffffffffffffffffffffffffffffffffff1673ffffffffffffffffffffffffffffffffffffffff168273ffffffffffffffffffffffffffffffffffffffff1614155b15611f395760009050611ff7565b600b60009054906101000a900473ffffffffffffffffffffffffffffffffffffffff1673ffffffffffffffffffffffffffffffffffffffff168273ffffffffffffffffffffffffffffffffffffffff16148015611fe45750600c60009054906101000a900473ffffffffffffffffffffffffffffffffffffffff1673ffffffffffffffffffffffffffffffffffffffff168373ffffffffffffffffffffffffffffffffffffffff1614155b15611ff25760019050611ff7565b600290505b92915050565b600073ffffffffffffffffffffffffffffffffffffffff168373ffffffffffffffffffffffffffffffffffffffff160361204f5780600260008282546120439190612b76565b92505081905550612122565b60008060008573ffffffffffffffffffffffffffffffffffffffff1673ffffffffffffffffffffffffffffffffffffffff168152602001908152602001600020549050818110156120db578381836040517fe450d38c0000000000000000000000000000000000000000000000000000000081526004016120d29392919061285a565b60405180910390fd5b8181036000808673ffffffffffffffffffffffffffffffffffffffff1673ffffffffffffffffffffffffffffffffffffffff16815260200190815260200160002081905550505b600073ffffffffffffffffffffffffffffffffffffffff168273ffffffffffffffffffffffffffffffffffffffff160361216b57806002600082825403925050819055506121b8565b806000808473ffffffffffffffffffffffffffffffffffffffff1673ffffffffffffffffffffffffffffffffffffffff168152602001908152602001600020600082825401925050819055505b8173ffffffffffffffffffffffffffffffffffffffff168373ffffffffffffffffffffffffffffffffffffffff167fddf252ad1be2c89b69c2b068fc378daa952ba7f163c4a11628f55a4df523b3ef83604051612215919061244c565b60405180910390a3505050565b600081519050919050565b600082825260208201905092915050565b60005b8381101561225c578082015181840152602081019050612241565b60008484015250505050565b6000601f19601f8301169050919050565b600061228482612222565b61228e818561222d565b935061229e81856020860161223e565b6122a781612268565b840191505092915050565b600060208201905081810360008301526122cc8184612279565b905092915050565b600080fd5b600073ffffffffffffffffffffffffffffffffffffffff82169050919050565b6000612304826122d9565b9050919050565b612314816122f9565b811461231f57600080fd5b50565b6000813590506123318161230b565b92915050565b6000819050919050565b61234a81612337565b811461235557600080fd5b50565b60008135905061236781612341565b92915050565b60008060408385031215612384576123836122d4565b5b600061239285828601612322565b92505060206123a385828601612358565b9150509250929050565b60008115159050919050565b6123c2816123ad565b82525050565b60006020820190506123dd60008301846123b9565b92915050565b6000602082840312156123f9576123f86122d4565b5b600061240784828501612358565b91505092915050565b600060208284031215612426576124256122d4565b5b600061243484828501612322565b91505092915050565b61244681612337565b82525050565b6000602082019050612461600083018461243d565b92915050565b6000806000606084860312156124805761247f6122d4565b5b600061248e86828701612322565b935050602061249f86828701612322565b92505060406124b086828701612358565b9150509250925092565b600060ff82169050919050565b6124d0816124ba565b82525050565b60006020820190506124eb60008301846124c7565b92915050565b6124fa816123ad565b811461250557600080fd5b50565b600081359050612517816124f1565b92915050565b60008060408385031215612534576125336122d4565b5b600061254285828601612322565b925050602061255385828601612508565b9150509250929050565b612566816122f9565b82525050565b6000602082019050612581600083018461255d565b92915050565b6000806040838503121561259e5761259d6122d4565b5b60006125ac85828601612322565b92505060206125bd85828601612322565b9150509250929050565b6000819050919050565b60006125ec6125e76125e2846122d9565b6125c7565b6122d9565b9050919050565b60006125fe826125d1565b9050919050565b6000612610826125f3565b9050919050565b61262081612605565b82525050565b600060208201905061263b6000830184612617565b92915050565b7f4e487b7100000000000000000000000000000000000000000000000000000000600052602260045260246000fd5b6000600282049050600182168061268857607f821691505b60208210810361269b5761269a612641565b5b50919050565b7f427579206665652063616e6e6f74206265206c6172676572207468616e204d4160008201527f585f464545000000000000000000000000000000000000000000000000000000602082015250565b60006126fd60258361222d565b9150612708826126a1565b604082019050919050565b6000602082019050818103600083015261272c816126f0565b9050919050565b7f494e56414c494420414444524553530000000000000000000000000000000000600082015250565b6000612769600f8361222d565b915061277482612733565b602082019050919050565b600060208201905081810360008301526127988161275c565b9050919050565b60006040820190506127b4600083018561255d565b6127c160208301846123b9565b9392505050565b7f53656c6c206665652063616e6e6f74206265206c6172676572207468616e204d60008201527f41585f4645450000000000000000000000000000000000000000000000000000602082015250565b600061282460268361222d565b915061282f826127c8565b604082019050919050565b6000602082019050818103600083015261285381612817565b9050919050565b600060608201905061286f600083018661255d565b61287c602083018561243d565b612889604083018461243d565b949350505050565b7f4e487b7100000000000000000000000000000000000000000000000000000000600052604160045260246000fd5b7f4e487b7100000000000000000000000000000000000000000000000000000000600052603260045260246000fd5b6000819050919050565b600061291461290f61290a846128ef565b6125c7565b612337565b9050919050565b612924816128f9565b82525050565b600081519050919050565b600082825260208201905092915050565b6000819050602082019050919050565b61295f816122f9565b82525050565b60006129718383612956565b60208301905092915050565b6000602082019050919050565b60006129958261292a565b61299f8185612935565b93506129aa83612946565b8060005b838110156129db5781516129c28882612965565b97506129cd8361297d565b9250506001810190506129ae565b5085935050505092915050565b600060a0820190506129fd600083018861243d565b612a0a602083018761291b565b8181036040830152612a1c818661298a565b9050612a2b606083018561255d565b612a38608083018461243d565b9695505050505050565b7f4e487b7100000000000000000000000000000000000000000000000000000000600052602160045260246000fd5b7f4e487b7100000000000000000000000000000000000000000000000000000000600052601160045260246000fd5b6000612aab82612337565b9150612ab683612337565b9250828202612ac481612337565b91508282048414831517612adb57612ada612a71565b5b5092915050565b7f4e487b7100000000000000000000000000000000000000000000000000000000600052601260045260246000fd5b6000612b1c82612337565b9150612b2783612337565b925082612b3757612b36612ae2565b5b828204905092915050565b6000612b4d82612337565b9150612b5883612337565b9250828203905081811115612b7057612b6f612a71565b5b92915050565b6000612b8182612337565b9150612b8c83612337565b9250828201905080821115612ba457612ba3612a71565b5b9291505056fea264697066735822122030bfd1141baff83781978b3493698ed0a0723339c94ff682d83cf3aece05510764736f6c63430008180033",
  "linkReferences": {},
  "deployedLinkReferences": {}
}