{
  "_format": "hh-sol-artifact-1",
  "contractName": "Lollipop",
  "sourceName": "contracts/Lollipop.sol",
  "abi": [
    {
      "inputs": [
        {
          "internalType": "address",
          "name": "initialOwner",
          "type": "address"
        },
        {
          "internalType": "address",
          "name": "_router",
          "type": "address"
        },
        {
          "internalType": "address",
          "name": "_feesReceiver",
          "type": "address"
        }
      ],
      "stateMutability": "payable",
      "type": "constructor"
    },
    {
      "inputs": [
        {
          "internalType": "address",
          "name": "spender",
          "type": "address"
        },
        {
          "internalType": "uint256",
          "name": "allowance",
          "type": "uint256"
        },
        {
          "internalType": "uint256",
          "name": "needed",
          "type": "uint256"
        }
      ],
      "name": "ERC20InsufficientAllowance",
      "type": "error"
    },
    {
      "inputs": [
        {
          "internalType": "address",
          "name": "sender",
          "type": "address"
        },
        {
          "internalType": "uint256",
          "name": "balance",
          "type": "uint256"
        },
        {
          "internalType": "uint256",
          "name": "needed",
          "type": "uint256"
        }
      ],
      "name": "ERC20InsufficientBalance",
      "type": "error"
    },
    {
      "inputs": [
        {
          "internalType": "address",
          "name": "approver",
          "type": "address"
        }
      ],
      "name": "ERC20InvalidApprover",
      "type": "error"
    },
    {
      "inputs": [
        {
          "internalType": "address",
          "name": "receiver",
          "type": "address"
        }
      ],
      "name": "ERC20InvalidReceiver",
      "type": "error"
    },
    {
      "inputs": [
        {
          "internalType": "address",
          "name": "sender",
          "type": "address"
        }
      ],
      "name": "ERC20InvalidSender",
      "type": "error"
    },
    {
      "inputs": [
        {
          "internalType": "address",
          "name": "spender",
          "type": "address"
        }
      ],
      "name": "ERC20InvalidSpender",
      "type": "error"
    },
    {
      "inputs": [],
      "name": "EnforcedPause",
      "type": "error"
    },
    {
      "inputs": [],
      "name": "ExpectedPause",
      "type": "error"
    },
    {
      "inputs": [
        {
          "internalType": "address",
          "name": "owner",
          "type": "address"
        }
      ],
      "name": "OwnableInvalidOwner",
      "type": "error"
    },
    {
      "inputs": [
        {
          "internalType": "address",
          "name": "account",
          "type": "address"
        }
      ],
      "name": "OwnableUnauthorizedAccount",
      "type": "error"
    },
    {
      "inputs": [],
      "name": "ReentrancyGuardReentrantCall",
      "type": "error"
    },
    {
      "anonymous": false,
      "inputs": [
        {
          "indexed": true,
          "internalType": "address",
          "name": "owner",
          "type": "address"
        },
        {
          "indexed": true,
          "internalType": "address",
          "name": "spender",
          "type": "address"
        },
        {
          "indexed": false,
          "internalType": "uint256",
          "name": "value",
          "type": "uint256"
        }
      ],
      "name": "Approval",
      "type": "event"
    },
    {
      "anonymous": false,
      "inputs": [
        {
          "indexed": false,
          "internalType": "uint256",
          "name": "_amount",
          "type": "uint256"
        }
      ],
      "name": "DistributeFees",
      "type": "event"
    },
    {
      "anonymous": false,
      "inputs": [
        {
          "indexed": false,
          "internalType": "string",
          "name": "reason",
          "type": "string"
        }
      ],
      "name": "Error",
      "type": "event"
    },
    {
      "anonymous": false,
      "inputs": [
        {
          "indexed": true,
          "internalType": "address",
          "name": "previousOwner",
          "type": "address"
        },
        {
          "indexed": true,
          "internalType": "address",
          "name": "newOwner",
          "type": "address"
        }
      ],
      "name": "OwnershipTransferred",
      "type": "event"
    },
    {
      "anonymous": false,
      "inputs": [
        {
          "indexed": false,
          "internalType": "address",
          "name": "account",
          "type": "address"
        }
      ],
      "name": "Paused",
      "type": "event"
    },
    {
      "anonymous": false,
      "inputs": [
        {
          "indexed": false,
          "internalType": "uint256",
          "name": "fee",
          "type": "uint256"
        }
      ],
      "name": "SetBuyFee",
      "type": "event"
    },
    {
      "anonymous": false,
      "inputs": [
        {
          "indexed": false,
          "internalType": "address",
          "name": "_address",
          "type": "address"
        },
        {
          "indexed": false,
          "internalType": "bool",
          "name": "_flag",
          "type": "bool"
        }
      ],
      "name": "SetFeeExemptAddress",
      "type": "event"
    },
    {
      "anonymous": false,
      "inputs": [
        {
          "indexed": false,
          "internalType": "address",
          "name": "_address",
          "type": "address"
        }
      ],
      "name": "SetFeeToken",
      "type": "event"
    },
    {
      "anonymous": false,
      "inputs": [
        {
          "indexed": false,
          "internalType": "address",
          "name": "_address",
          "type": "address"
        }
      ],
      "name": "SetFeesReceiver",
      "type": "event"
    },
    {
      "anonymous": false,
      "inputs": [],
      "name": "SetInitialized",
      "type": "event"
    },
    {
      "anonymous": false,
      "inputs": [
        {
          "indexed": false,
          "internalType": "address",
          "name": "_address",
          "type": "address"
        }
      ],
      "name": "SetPair",
      "type": "event"
    },
    {
      "anonymous": false,
      "inputs": [
        {
          "indexed": false,
          "internalType": "address",
          "name": "_address",
          "type": "address"
        }
      ],
      "name": "SetRouter",
      "type": "event"
    },
    {
      "anonymous": false,
      "inputs": [
        {
          "indexed": false,
          "internalType": "uint256",
          "name": "fee",
          "type": "uint256"
        }
      ],
      "name": "SetSellFee",
      "type": "event"
    },
    {
      "anonymous": false,
      "inputs": [
        {
          "indexed": true,
          "internalType": "address",
          "name": "from",
          "type": "address"
        },
        {
          "indexed": true,
          "internalType": "address",
          "name": "to",
          "type": "address"
        },
        {
          "indexed": false,
          "internalType": "uint256",
          "name": "value",
          "type": "uint256"
        }
      ],
      "name": "Transfer",
      "type": "event"
    },
    {
      "anonymous": false,
      "inputs": [
        {
          "indexed": false,
          "internalType": "address",
          "name": "account",
          "type": "address"
        }
      ],
      "name": "Unpaused",
      "type": "event"
    },
    {
      "anonymous": false,
      "inputs": [
        {
          "indexed": false,
          "internalType": "uint256",
          "name": "_balance",
          "type": "uint256"
        }
      ],
      "name": "Withdraw",
      "type": "event"
    },
    {
      "anonymous": false,
      "inputs": [
        {
          "indexed": false,
          "internalType": "uint256",
          "name": "_balance",
          "type": "uint256"
        }
      ],
      "name": "WithdrawTokensToFeesReceiver",
      "type": "event"
    },
    {
      "inputs": [],
      "name": "MAX_FEE",
      "outputs": [
        {
          "internalType": "uint256",
          "name": "",
          "type": "uint256"
        }
      ],
      "stateMutability": "view",
      "type": "function"
    },
    {
      "inputs": [],
      "name": "TOKEN_NAME",
      "outputs": [
        {
          "internalType": "string",
          "name": "",
          "type": "string"
        }
      ],
      "stateMutability": "view",
      "type": "function"
    },
    {
      "inputs": [],
      "name": "TOKEN_SUPPLY",
      "outputs": [
        {
          "internalType": "uint256",
          "name": "",
          "type": "uint256"
        }
      ],
      "stateMutability": "view",
      "type": "function"
    },
    {
      "inputs": [],
      "name": "TOKEN_SYMBOL",
      "outputs": [
        {
          "internalType": "string",
          "name": "",
          "type": "string"
        }
      ],
      "stateMutability": "view",
      "type": "function"
    },
    {
      "inputs": [
        {
          "internalType": "address",
          "name": "owner",
          "type": "address"
        },
        {
          "internalType": "address",
          "name": "spender",
          "type": "address"
        }
      ],
      "name": "allowance",
      "outputs": [
        {
          "internalType": "uint256",
          "name": "",
          "type": "uint256"
        }
      ],
      "stateMutability": "view",
      "type": "function"
    },
    {
      "inputs": [
        {
          "internalType": "address",
          "name": "spender",
          "type": "address"
        },
        {
          "internalType": "uint256",
          "name": "value",
          "type": "uint256"
        }
      ],
      "name": "approve",
      "outputs": [
        {
          "internalType": "bool",
          "name": "",
          "type": "bool"
        }
      ],
      "stateMutability": "nonpayable",
      "type": "function"
    },
    {
      "inputs": [
        {
          "internalType": "address",
          "name": "account",
          "type": "address"
        }
      ],
      "name": "balanceOf",
      "outputs": [
        {
          "internalType": "uint256",
          "name": "",
          "type": "uint256"
        }
      ],
      "stateMutability": "view",
      "type": "function"
    },
    {
      "inputs": [
        {
          "internalType": "uint256",
          "name": "value",
          "type": "uint256"
        }
      ],
      "name": "burn",
      "outputs": [],
      "stateMutability": "nonpayable",
      "type": "function"
    },
    {
      "inputs": [
        {
          "internalType": "address",
          "name": "account",
          "type": "address"
        },
        {
          "internalType": "uint256",
          "name": "value",
          "type": "uint256"
        }
      ],
      "name": "burnFrom",
      "outputs": [],
      "stateMutability": "nonpayable",
      "type": "function"
    },
    {
      "inputs": [],
      "name": "buyFee",
      "outputs": [
        {
          "internalType": "uint256",
          "name": "",
          "type": "uint256"
        }
      ],
      "stateMutability": "view",
      "type": "function"
    },
    {
      "inputs": [],
      "name": "decimals",
      "outputs": [
        {
          "internalType": "uint8",
          "name": "",
          "type": "uint8"
        }
      ],
      "stateMutability": "view",
      "type": "function"
    },
    {
      "inputs": [],
      "name": "distributeFee",
      "outputs": [],
      "stateMutability": "nonpayable",
      "type": "function"
    },
    {
      "inputs": [],
      "name": "feeToken",
      "outputs": [
        {
          "internalType": "address",
          "name": "",
          "type": "address"
        }
      ],
      "stateMutability": "view",
      "type": "function"
    },
    {
      "inputs": [],
      "name": "feesReceiver",
      "outputs": [
        {
          "internalType": "address",
          "name": "",
          "type": "address"
        }
      ],
      "stateMutability": "view",
      "type": "function"
    },
    {
      "inputs": [],
      "name": "initialize",
      "outputs": [],
      "stateMutability": "nonpayable",
      "type": "function"
    },
    {
      "inputs": [
        {
          "internalType": "address",
          "name": "",
          "type": "address"
        }
      ],
      "name": "isFeeExempt",
      "outputs": [
        {
          "internalType": "bool",
          "name": "",
          "type": "bool"
        }
      ],
      "stateMutability": "view",
      "type": "function"
    },
    {
      "inputs": [],
      "name": "name",
      "outputs": [
        {
          "internalType": "string",
          "name": "",
          "type": "string"
        }
      ],
      "stateMutability": "view",
      "type": "function"
    },
    {
      "inputs": [],
      "name": "owner",
      "outputs": [
        {
          "internalType": "address",
          "name": "",
          "type": "address"
        }
      ],
      "stateMutability": "view",
      "type": "function"
    },
    {
      "inputs": [],
      "name": "pair",
      "outputs": [
        {
          "internalType": "address",
          "name": "",
          "type": "address"
        }
      ],
      "stateMutability": "view",
      "type": "function"
    },
    {
      "inputs": [],
      "name": "pause",
      "outputs": [],
      "stateMutability": "nonpayable",
      "type": "function"
    },
    {
      "inputs": [],
      "name": "paused",
      "outputs": [
        {
          "internalType": "bool",
          "name": "",
          "type": "bool"
        }
      ],
      "stateMutability": "view",
      "type": "function"
    },
    {
      "inputs": [],
      "name": "renounceOwnership",
      "outputs": [],
      "stateMutability": "nonpayable",
      "type": "function"
    },
    {
      "inputs": [],
      "name": "router",
      "outputs": [
        {
          "internalType": "contract IUniswapV2Router02",
          "name": "",
          "type": "address"
        }
      ],
      "stateMutability": "view",
      "type": "function"
    },
    {
      "inputs": [],
      "name": "sellFee",
      "outputs": [
        {
          "internalType": "uint256",
          "name": "",
          "type": "uint256"
        }
      ],
      "stateMutability": "view",
      "type": "function"
    },
    {
      "inputs": [
        {
          "internalType": "uint256",
          "name": "fee",
          "type": "uint256"
        }
      ],
      "name": "setBuyFee",
      "outputs": [],
      "stateMutability": "nonpayable",
      "type": "function"
    },
    {
      "inputs": [
        {
          "internalType": "address",
          "name": "_address",
          "type": "address"
        },
        {
          "internalType": "bool",
          "name": "_flag",
          "type": "bool"
        }
      ],
      "name": "setFeeExemptAddress",
      "outputs": [],
      "stateMutability": "nonpayable",
      "type": "function"
    },
    {
      "inputs": [
        {
          "internalType": "address",
          "name": "_address",
          "type": "address"
        }
      ],
      "name": "setFeeToken",
      "outputs": [],
      "stateMutability": "nonpayable",
      "type": "function"
    },
    {
      "inputs": [
        {
          "internalType": "address",
          "name": "_address",
          "type": "address"
        }
      ],
      "name": "setFeesReceiver",
      "outputs": [],
      "stateMutability": "nonpayable",
      "type": "function"
    },
    {
      "inputs": [
        {
          "internalType": "address",
          "name": "_address",
          "type": "address"
        }
      ],
      "name": "setPair",
      "outputs": [],
      "stateMutability": "nonpayable",
      "type": "function"
    },
    {
      "inputs": [
        {
          "internalType": "address",
          "name": "_address",
          "type": "address"
        }
      ],
      "name": "setRouter",
      "outputs": [],
      "stateMutability": "nonpayable",
      "type": "function"
    },
    {
      "inputs": [
        {
          "internalType": "uint256",
          "name": "fee",
          "type": "uint256"
        }
      ],
      "name": "setSellFee",
      "outputs": [],
      "stateMutability": "nonpayable",
      "type": "function"
    },
    {
      "inputs": [],
      "name": "symbol",
      "outputs": [
        {
          "internalType": "string",
          "name": "",
          "type": "string"
        }
      ],
      "stateMutability": "view",
      "type": "function"
    },
    {
      "inputs": [],
      "name": "totalSupply",
      "outputs": [
        {
          "internalType": "uint256",
          "name": "",
          "type": "uint256"
        }
      ],
      "stateMutability": "view",
      "type": "function"
    },
    {
      "inputs": [
        {
          "internalType": "address",
          "name": "to",
          "type": "address"
        },
        {
          "internalType": "uint256",
          "name": "value",
          "type": "uint256"
        }
      ],
      "name": "transfer",
      "outputs": [
        {
          "internalType": "bool",
          "name": "",
          "type": "bool"
        }
      ],
      "stateMutability": "nonpayable",
      "type": "function"
    },
    {
      "inputs": [
        {
          "internalType": "address",
          "name": "from",
          "type": "address"
        },
        {
          "internalType": "address",
          "name": "to",
          "type": "address"
        },
        {
          "internalType": "uint256",
          "name": "value",
          "type": "uint256"
        }
      ],
      "name": "transferFrom",
      "outputs": [
        {
          "internalType": "bool",
          "name": "",
          "type": "bool"
        }
      ],
      "stateMutability": "nonpayable",
      "type": "function"
    },
    {
      "inputs": [
        {
          "internalType": "address",
          "name": "newOwner",
          "type": "address"
        }
      ],
      "name": "transferOwnership",
      "outputs": [],
      "stateMutability": "nonpayable",
      "type": "function"
    },
    {
      "inputs": [],
      "name": "unpause",
      "outputs": [],
      "stateMutability": "nonpayable",
      "type": "function"
    },
    {
      "inputs": [],
      "name": "withdraw",
      "outputs": [],
      "stateMutability": "nonpayable",
      "type": "function"
    },
    {
      "inputs": [],
      "name": "withdrawTokensToFeesReceiver",
      "outputs": [],
      "stateMutability": "nonpayable",
      "type": "function"
    },
    {
      "stateMutability": "payable",
      "type": "receive"
    }
  ],
  "bytecode": "0x60806040526003600755600560085573ae13d989dac2f0debff460ac112a837c89baa7cd600a60006101000a81548173ffffffffffffffffffffffffffffffffffffffff021916908373ffffffffffffffffffffffffffffffffffffffff1602179055506000600c60146101000a81548160ff021916908315150217905550604051620050f5380380620050f58339818101604052810190620000a3919062001303565b826040518060400160405280600e81526020017f4c6f497465726174696f6e5369780000000000000000000000000000000000008152506040518060400160405280600381526020017f4c495300000000000000000000000000000000000000000000000000000000008152508160039081620001219190620015d9565b508060049081620001339190620015d9565b5050506000600560006101000a81548160ff021916908315150217905550600073ffffffffffffffffffffffffffffffffffffffff168173ffffffffffffffffffffffffffffffffffffffff1603620001c65760006040517f1e4fbdf7000000000000000000000000000000000000000000000000000000008152600401620001bd9190620016d1565b60405180910390fd5b620001d7816200042d60201b60201c565b5060016006819055506200022033620001f5620004f360201b60201c565b600a6200020391906200187e565b633b9aca00620002149190620018cf565b620004fc60201b60201c565b80600960006101000a81548173ffffffffffffffffffffffffffffffffffffffff021916908373ffffffffffffffffffffffffffffffffffffffff16021790555081600c60006101000a81548173ffffffffffffffffffffffffffffffffffffffff021916908373ffffffffffffffffffffffffffffffffffffffff1602179055506001600d6000600960009054906101000a900473ffffffffffffffffffffffffffffffffffffffff1673ffffffffffffffffffffffffffffffffffffffff1673ffffffffffffffffffffffffffffffffffffffff16815260200190815260200160002060006101000a81548160ff0219169083151502179055506001600d60008573ffffffffffffffffffffffffffffffffffffffff1673ffffffffffffffffffffffffffffffffffffffff16815260200190815260200160002060006101000a81548160ff0219169083151502179055506001600d60003073ffffffffffffffffffffffffffffffffffffffff1673ffffffffffffffffffffffffffffffffffffffff16815260200190815260200160002060006101000a81548160ff0219169083151502179055506001600d60003373ffffffffffffffffffffffffffffffffffffffff1673ffffffffffffffffffffffffffffffffffffffff16815260200190815260200160002060006101000a81548160ff02191690831515021790555050505062001f6c565b6000600560019054906101000a900473ffffffffffffffffffffffffffffffffffffffff16905081600560016101000a81548173ffffffffffffffffffffffffffffffffffffffff021916908373ffffffffffffffffffffffffffffffffffffffff1602179055508173ffffffffffffffffffffffffffffffffffffffff168173ffffffffffffffffffffffffffffffffffffffff167f8be0079c531659141344cd1fd0a4f28419497f9722a3daafe3b4186f6b6457e060405160405180910390a35050565b60006012905090565b600073ffffffffffffffffffffffffffffffffffffffff168273ffffffffffffffffffffffffffffffffffffffff1603620005715760006040517fec442f05000000000000000000000000000000000000000000000000000000008152600401620005689190620016d1565b60405180910390fd5b62000585600083836200058960201b60201c565b5050565b6000600c60149054906101000a900460ff168015620005b65750620005b584846200060460201b60201c565b5b15620005e757620005cf848484620006c360201b60201c565b9050620005e1620007b660201b60201c565b620005eb565b8190505b620005fe8484836200082360201b60201c565b50505050565b6000600d60008473ffffffffffffffffffffffffffffffffffffffff1673ffffffffffffffffffffffffffffffffffffffff16815260200190815260200160002060009054906101000a900460ff1680620006a85750600d60008373ffffffffffffffffffffffffffffffffffffffff1673ffffffffffffffffffffffffffffffffffffffff16815260200190815260200160002060009054906101000a900460ff165b15620006b85760009050620006bd565b600190505b92915050565b6000806000620006da86866200084b60201b60201c565b905060006002811115620006f357620006f26200191a565b5b8160028111156200070957620007086200191a565b5b036200071a5760075491506200075e565b600160028111156200073157620007306200191a565b5b8160028111156200074757620007466200191a565b5b03620007585760085491506200075d565b600091505b5b600060648386620007709190620018cf565b6200077c919062001978565b905060008311156200079c576200079b8730836200082360201b60201c565b5b8085620007aa9190620019b0565b93505050509392505050565b620007c66200091860201b60201c565b6000620007d9306200095f60201b60201c565b9050600c60149054906101000a900460ff168015620007f85750600081115b1562000810576200080f81620009a760201b60201c565b5b506200082162000d6e60201b60201c565b565b6200083362000d7860201b60201c565b6200084683838362000dc260201b60201c565b505050565b6000600b60009054906101000a900473ffffffffffffffffffffffffffffffffffffffff1673ffffffffffffffffffffffffffffffffffffffff168373ffffffffffffffffffffffffffffffffffffffff1603620008ad576000905062000912565b600b60009054906101000a900473ffffffffffffffffffffffffffffffffffffffff1673ffffffffffffffffffffffffffffffffffffffff168273ffffffffffffffffffffffffffffffffffffffff16036200090d576001905062000912565b600290505b92915050565b60026006540362000955576040517f3ee5aeb500000000000000000000000000000000000000000000000000000000815260040160405180910390fd5b6002600681905550565b60008060008373ffffffffffffffffffffffffffffffffffffffff1673ffffffffffffffffffffffffffffffffffffffff168152602001908152602001600020549050919050565b600073ffffffffffffffffffffffffffffffffffffffff16600a60009054906101000a900473ffffffffffffffffffffffffffffffffffffffff1673ffffffffffffffffffffffffffffffffffffffff161462000d6b576000600267ffffffffffffffff81111562000a1e5762000a1d6200136a565b5b60405190808252806020026020018201604052801562000a4d5781602001602082028036833780820191505090505b509050308160008151811062000a685762000a67620019eb565b5b602002602001019073ffffffffffffffffffffffffffffffffffffffff16908173ffffffffffffffffffffffffffffffffffffffff1681525050600a60009054906101000a900473ffffffffffffffffffffffffffffffffffffffff168160018151811062000adc5762000adb620019eb565b5b602002602001019073ffffffffffffffffffffffffffffffffffffffff16908173ffffffffffffffffffffffffffffffffffffffff16815250508162000b4b30600c60009054906101000a900473ffffffffffffffffffffffffffffffffffffffff1662000ff260201b60201c565b101562000ba85762000ba730600c60009054906101000a900473ffffffffffffffffffffffffffffffffffffffff167fffffffffffffffffffffffffffffffffffffffffffffffffffffffffffffffff6200107960201b60201c565b5b600c60009054906101000a900473ffffffffffffffffffffffffffffffffffffffff1673ffffffffffffffffffffffffffffffffffffffff166318cbafe583600084600960009054906101000a900473ffffffffffffffffffffffffffffffffffffffff16426040518663ffffffff1660e01b815260040162000c3095949392919062001b3c565b6000604051808303816000875af192505050801562000c7457506040513d6000823e3d601f19601f8201168201806040525081019062000c71919062001d17565b60015b62000d2e5762000c8362001d75565b806308c379a00362000d1c575062000c9a62001d9a565b8062000ca7575062000d1e565b62000cdc30600960009054906101000a900473ffffffffffffffffffffffffffffffffffffffff16856200082360201b60201c565b7f08c379a0afcc32b1a39302f7cb8073359698411ab5fd6e3edb2c02c0b5fba8aa8160405162000d0d919062001eb3565b60405180910390a15062000d28565b505b3d6000803e3d6000fd5b62000d30565b505b7f98247f7bfe9bc0dd2082599235b06718b8222bf674552bd10b2c055051159bd28260405162000d61919062001ed7565b60405180910390a1505b50565b6001600681905550565b62000d886200109360201b60201c565b1562000dc0576040517fd93c066500000000000000000000000000000000000000000000000000000000815260040160405180910390fd5b565b600073ffffffffffffffffffffffffffffffffffffffff168373ffffffffffffffffffffffffffffffffffffffff160362000e1857806002600082825462000e0b919062001ef4565b9250508190555062000eee565b60008060008573ffffffffffffffffffffffffffffffffffffffff1673ffffffffffffffffffffffffffffffffffffffff1681526020019081526020016000205490508181101562000ea7578381836040517fe450d38c00000000000000000000000000000000000000000000000000000000815260040162000e9e9392919062001f2f565b60405180910390fd5b8181036000808673ffffffffffffffffffffffffffffffffffffffff1673ffffffffffffffffffffffffffffffffffffffff16815260200190815260200160002081905550505b600073ffffffffffffffffffffffffffffffffffffffff168273ffffffffffffffffffffffffffffffffffffffff160362000f39578060026000828254039250508190555062000f86565b806000808473ffffffffffffffffffffffffffffffffffffffff1673ffffffffffffffffffffffffffffffffffffffff168152602001908152602001600020600082825401925050819055505b8173ffffffffffffffffffffffffffffffffffffffff168373ffffffffffffffffffffffffffffffffffffffff167fddf252ad1be2c89b69c2b068fc378daa952ba7f163c4a11628f55a4df523b3ef8360405162000fe5919062001ed7565b60405180910390a3505050565b6000600160008473ffffffffffffffffffffffffffffffffffffffff1673ffffffffffffffffffffffffffffffffffffffff16815260200190815260200160002060008373ffffffffffffffffffffffffffffffffffffffff1673ffffffffffffffffffffffffffffffffffffffff16815260200190815260200160002054905092915050565b6200108e8383836001620010aa60201b60201c565b505050565b6000600560009054906101000a900460ff16905090565b600073ffffffffffffffffffffffffffffffffffffffff168473ffffffffffffffffffffffffffffffffffffffff16036200111f5760006040517fe602df05000000000000000000000000000000000000000000000000000000008152600401620011169190620016d1565b60405180910390fd5b600073ffffffffffffffffffffffffffffffffffffffff168373ffffffffffffffffffffffffffffffffffffffff1603620011945760006040517f94280d620000000000000000000000000000000000000000000000000000000081526004016200118b9190620016d1565b60405180910390fd5b81600160008673ffffffffffffffffffffffffffffffffffffffff1673ffffffffffffffffffffffffffffffffffffffff16815260200190815260200160002060008573ffffffffffffffffffffffffffffffffffffffff1673ffffffffffffffffffffffffffffffffffffffff16815260200190815260200160002081905550801562001284578273ffffffffffffffffffffffffffffffffffffffff168473ffffffffffffffffffffffffffffffffffffffff167f8c5be1e5ebec7d5bd14f71427d1e84f3dd0314c0f7b2291e5b200ac8c7c3b925846040516200127b919062001ed7565b60405180910390a35b50505050565b6000604051905090565b600080fd5b600080fd5b600073ffffffffffffffffffffffffffffffffffffffff82169050919050565b6000620012cb826200129e565b9050919050565b620012dd81620012be565b8114620012e957600080fd5b50565b600081519050620012fd81620012d2565b92915050565b6000806000606084860312156200131f576200131e62001294565b5b60006200132f86828701620012ec565b93505060206200134286828701620012ec565b92505060406200135586828701620012ec565b9150509250925092565b600081519050919050565b7f4e487b7100000000000000000000000000000000000000000000000000000000600052604160045260246000fd5b7f4e487b7100000000000000000000000000000000000000000000000000000000600052602260045260246000fd5b60006002820490506001821680620013e157607f821691505b602082108103620013f757620013f662001399565b5b50919050565b60008190508160005260206000209050919050565b60006020601f8301049050919050565b600082821b905092915050565b600060088302620014617fffffffffffffffffffffffffffffffffffffffffffffffffffffffffffffffff8262001422565b6200146d868362001422565b95508019841693508086168417925050509392505050565b6000819050919050565b6000819050919050565b6000620014ba620014b4620014ae8462001485565b6200148f565b62001485565b9050919050565b6000819050919050565b620014d68362001499565b620014ee620014e582620014c1565b8484546200142f565b825550505050565b600090565b62001505620014f6565b62001512818484620014cb565b505050565b5b818110156200153a576200152e600082620014fb565b60018101905062001518565b5050565b601f82111562001589576200155381620013fd565b6200155e8462001412565b810160208510156200156e578190505b620015866200157d8562001412565b83018262001517565b50505b505050565b600082821c905092915050565b6000620015ae600019846008026200158e565b1980831691505092915050565b6000620015c983836200159b565b9150826002028217905092915050565b620015e4826200135f565b67ffffffffffffffff8111156200160057620015ff6200136a565b5b6200160c8254620013c8565b620016198282856200153e565b600060209050601f8311600181146200165157600084156200163c578287015190505b620016488582620015bb565b865550620016b8565b601f1984166200166186620013fd565b60005b828110156200168b5784890151825560018201915060208501945060208101905062001664565b86831015620016ab5784890151620016a7601f8916826200159b565b8355505b6001600288020188555050505b505050505050565b620016cb81620012be565b82525050565b6000602082019050620016e86000830184620016c0565b92915050565b7f4e487b7100000000000000000000000000000000000000000000000000000000600052601160045260246000fd5b60008160011c9050919050565b6000808291508390505b60018511156200177c57808604811115620017545762001753620016ee565b5b6001851615620017645780820291505b808102905062001774856200171d565b945062001734565b94509492505050565b6000826200179757600190506200186a565b81620017a757600090506200186a565b8160018114620017c05760028114620017cb5762001801565b60019150506200186a565b60ff841115620017e057620017df620016ee565b5b8360020a915084821115620017fa57620017f9620016ee565b5b506200186a565b5060208310610133831016604e8410600b84101617156200183b5782820a905083811115620018355762001834620016ee565b5b6200186a565b6200184a84848460016200172a565b92509050818404811115620018645762001863620016ee565b5b81810290505b9392505050565b600060ff82169050919050565b60006200188b8262001485565b9150620018988362001871565b9250620018c77fffffffffffffffffffffffffffffffffffffffffffffffffffffffffffffffff848462001785565b905092915050565b6000620018dc8262001485565b9150620018e98362001485565b9250828202620018f98162001485565b91508282048414831517620019135762001912620016ee565b5b5092915050565b7f4e487b7100000000000000000000000000000000000000000000000000000000600052602160045260246000fd5b7f4e487b7100000000000000000000000000000000000000000000000000000000600052601260045260246000fd5b6000620019858262001485565b9150620019928362001485565b925082620019a557620019a462001949565b5b828204905092915050565b6000620019bd8262001485565b9150620019ca8362001485565b9250828203905081811115620019e557620019e4620016ee565b5b92915050565b7f4e487b7100000000000000000000000000000000000000000000000000000000600052603260045260246000fd5b62001a258162001485565b82525050565b6000819050919050565b600062001a5662001a5062001a4a8462001a2b565b6200148f565b62001485565b9050919050565b62001a688162001a35565b82525050565b600081519050919050565b600082825260208201905092915050565b6000819050602082019050919050565b62001aa581620012be565b82525050565b600062001ab9838362001a9a565b60208301905092915050565b6000602082019050919050565b600062001adf8262001a6e565b62001aeb818562001a79565b935062001af88362001a8a565b8060005b8381101562001b2f57815162001b13888262001aab565b975062001b208362001ac5565b92505060018101905062001afc565b5085935050505092915050565b600060a08201905062001b53600083018862001a1a565b62001b62602083018762001a5d565b818103604083015262001b76818662001ad2565b905062001b876060830185620016c0565b62001b96608083018462001a1a565b9695505050505050565b600080fd5b6000601f19601f8301169050919050565b62001bc18262001ba5565b810181811067ffffffffffffffff8211171562001be35762001be26200136a565b5b80604052505050565b600062001bf86200128a565b905062001c06828262001bb6565b919050565b600067ffffffffffffffff82111562001c295762001c286200136a565b5b602082029050602081019050919050565b600080fd5b62001c4a8162001485565b811462001c5657600080fd5b50565b60008151905062001c6a8162001c3f565b92915050565b600062001c8762001c818462001c0b565b62001bec565b9050808382526020820190506020840283018581111562001cad5762001cac62001c3a565b5b835b8181101562001cda578062001cc5888262001c59565b84526020840193505060208101905062001caf565b5050509392505050565b600082601f83011262001cfc5762001cfb62001ba0565b5b815162001d0e84826020860162001c70565b91505092915050565b60006020828403121562001d305762001d2f62001294565b5b600082015167ffffffffffffffff81111562001d515762001d5062001299565b5b62001d5f8482850162001ce4565b91505092915050565b60008160e01c9050919050565b600060033d111562001d975760046000803e62001d9460005162001d68565b90505b90565b600060443d1062001e325762001daf6200128a565b60043d036004823e80513d602482011167ffffffffffffffff8211171562001dd957505062001e32565b808201805167ffffffffffffffff81111562001df9575050505062001e32565b80602083010160043d03850181111562001e1857505050505062001e32565b62001e298260200185018662001bb6565b82955050505050505b90565b600082825260208201905092915050565b60005b8381101562001e6657808201518184015260208101905062001e49565b60008484015250505050565b600062001e7f826200135f565b62001e8b818562001e35565b935062001e9d81856020860162001e46565b62001ea88162001ba5565b840191505092915050565b6000602082019050818103600083015262001ecf818462001e72565b905092915050565b600060208201905062001eee600083018462001a1a565b92915050565b600062001f018262001485565b915062001f0e8362001485565b925082820190508082111562001f295762001f28620016ee565b5b92915050565b600060608201905062001f466000830186620016c0565b62001f55602083018562001a1a565b62001f64604083018462001a1a565b949350505050565b6131798062001f7c6000396000f3fe6080604052600436106102345760003560e01c806370a082311161012e578063a9059cbb116100ab578063dd62ed3e1161006f578063dd62ed3e146107c8578063f18e795114610805578063f2fde38b1461082e578063f887ea4014610857578063ff127431146108825761023b565b8063a9059cbb146106e1578063b152f6cf1461071e578063bc063e1a14610749578063bca93cf514610774578063c0d786551461079f5761023b565b80638456cb59116100f25780638456cb59146106205780638b4cee08146106375780638da5cb5b1461066057806395d89b411461068b578063a8aa1b31146106b65761023b565b806370a0823114610563578063715018a6146105a057806379cc6790146105b75780638129fc1c146105e05780638187f516146105f75761023b565b80632b14ca56116101bc57806342966c681161018057806342966c681461049057806347062402146104b95780635c975abb146104e4578063600b2c8a1461050f578063647846a5146105385761023b565b80632b14ca56146103cf578063313ce567146103fa5780633ccfd60b146104255780633f4218e01461043c5780633f4ba83a146104795761023b565b806318160ddd1161020357806318160ddd146102fa578063188214001461032557806323b872dd1461035057806326c4e60d1461038d5780632a905318146103a45761023b565b806306fdde0314610240578063095ea7b31461026b5780630cc835a3146102a857806315cce224146102d15761023b565b3661023b57005b600080fd5b34801561024c57600080fd5b50610255610899565b604051610262919061259a565b60405180910390f35b34801561027757600080fd5b50610292600480360381019061028d9190612664565b61092b565b60405161029f91906126bf565b60405180910390f35b3480156102b457600080fd5b506102cf60048036038101906102ca91906126da565b61094e565b005b3480156102dd57600080fd5b506102f860048036038101906102f39190612707565b6109db565b005b34801561030657600080fd5b5061030f610acd565b60405161031c9190612743565b60405180910390f35b34801561033157600080fd5b5061033a610ad7565b604051610347919061259a565b60405180910390f35b34801561035c57600080fd5b506103776004803603810190610372919061275e565b610b10565b60405161038491906126bf565b60405180910390f35b34801561039957600080fd5b506103a2610b3f565b005b3480156103b057600080fd5b506103b9610b51565b6040516103c6919061259a565b60405180910390f35b3480156103db57600080fd5b506103e4610b8a565b6040516103f19190612743565b60405180910390f35b34801561040657600080fd5b5061040f610b90565b60405161041c91906127cd565b60405180910390f35b34801561043157600080fd5b5061043a610b99565b005b34801561044857600080fd5b50610463600480360381019061045e9190612707565b610c6a565b60405161047091906126bf565b60405180910390f35b34801561048557600080fd5b5061048e610c8a565b005b34801561049c57600080fd5b506104b760048036038101906104b291906126da565b610c9c565b005b3480156104c557600080fd5b506104ce610cb0565b6040516104db9190612743565b60405180910390f35b3480156104f057600080fd5b506104f9610cb6565b60405161050691906126bf565b60405180910390f35b34801561051b57600080fd5b5061053660048036038101906105319190612814565b610ccd565b005b34801561054457600080fd5b5061054d610dd8565b60405161055a9190612863565b60405180910390f35b34801561056f57600080fd5b5061058a60048036038101906105859190612707565b610dfe565b6040516105979190612743565b60405180910390f35b3480156105ac57600080fd5b506105b5610e46565b005b3480156105c357600080fd5b506105de60048036038101906105d99190612664565b610e5a565b005b3480156105ec57600080fd5b506105f5610e7a565b005b34801561060357600080fd5b5061061e60048036038101906106199190612707565b610ecb565b005b34801561062c57600080fd5b50610635610fbd565b005b34801561064357600080fd5b5061065e600480360381019061065991906126da565b610fcf565b005b34801561066c57600080fd5b5061067561105c565b6040516106829190612863565b60405180910390f35b34801561069757600080fd5b506106a0611086565b6040516106ad919061259a565b60405180910390f35b3480156106c257600080fd5b506106cb611118565b6040516106d89190612863565b60405180910390f35b3480156106ed57600080fd5b5061070860048036038101906107039190612664565b61113e565b60405161071591906126bf565b60405180910390f35b34801561072a57600080fd5b50610733611161565b6040516107409190612743565b60405180910390f35b34801561075557600080fd5b5061075e611169565b60405161076b9190612743565b60405180910390f35b34801561078057600080fd5b5061078961116e565b6040516107969190612863565b60405180910390f35b3480156107ab57600080fd5b506107c660048036038101906107c19190612707565b611194565b005b3480156107d457600080fd5b506107ef60048036038101906107ea919061287e565b611286565b6040516107fc9190612743565b60405180910390f35b34801561081157600080fd5b5061082c60048036038101906108279190612707565b61130d565b005b34801561083a57600080fd5b5061085560048036038101906108509190612707565b6113ff565b005b34801561086357600080fd5b5061086c611485565b604051610879919061291d565b60405180910390f35b34801561088e57600080fd5b506108976114ab565b005b6060600380546108a890612967565b80601f01602080910402602001604051908101604052809291908181526020018280546108d490612967565b80156109215780601f106108f657610100808354040283529160200191610921565b820191906000526020600020905b81548152906001019060200180831161090457829003601f168201915b5050505050905090565b60008061093661156a565b9050610943818585611572565b600191505092915050565b610956611584565b600a81111561099a576040517f08c379a000000000000000000000000000000000000000000000000000000000815260040161099190612a0a565b60405180910390fd5b806007819055507f4164afd9904b0eee72326020b7f2a0de2e3f5b8998738fbacf09229b66e5fd80816040516109d09190612743565b60405180910390a150565b6109e3611584565b600073ffffffffffffffffffffffffffffffffffffffff168173ffffffffffffffffffffffffffffffffffffffff1603610a52576040517f08c379a0000000000000000000000000000000000000000000000000000000008152600401610a4990612a76565b60405180910390fd5b80600a60006101000a81548173ffffffffffffffffffffffffffffffffffffffff021916908373ffffffffffffffffffffffffffffffffffffffff1602179055507f0842bcbb92ca6d47ae89816778a843992dff9b876fad009865e1c5df73d46d1f81604051610ac29190612863565b60405180910390a150565b6000600254905090565b6040518060400160405280600e81526020017f4c6f497465726174696f6e53697800000000000000000000000000000000000081525081565b600080610b1b61156a565b9050610b2885828561160b565b610b3385858561169f565b60019150509392505050565b610b47611584565b610b4f611793565b565b6040518060400160405280600381526020017f4c4953000000000000000000000000000000000000000000000000000000000081525081565b60085481565b60006012905090565b610ba1611584565b600047905060008103610be9576040517f08c379a0000000000000000000000000000000000000000000000000000000008152600401610be090612ae2565b60405180910390fd5b3373ffffffffffffffffffffffffffffffffffffffff166108fc829081150290604051600060405180830381858888f19350505050158015610c2f573d6000803e3d6000fd5b507f5b6b431d4476a211bb7d41c20d1aab9ae2321deee0d20be3d9fc9b1093fa6e3d81604051610c5f9190612743565b60405180910390a150565b600d6020528060005260406000206000915054906101000a900460ff1681565b610c92611584565b610c9a6117de565b565b610cad610ca761156a565b82611841565b50565b60075481565b6000600560009054906101000a900460ff16905090565b610cd5611584565b600073ffffffffffffffffffffffffffffffffffffffff168273ffffffffffffffffffffffffffffffffffffffff1603610d44576040517f08c379a0000000000000000000000000000000000000000000000000000000008152600401610d3b90612a76565b60405180910390fd5b80600d60008473ffffffffffffffffffffffffffffffffffffffff1673ffffffffffffffffffffffffffffffffffffffff16815260200190815260200160002060006101000a81548160ff0219169083151502179055507f3cb0dc9d432b9f6f82bd813b801d540e7937da97f51df31272c984e5f1a1da2e8282604051610dcc929190612b02565b60405180910390a15050565b600a60009054906101000a900473ffffffffffffffffffffffffffffffffffffffff1681565b60008060008373ffffffffffffffffffffffffffffffffffffffff1673ffffffffffffffffffffffffffffffffffffffff168152602001908152602001600020549050919050565b610e4e611584565b610e5860006118c3565b565b610e6c82610e6661156a565b8361160b565b610e768282611841565b5050565b610e82611584565b6001600c60146101000a81548160ff0219169083151502179055507fea2aa166849b59556dbc130836002cd3a1404ac0c035da12d6f098b35941e99b60405160405180910390a1565b610ed3611584565b600073ffffffffffffffffffffffffffffffffffffffff168173ffffffffffffffffffffffffffffffffffffffff1603610f42576040517f08c379a0000000000000000000000000000000000000000000000000000000008152600401610f3990612a76565b60405180910390fd5b80600b60006101000a81548173ffffffffffffffffffffffffffffffffffffffff021916908373ffffffffffffffffffffffffffffffffffffffff1602179055507f88d61fbc2c37e8a539b73481a13b38e481e0a71b20e372509165fd07eec05df381604051610fb29190612863565b60405180910390a150565b610fc5611584565b610fcd611989565b565b610fd7611584565b600a81111561101b576040517f08c379a000000000000000000000000000000000000000000000000000000000815260040161101290612b9d565b60405180910390fd5b806008819055507f74ee7e999ca1ca5e528cb19e41c5e12b09ef7ec7f52723b917fec754ce950472816040516110519190612743565b60405180910390a150565b6000600560019054906101000a900473ffffffffffffffffffffffffffffffffffffffff16905090565b60606004805461109590612967565b80601f01602080910402602001604051908101604052809291908181526020018280546110c190612967565b801561110e5780601f106110e35761010080835404028352916020019161110e565b820191906000526020600020905b8154815290600101906020018083116110f157829003601f168201915b5050505050905090565b600b60009054906101000a900473ffffffffffffffffffffffffffffffffffffffff1681565b60008061114961156a565b905061115681858561169f565b600191505092915050565b633b9aca0081565b600a81565b600960009054906101000a900473ffffffffffffffffffffffffffffffffffffffff1681565b61119c611584565b600073ffffffffffffffffffffffffffffffffffffffff168173ffffffffffffffffffffffffffffffffffffffff160361120b576040517f08c379a000000000000000000000000000000000000000000000000000000000815260040161120290612a76565b60405180910390fd5b80600c60006101000a81548173ffffffffffffffffffffffffffffffffffffffff021916908373ffffffffffffffffffffffffffffffffffffffff1602179055507f6de4326a8b9054d72d9dbab97d27bc4edffadee7d966f5af9cc4eafdaf8e54558160405161127b9190612863565b60405180910390a150565b6000600160008473ffffffffffffffffffffffffffffffffffffffff1673ffffffffffffffffffffffffffffffffffffffff16815260200190815260200160002060008373ffffffffffffffffffffffffffffffffffffffff1673ffffffffffffffffffffffffffffffffffffffff16815260200190815260200160002054905092915050565b611315611584565b600073ffffffffffffffffffffffffffffffffffffffff168173ffffffffffffffffffffffffffffffffffffffff1603611384576040517f08c379a000000000000000000000000000000000000000000000000000000000815260040161137b90612a76565b60405180910390fd5b80600960006101000a81548173ffffffffffffffffffffffffffffffffffffffff021916908373ffffffffffffffffffffffffffffffffffffffff1602179055507f739fe1a68aad7be430b27de30ccf7d935b85459de671a05e7d60ea3d56772295816040516113f49190612863565b60405180910390a150565b611407611584565b600073ffffffffffffffffffffffffffffffffffffffff168173ffffffffffffffffffffffffffffffffffffffff16036114795760006040517f1e4fbdf70000000000000000000000000000000000000000000000000000000081526004016114709190612863565b60405180910390fd5b611482816118c3565b50565b600c60009054906101000a900473ffffffffffffffffffffffffffffffffffffffff1681565b6114b3611584565b60006114be30610dfe565b905060008103611503576040517f08c379a00000000000000000000000000000000000000000000000000000000081526004016114fa90612ae2565b60405180910390fd5b61153030600960009054906101000a900473ffffffffffffffffffffffffffffffffffffffff16836119ec565b7f92bc736ecd22831ae12c34ce4715c830e225402ac5a4796eea27da1a7bc238a38160405161155f9190612743565b60405180910390a150565b600033905090565b61157f8383836001611a04565b505050565b61158c61156a565b73ffffffffffffffffffffffffffffffffffffffff166115aa61105c565b73ffffffffffffffffffffffffffffffffffffffff1614611609576115cd61156a565b6040517f118cdaa70000000000000000000000000000000000000000000000000000000081526004016116009190612863565b60405180910390fd5b565b60006116178484611286565b90507fffffffffffffffffffffffffffffffffffffffffffffffffffffffffffffffff81146116995781811015611689578281836040517ffb8f41b200000000000000000000000000000000000000000000000000000000815260040161168093929190612bbd565b60405180910390fd5b61169884848484036000611a04565b5b50505050565b600073ffffffffffffffffffffffffffffffffffffffff168373ffffffffffffffffffffffffffffffffffffffff16036117115760006040517f96c6fd1e0000000000000000000000000000000000000000000000000000000081526004016117089190612863565b60405180910390fd5b600073ffffffffffffffffffffffffffffffffffffffff168273ffffffffffffffffffffffffffffffffffffffff16036117835760006040517fec442f0500000000000000000000000000000000000000000000000000000000815260040161177a9190612863565b60405180910390fd5b61178e838383611bdb565b505050565b61179b611c33565b60006117a630610dfe565b9050600c60149054906101000a900460ff1680156117c45750600081115b156117d3576117d281611c79565b5b506117dc612009565b565b6117e6612013565b6000600560006101000a81548160ff0219169083151502179055507f5db9ee0a495bf2e6ff9c91a7834c1ba4fdd244a5e8aa4e537bd38aeae4b073aa61182a61156a565b6040516118379190612863565b60405180910390a1565b600073ffffffffffffffffffffffffffffffffffffffff168273ffffffffffffffffffffffffffffffffffffffff16036118b35760006040517f96c6fd1e0000000000000000000000000000000000000000000000000000000081526004016118aa9190612863565b60405180910390fd5b6118bf82600083611bdb565b5050565b6000600560019054906101000a900473ffffffffffffffffffffffffffffffffffffffff16905081600560016101000a81548173ffffffffffffffffffffffffffffffffffffffff021916908373ffffffffffffffffffffffffffffffffffffffff1602179055508173ffffffffffffffffffffffffffffffffffffffff168173ffffffffffffffffffffffffffffffffffffffff167f8be0079c531659141344cd1fd0a4f28419497f9722a3daafe3b4186f6b6457e060405160405180910390a35050565b611991612053565b6001600560006101000a81548160ff0219169083151502179055507f62e78cea01bee320cd4e420270b5ea74000d11b0c9f74754ebdbfc544b05a2586119d561156a565b6040516119e29190612863565b60405180910390a1565b6119f4612053565b6119ff838383612094565b505050565b600073ffffffffffffffffffffffffffffffffffffffff168473ffffffffffffffffffffffffffffffffffffffff1603611a765760006040517fe602df05000000000000000000000000000000000000000000000000000000008152600401611a6d9190612863565b60405180910390fd5b600073ffffffffffffffffffffffffffffffffffffffff168373ffffffffffffffffffffffffffffffffffffffff1603611ae85760006040517f94280d62000000000000000000000000000000000000000000000000000000008152600401611adf9190612863565b60405180910390fd5b81600160008673ffffffffffffffffffffffffffffffffffffffff1673ffffffffffffffffffffffffffffffffffffffff16815260200190815260200160002060008573ffffffffffffffffffffffffffffffffffffffff1673ffffffffffffffffffffffffffffffffffffffff168152602001908152602001600020819055508015611bd5578273ffffffffffffffffffffffffffffffffffffffff168473ffffffffffffffffffffffffffffffffffffffff167f8c5be1e5ebec7d5bd14f71427d1e84f3dd0314c0f7b2291e5b200ac8c7c3b92584604051611bcc9190612743565b60405180910390a35b50505050565b6000600c60149054906101000a900460ff168015611bff5750611bfe84846122b9565b5b15611c1e57611c0f848484612375565b9050611c19611793565b611c22565b8190505b611c2d8484836119ec565b50505050565b600260065403611c6f576040517f3ee5aeb500000000000000000000000000000000000000000000000000000000815260040160405180910390fd5b6002600681905550565b600073ffffffffffffffffffffffffffffffffffffffff16600a60009054906101000a900473ffffffffffffffffffffffffffffffffffffffff1673ffffffffffffffffffffffffffffffffffffffff1614612006576000600267ffffffffffffffff811115611cec57611ceb612bf4565b5b604051908082528060200260200182016040528015611d1a5781602001602082028036833780820191505090505b5090503081600081518110611d3257611d31612c23565b5b602002602001019073ffffffffffffffffffffffffffffffffffffffff16908173ffffffffffffffffffffffffffffffffffffffff1681525050600a60009054906101000a900473ffffffffffffffffffffffffffffffffffffffff1681600181518110611da357611da2612c23565b5b602002602001019073ffffffffffffffffffffffffffffffffffffffff16908173ffffffffffffffffffffffffffffffffffffffff168152505081611e0a30600c60009054906101000a900473ffffffffffffffffffffffffffffffffffffffff16611286565b1015611e5e57611e5d30600c60009054906101000a900473ffffffffffffffffffffffffffffffffffffffff167fffffffffffffffffffffffffffffffffffffffffffffffffffffffffffffffff611572565b5b600c60009054906101000a900473ffffffffffffffffffffffffffffffffffffffff1673ffffffffffffffffffffffffffffffffffffffff166318cbafe583600084600960009054906101000a900473ffffffffffffffffffffffffffffffffffffffff16426040518663ffffffff1660e01b8152600401611ee4959493929190612d4b565b6000604051808303816000875af1925050508015611f2557506040513d6000823e3d601f19601f82011682018060405250810190611f229190612ed3565b60015b611fcb57611f31612f29565b806308c379a003611fba5750611f45612f4b565b80611f505750611fbc565b611f7d30600960009054906101000a900473ffffffffffffffffffffffffffffffffffffffff16856119ec565b7f08c379a0afcc32b1a39302f7cb8073359698411ab5fd6e3edb2c02c0b5fba8aa81604051611fac919061259a565b60405180910390a150611fc6565b505b3d6000803e3d6000fd5b611fcd565b505b7f98247f7bfe9bc0dd2082599235b06718b8222bf674552bd10b2c055051159bd282604051611ffc9190612743565b60405180910390a1505b50565b6001600681905550565b61201b610cb6565b612051576040517f8dfc202b00000000000000000000000000000000000000000000000000000000815260040160405180910390fd5b565b61205b610cb6565b15612092576040517fd93c066500000000000000000000000000000000000000000000000000000000815260040160405180910390fd5b565b600073ffffffffffffffffffffffffffffffffffffffff168373ffffffffffffffffffffffffffffffffffffffff16036120e65780600260008282546120da919061300a565b925050819055506121b9565b60008060008573ffffffffffffffffffffffffffffffffffffffff1673ffffffffffffffffffffffffffffffffffffffff16815260200190815260200160002054905081811015612172578381836040517fe450d38c00000000000000000000000000000000000000000000000000000000815260040161216993929190612bbd565b60405180910390fd5b8181036000808673ffffffffffffffffffffffffffffffffffffffff1673ffffffffffffffffffffffffffffffffffffffff16815260200190815260200160002081905550505b600073ffffffffffffffffffffffffffffffffffffffff168273ffffffffffffffffffffffffffffffffffffffff1603612202578060026000828254039250508190555061224f565b806000808473ffffffffffffffffffffffffffffffffffffffff1673ffffffffffffffffffffffffffffffffffffffff168152602001908152602001600020600082825401925050819055505b8173ffffffffffffffffffffffffffffffffffffffff168373ffffffffffffffffffffffffffffffffffffffff167fddf252ad1be2c89b69c2b068fc378daa952ba7f163c4a11628f55a4df523b3ef836040516122ac9190612743565b60405180910390a3505050565b6000600d60008473ffffffffffffffffffffffffffffffffffffffff1673ffffffffffffffffffffffffffffffffffffffff16815260200190815260200160002060009054906101000a900460ff168061235c5750600d60008373ffffffffffffffffffffffffffffffffffffffff1673ffffffffffffffffffffffffffffffffffffffff16815260200190815260200160002060009054906101000a900460ff165b1561236a576000905061236f565b600190505b92915050565b60008060006123848686612441565b90506000600281111561239a5761239961303e565b5b8160028111156123ad576123ac61303e565b5b036123bc5760075491506123f8565b600160028111156123d0576123cf61303e565b5b8160028111156123e3576123e261303e565b5b036123f25760085491506123f7565b600091505b5b600060648386612408919061306d565b61241291906130de565b90506000831115612429576124288730836119ec565b5b8085612435919061310f565b93505050509392505050565b6000600b60009054906101000a900473ffffffffffffffffffffffffffffffffffffffff1673ffffffffffffffffffffffffffffffffffffffff168373ffffffffffffffffffffffffffffffffffffffff16036124a15760009050612504565b600b60009054906101000a900473ffffffffffffffffffffffffffffffffffffffff1673ffffffffffffffffffffffffffffffffffffffff168273ffffffffffffffffffffffffffffffffffffffff16036124ff5760019050612504565b600290505b92915050565b600081519050919050565b600082825260208201905092915050565b60005b83811015612544578082015181840152602081019050612529565b60008484015250505050565b6000601f19601f8301169050919050565b600061256c8261250a565b6125768185612515565b9350612586818560208601612526565b61258f81612550565b840191505092915050565b600060208201905081810360008301526125b48184612561565b905092915050565b6000604051905090565b600080fd5b600080fd5b600073ffffffffffffffffffffffffffffffffffffffff82169050919050565b60006125fb826125d0565b9050919050565b61260b816125f0565b811461261657600080fd5b50565b60008135905061262881612602565b92915050565b6000819050919050565b6126418161262e565b811461264c57600080fd5b50565b60008135905061265e81612638565b92915050565b6000806040838503121561267b5761267a6125c6565b5b600061268985828601612619565b925050602061269a8582860161264f565b9150509250929050565b60008115159050919050565b6126b9816126a4565b82525050565b60006020820190506126d460008301846126b0565b92915050565b6000602082840312156126f0576126ef6125c6565b5b60006126fe8482850161264f565b91505092915050565b60006020828403121561271d5761271c6125c6565b5b600061272b84828501612619565b91505092915050565b61273d8161262e565b82525050565b60006020820190506127586000830184612734565b92915050565b600080600060608486031215612777576127766125c6565b5b600061278586828701612619565b935050602061279686828701612619565b92505060406127a78682870161264f565b9150509250925092565b600060ff82169050919050565b6127c7816127b1565b82525050565b60006020820190506127e260008301846127be565b92915050565b6127f1816126a4565b81146127fc57600080fd5b50565b60008135905061280e816127e8565b92915050565b6000806040838503121561282b5761282a6125c6565b5b600061283985828601612619565b925050602061284a858286016127ff565b9150509250929050565b61285d816125f0565b82525050565b60006020820190506128786000830184612854565b92915050565b60008060408385031215612895576128946125c6565b5b60006128a385828601612619565b92505060206128b485828601612619565b9150509250929050565b6000819050919050565b60006128e36128de6128d9846125d0565b6128be565b6125d0565b9050919050565b60006128f5826128c8565b9050919050565b6000612907826128ea565b9050919050565b612917816128fc565b82525050565b6000602082019050612932600083018461290e565b92915050565b7f4e487b7100000000000000000000000000000000000000000000000000000000600052602260045260246000fd5b6000600282049050600182168061297f57607f821691505b60208210810361299257612991612938565b5b50919050565b7f427579206665652063616e6e6f74206265206c6172676572207468616e204d4160008201527f585f464545000000000000000000000000000000000000000000000000000000602082015250565b60006129f4602583612515565b91506129ff82612998565b604082019050919050565b60006020820190508181036000830152612a23816129e7565b9050919050565b7f494e56414c494420414444524553530000000000000000000000000000000000600082015250565b6000612a60600f83612515565b9150612a6b82612a2a565b602082019050919050565b60006020820190508181036000830152612a8f81612a53565b9050919050565b7f496e73756666696369656e742066756e64730000000000000000000000000000600082015250565b6000612acc601283612515565b9150612ad782612a96565b602082019050919050565b60006020820190508181036000830152612afb81612abf565b9050919050565b6000604082019050612b176000830185612854565b612b2460208301846126b0565b9392505050565b7f53656c6c206665652063616e6e6f74206265206c6172676572207468616e204d60008201527f41585f4645450000000000000000000000000000000000000000000000000000602082015250565b6000612b87602683612515565b9150612b9282612b2b565b604082019050919050565b60006020820190508181036000830152612bb681612b7a565b9050919050565b6000606082019050612bd26000830186612854565b612bdf6020830185612734565b612bec6040830184612734565b949350505050565b7f4e487b7100000000000000000000000000000000000000000000000000000000600052604160045260246000fd5b7f4e487b7100000000000000000000000000000000000000000000000000000000600052603260045260246000fd5b6000819050919050565b6000612c77612c72612c6d84612c52565b6128be565b61262e565b9050919050565b612c8781612c5c565b82525050565b600081519050919050565b600082825260208201905092915050565b6000819050602082019050919050565b612cc2816125f0565b82525050565b6000612cd48383612cb9565b60208301905092915050565b6000602082019050919050565b6000612cf882612c8d565b612d028185612c98565b9350612d0d83612ca9565b8060005b83811015612d3e578151612d258882612cc8565b9750612d3083612ce0565b925050600181019050612d11565b5085935050505092915050565b600060a082019050612d606000830188612734565b612d6d6020830187612c7e565b8181036040830152612d7f8186612ced565b9050612d8e6060830185612854565b612d9b6080830184612734565b9695505050505050565b600080fd5b612db382612550565b810181811067ffffffffffffffff82111715612dd257612dd1612bf4565b5b80604052505050565b6000612de56125bc565b9050612df18282612daa565b919050565b600067ffffffffffffffff821115612e1157612e10612bf4565b5b602082029050602081019050919050565b600080fd5b600081519050612e3681612638565b92915050565b6000612e4f612e4a84612df6565b612ddb565b90508083825260208201905060208402830185811115612e7257612e71612e22565b5b835b81811015612e9b5780612e878882612e27565b845260208401935050602081019050612e74565b5050509392505050565b600082601f830112612eba57612eb9612da5565b5b8151612eca848260208601612e3c565b91505092915050565b600060208284031215612ee957612ee86125c6565b5b600082015167ffffffffffffffff811115612f0757612f066125cb565b5b612f1384828501612ea5565b91505092915050565b60008160e01c9050919050565b600060033d1115612f485760046000803e612f45600051612f1c565b90505b90565b600060443d10612fd857612f5d6125bc565b60043d036004823e80513d602482011167ffffffffffffffff82111715612f85575050612fd8565b808201805167ffffffffffffffff811115612fa35750505050612fd8565b80602083010160043d038501811115612fc0575050505050612fd8565b612fcf82602001850186612daa565b82955050505050505b90565b7f4e487b7100000000000000000000000000000000000000000000000000000000600052601160045260246000fd5b60006130158261262e565b91506130208361262e565b925082820190508082111561303857613037612fdb565b5b92915050565b7f4e487b7100000000000000000000000000000000000000000000000000000000600052602160045260246000fd5b60006130788261262e565b91506130838361262e565b92508282026130918161262e565b915082820484148315176130a8576130a7612fdb565b5b5092915050565b7f4e487b7100000000000000000000000000000000000000000000000000000000600052601260045260246000fd5b60006130e98261262e565b91506130f48361262e565b925082613104576131036130af565b5b828204905092915050565b600061311a8261262e565b91506131258361262e565b925082820390508181111561313d5761313c612fdb565b5b9291505056fea26469706673582212203d47aa83a44804d17f2b119b15e80f906adaafa439aebfecec4c21d1acbde7db64736f6c63430008140033",
  "linkReferences": {},
  "deployedLinkReferences": {}
}