{
  "_format": "hh-sol-artifact-1",
  "contractName": "Lollipop",
  "sourceName": "contracts/Lollipop.sol",
  "abi": [
    {
      "inputs": [
        {
          "internalType": "address",
          "name": "initialOwner",
          "type": "address"
        },
        {
          "internalType": "address",
          "name": "_router",
          "type": "address"
        },
        {
          "internalType": "address",
          "name": "_feesReceiver",
          "type": "address"
        }
      ],
      "stateMutability": "nonpayable",
      "type": "constructor"
    },
    {
      "inputs": [
        {
          "internalType": "address",
          "name": "spender",
          "type": "address"
        },
        {
          "internalType": "uint256",
          "name": "allowance",
          "type": "uint256"
        },
        {
          "internalType": "uint256",
          "name": "needed",
          "type": "uint256"
        }
      ],
      "name": "ERC20InsufficientAllowance",
      "type": "error"
    },
    {
      "inputs": [
        {
          "internalType": "address",
          "name": "sender",
          "type": "address"
        },
        {
          "internalType": "uint256",
          "name": "balance",
          "type": "uint256"
        },
        {
          "internalType": "uint256",
          "name": "needed",
          "type": "uint256"
        }
      ],
      "name": "ERC20InsufficientBalance",
      "type": "error"
    },
    {
      "inputs": [
        {
          "internalType": "address",
          "name": "approver",
          "type": "address"
        }
      ],
      "name": "ERC20InvalidApprover",
      "type": "error"
    },
    {
      "inputs": [
        {
          "internalType": "address",
          "name": "receiver",
          "type": "address"
        }
      ],
      "name": "ERC20InvalidReceiver",
      "type": "error"
    },
    {
      "inputs": [
        {
          "internalType": "address",
          "name": "sender",
          "type": "address"
        }
      ],
      "name": "ERC20InvalidSender",
      "type": "error"
    },
    {
      "inputs": [
        {
          "internalType": "address",
          "name": "spender",
          "type": "address"
        }
      ],
      "name": "ERC20InvalidSpender",
      "type": "error"
    },
    {
      "inputs": [],
      "name": "EnforcedPause",
      "type": "error"
    },
    {
      "inputs": [],
      "name": "ExpectedPause",
      "type": "error"
    },
    {
      "inputs": [
        {
          "internalType": "address",
          "name": "owner",
          "type": "address"
        }
      ],
      "name": "OwnableInvalidOwner",
      "type": "error"
    },
    {
      "inputs": [
        {
          "internalType": "address",
          "name": "account",
          "type": "address"
        }
      ],
      "name": "OwnableUnauthorizedAccount",
      "type": "error"
    },
    {
      "inputs": [],
      "name": "ReentrancyGuardReentrantCall",
      "type": "error"
    },
    {
      "anonymous": false,
      "inputs": [
        {
          "indexed": true,
          "internalType": "address",
          "name": "owner",
          "type": "address"
        },
        {
          "indexed": true,
          "internalType": "address",
          "name": "spender",
          "type": "address"
        },
        {
          "indexed": false,
          "internalType": "uint256",
          "name": "value",
          "type": "uint256"
        }
      ],
      "name": "Approval",
      "type": "event"
    },
    {
      "anonymous": false,
      "inputs": [
        {
          "indexed": true,
          "internalType": "address",
          "name": "previousOwner",
          "type": "address"
        },
        {
          "indexed": true,
          "internalType": "address",
          "name": "newOwner",
          "type": "address"
        }
      ],
      "name": "OwnershipTransferred",
      "type": "event"
    },
    {
      "anonymous": false,
      "inputs": [
        {
          "indexed": false,
          "internalType": "address",
          "name": "account",
          "type": "address"
        }
      ],
      "name": "Paused",
      "type": "event"
    },
    {
      "anonymous": false,
      "inputs": [
        {
          "indexed": false,
          "internalType": "uint256",
          "name": "fee",
          "type": "uint256"
        }
      ],
      "name": "SetBuyFee",
      "type": "event"
    },
    {
      "anonymous": false,
      "inputs": [
        {
          "indexed": false,
          "internalType": "address",
          "name": "_address",
          "type": "address"
        },
        {
          "indexed": false,
          "internalType": "bool",
          "name": "_flag",
          "type": "bool"
        }
      ],
      "name": "SetFeeExemptAddress",
      "type": "event"
    },
    {
      "anonymous": false,
      "inputs": [
        {
          "indexed": false,
          "internalType": "address",
          "name": "_address",
          "type": "address"
        }
      ],
      "name": "SetFeeToken",
      "type": "event"
    },
    {
      "anonymous": false,
      "inputs": [
        {
          "indexed": false,
          "internalType": "address",
          "name": "_address",
          "type": "address"
        }
      ],
      "name": "SetFeesReceiver",
      "type": "event"
    },
    {
      "anonymous": false,
      "inputs": [
        {
          "indexed": false,
          "internalType": "address",
          "name": "_address",
          "type": "address"
        }
      ],
      "name": "SetPair",
      "type": "event"
    },
    {
      "anonymous": false,
      "inputs": [
        {
          "indexed": false,
          "internalType": "address",
          "name": "_address",
          "type": "address"
        }
      ],
      "name": "SetRouter",
      "type": "event"
    },
    {
      "anonymous": false,
      "inputs": [
        {
          "indexed": false,
          "internalType": "uint256",
          "name": "fee",
          "type": "uint256"
        }
      ],
      "name": "SetSellFee",
      "type": "event"
    },
    {
      "anonymous": false,
      "inputs": [
        {
          "indexed": true,
          "internalType": "address",
          "name": "from",
          "type": "address"
        },
        {
          "indexed": true,
          "internalType": "address",
          "name": "to",
          "type": "address"
        },
        {
          "indexed": false,
          "internalType": "uint256",
          "name": "value",
          "type": "uint256"
        }
      ],
      "name": "Transfer",
      "type": "event"
    },
    {
      "anonymous": false,
      "inputs": [
        {
          "indexed": false,
          "internalType": "address",
          "name": "account",
          "type": "address"
        }
      ],
      "name": "Unpaused",
      "type": "event"
    },
    {
      "inputs": [],
      "name": "MAX_FEE",
      "outputs": [
        {
          "internalType": "uint256",
          "name": "",
          "type": "uint256"
        }
      ],
      "stateMutability": "view",
      "type": "function"
    },
    {
      "inputs": [
        {
          "internalType": "address",
          "name": "owner",
          "type": "address"
        },
        {
          "internalType": "address",
          "name": "spender",
          "type": "address"
        }
      ],
      "name": "allowance",
      "outputs": [
        {
          "internalType": "uint256",
          "name": "",
          "type": "uint256"
        }
      ],
      "stateMutability": "view",
      "type": "function"
    },
    {
      "inputs": [
        {
          "internalType": "address",
          "name": "spender",
          "type": "address"
        },
        {
          "internalType": "uint256",
          "name": "value",
          "type": "uint256"
        }
      ],
      "name": "approve",
      "outputs": [
        {
          "internalType": "bool",
          "name": "",
          "type": "bool"
        }
      ],
      "stateMutability": "nonpayable",
      "type": "function"
    },
    {
      "inputs": [
        {
          "internalType": "address",
          "name": "account",
          "type": "address"
        }
      ],
      "name": "balanceOf",
      "outputs": [
        {
          "internalType": "uint256",
          "name": "",
          "type": "uint256"
        }
      ],
      "stateMutability": "view",
      "type": "function"
    },
    {
      "inputs": [
        {
          "internalType": "uint256",
          "name": "value",
          "type": "uint256"
        }
      ],
      "name": "burn",
      "outputs": [],
      "stateMutability": "nonpayable",
      "type": "function"
    },
    {
      "inputs": [
        {
          "internalType": "address",
          "name": "account",
          "type": "address"
        },
        {
          "internalType": "uint256",
          "name": "value",
          "type": "uint256"
        }
      ],
      "name": "burnFrom",
      "outputs": [],
      "stateMutability": "nonpayable",
      "type": "function"
    },
    {
      "inputs": [],
      "name": "buyFee",
      "outputs": [
        {
          "internalType": "uint256",
          "name": "",
          "type": "uint256"
        }
      ],
      "stateMutability": "view",
      "type": "function"
    },
    {
      "inputs": [],
      "name": "decimals",
      "outputs": [
        {
          "internalType": "uint8",
          "name": "",
          "type": "uint8"
        }
      ],
      "stateMutability": "view",
      "type": "function"
    },
    {
      "inputs": [],
      "name": "feeToken",
      "outputs": [
        {
          "internalType": "address",
          "name": "",
          "type": "address"
        }
      ],
      "stateMutability": "view",
      "type": "function"
    },
    {
      "inputs": [],
      "name": "feesReceiver",
      "outputs": [
        {
          "internalType": "address",
          "name": "",
          "type": "address"
        }
      ],
      "stateMutability": "view",
      "type": "function"
    },
    {
      "inputs": [
        {
          "internalType": "address",
          "name": "",
          "type": "address"
        }
      ],
      "name": "isFeeExempt",
      "outputs": [
        {
          "internalType": "bool",
          "name": "",
          "type": "bool"
        }
      ],
      "stateMutability": "view",
      "type": "function"
    },
    {
      "inputs": [],
      "name": "name",
      "outputs": [
        {
          "internalType": "string",
          "name": "",
          "type": "string"
        }
      ],
      "stateMutability": "view",
      "type": "function"
    },
    {
      "inputs": [],
      "name": "owner",
      "outputs": [
        {
          "internalType": "address",
          "name": "",
          "type": "address"
        }
      ],
      "stateMutability": "view",
      "type": "function"
    },
    {
      "inputs": [],
      "name": "pair",
      "outputs": [
        {
          "internalType": "address",
          "name": "",
          "type": "address"
        }
      ],
      "stateMutability": "view",
      "type": "function"
    },
    {
      "inputs": [],
      "name": "pause",
      "outputs": [],
      "stateMutability": "nonpayable",
      "type": "function"
    },
    {
      "inputs": [],
      "name": "paused",
      "outputs": [
        {
          "internalType": "bool",
          "name": "",
          "type": "bool"
        }
      ],
      "stateMutability": "view",
      "type": "function"
    },
    {
      "inputs": [],
      "name": "renounceOwnership",
      "outputs": [],
      "stateMutability": "nonpayable",
      "type": "function"
    },
    {
      "inputs": [],
      "name": "router",
      "outputs": [
        {
          "internalType": "contract IUniswapV2Router02",
          "name": "",
          "type": "address"
        }
      ],
      "stateMutability": "view",
      "type": "function"
    },
    {
      "inputs": [],
      "name": "sellFee",
      "outputs": [
        {
          "internalType": "uint256",
          "name": "",
          "type": "uint256"
        }
      ],
      "stateMutability": "view",
      "type": "function"
    },
    {
      "inputs": [
        {
          "internalType": "uint256",
          "name": "fee",
          "type": "uint256"
        }
      ],
      "name": "setBuyFee",
      "outputs": [],
      "stateMutability": "nonpayable",
      "type": "function"
    },
    {
      "inputs": [
        {
          "internalType": "address",
          "name": "_address",
          "type": "address"
        },
        {
          "internalType": "bool",
          "name": "_flag",
          "type": "bool"
        }
      ],
      "name": "setFeeExemptAddress",
      "outputs": [],
      "stateMutability": "nonpayable",
      "type": "function"
    },
    {
      "inputs": [
        {
          "internalType": "address",
          "name": "_address",
          "type": "address"
        }
      ],
      "name": "setFeeToken",
      "outputs": [],
      "stateMutability": "nonpayable",
      "type": "function"
    },
    {
      "inputs": [
        {
          "internalType": "address",
          "name": "_address",
          "type": "address"
        }
      ],
      "name": "setFeesReceiver",
      "outputs": [],
      "stateMutability": "nonpayable",
      "type": "function"
    },
    {
      "inputs": [
        {
          "internalType": "address",
          "name": "_address",
          "type": "address"
        }
      ],
      "name": "setPair",
      "outputs": [],
      "stateMutability": "nonpayable",
      "type": "function"
    },
    {
      "inputs": [
        {
          "internalType": "address",
          "name": "_address",
          "type": "address"
        }
      ],
      "name": "setRouter",
      "outputs": [],
      "stateMutability": "nonpayable",
      "type": "function"
    },
    {
      "inputs": [
        {
          "internalType": "uint256",
          "name": "fee",
          "type": "uint256"
        }
      ],
      "name": "setSellFee",
      "outputs": [],
      "stateMutability": "nonpayable",
      "type": "function"
    },
    {
      "inputs": [],
      "name": "symbol",
      "outputs": [
        {
          "internalType": "string",
          "name": "",
          "type": "string"
        }
      ],
      "stateMutability": "view",
      "type": "function"
    },
    {
      "inputs": [],
      "name": "totalSupply",
      "outputs": [
        {
          "internalType": "uint256",
          "name": "",
          "type": "uint256"
        }
      ],
      "stateMutability": "view",
      "type": "function"
    },
    {
      "inputs": [
        {
          "internalType": "address",
          "name": "to",
          "type": "address"
        },
        {
          "internalType": "uint256",
          "name": "value",
          "type": "uint256"
        }
      ],
      "name": "transfer",
      "outputs": [
        {
          "internalType": "bool",
          "name": "",
          "type": "bool"
        }
      ],
      "stateMutability": "nonpayable",
      "type": "function"
    },
    {
      "inputs": [
        {
          "internalType": "address",
          "name": "from",
          "type": "address"
        },
        {
          "internalType": "address",
          "name": "to",
          "type": "address"
        },
        {
          "internalType": "uint256",
          "name": "value",
          "type": "uint256"
        }
      ],
      "name": "transferFrom",
      "outputs": [
        {
          "internalType": "bool",
          "name": "",
          "type": "bool"
        }
      ],
      "stateMutability": "nonpayable",
      "type": "function"
    },
    {
      "inputs": [
        {
          "internalType": "address",
          "name": "newOwner",
          "type": "address"
        }
      ],
      "name": "transferOwnership",
      "outputs": [],
      "stateMutability": "nonpayable",
      "type": "function"
    },
    {
      "inputs": [],
      "name": "unpause",
      "outputs": [],
      "stateMutability": "nonpayable",
      "type": "function"
    }
  ],
  "bytecode": "0x6080604052600360075560056008553480156200001b57600080fd5b50604051620041d2380380620041d2833981810160405281019062000041919062001073565b826040518060400160405280600e81526020017f4c6f497465726174696f6e54776f0000000000000000000000000000000000008152506040518060400160405280600381526020017f4c495400000000000000000000000000000000000000000000000000000000008152508160039081620000bf919062001349565b508060049081620000d1919062001349565b5050506000600560006101000a81548160ff021916908315150217905550600073ffffffffffffffffffffffffffffffffffffffff168173ffffffffffffffffffffffffffffffffffffffff1603620001645760006040517f1e4fbdf70000000000000000000000000000000000000000000000000000000081526004016200015b919062001441565b60405180910390fd5b6200017581620003cb60201b60201c565b506001600681905550620001be33620001936200049160201b60201c565b600a620001a19190620015ee565b633b9aca00620001b291906200163f565b6200049a60201b60201c565b80600960006101000a81548173ffffffffffffffffffffffffffffffffffffffff021916908373ffffffffffffffffffffffffffffffffffffffff16021790555081600c60006101000a81548173ffffffffffffffffffffffffffffffffffffffff021916908373ffffffffffffffffffffffffffffffffffffffff1602179055506001600d6000600960009054906101000a900473ffffffffffffffffffffffffffffffffffffffff1673ffffffffffffffffffffffffffffffffffffffff1673ffffffffffffffffffffffffffffffffffffffff16815260200190815260200160002060006101000a81548160ff0219169083151502179055506001600d60008573ffffffffffffffffffffffffffffffffffffffff1673ffffffffffffffffffffffffffffffffffffffff16815260200190815260200160002060006101000a81548160ff0219169083151502179055506001600d60003073ffffffffffffffffffffffffffffffffffffffff1673ffffffffffffffffffffffffffffffffffffffff16815260200190815260200160002060006101000a81548160ff0219169083151502179055506001600d60003373ffffffffffffffffffffffffffffffffffffffff1673ffffffffffffffffffffffffffffffffffffffff16815260200190815260200160002060006101000a81548160ff021916908315150217905550505050620019a5565b6000600560019054906101000a900473ffffffffffffffffffffffffffffffffffffffff16905081600560016101000a81548173ffffffffffffffffffffffffffffffffffffffff021916908373ffffffffffffffffffffffffffffffffffffffff1602179055508173ffffffffffffffffffffffffffffffffffffffff168173ffffffffffffffffffffffffffffffffffffffff167f8be0079c531659141344cd1fd0a4f28419497f9722a3daafe3b4186f6b6457e060405160405180910390a35050565b60006012905090565b600073ffffffffffffffffffffffffffffffffffffffff168273ffffffffffffffffffffffffffffffffffffffff16036200050f5760006040517fec442f0500000000000000000000000000000000000000000000000000000000815260040162000506919062001441565b60405180910390fd5b62000523600083836200052760201b60201c565b5050565b60006200053b84846200057660201b60201c565b6200054757816200055b565b6200055a8484846200063560201b60201c565b5b9050620005708484836200073760201b60201c565b50505050565b6000600d60008473ffffffffffffffffffffffffffffffffffffffff1673ffffffffffffffffffffffffffffffffffffffff16815260200190815260200160002060009054906101000a900460ff16806200061a5750600d60008373ffffffffffffffffffffffffffffffffffffffff1673ffffffffffffffffffffffffffffffffffffffff16815260200190815260200160002060009054906101000a900460ff165b156200062a57600090506200062f565b600190505b92915050565b60008060006200064c86866200075f60201b60201c565b9050600060028111156200066557620006646200168a565b5b8160028111156200067b576200067a6200168a565b5b036200068c576007549150620006d0565b60016002811115620006a357620006a26200168a565b5b816002811115620006b957620006b86200168a565b5b03620006ca576008549150620006cf565b600091505b5b600060648386620006e291906200163f565b620006ee9190620016e8565b9050600083146200071d576200070c8730836200073760201b60201c565b6200071c6200082c60201b60201c565b5b80856200072b919062001720565b93505050509392505050565b620007476200088060201b60201c565b6200075a838383620008ca60201b60201c565b505050565b6000600b60009054906101000a900473ffffffffffffffffffffffffffffffffffffffff1673ffffffffffffffffffffffffffffffffffffffff168373ffffffffffffffffffffffffffffffffffffffff1603620007c1576000905062000826565b600b60009054906101000a900473ffffffffffffffffffffffffffffffffffffffff1673ffffffffffffffffffffffffffffffffffffffff168273ffffffffffffffffffffffffffffffffffffffff160362000821576001905062000826565b600290505b92915050565b6200083c62000afa60201b60201c565b60006200084f3062000b4160201b60201c565b905060008111156200086d576200086c8162000b8960201b60201c565b5b506200087e62000dee60201b60201c565b565b6200089062000df860201b60201c565b15620008c8576040517fd93c066500000000000000000000000000000000000000000000000000000000815260040160405180910390fd5b565b600073ffffffffffffffffffffffffffffffffffffffff168373ffffffffffffffffffffffffffffffffffffffff1603620009205780600260008282546200091391906200175b565b92505081905550620009f6565b60008060008573ffffffffffffffffffffffffffffffffffffffff1673ffffffffffffffffffffffffffffffffffffffff16815260200190815260200160002054905081811015620009af578381836040517fe450d38c000000000000000000000000000000000000000000000000000000008152600401620009a693929190620017a7565b60405180910390fd5b8181036000808673ffffffffffffffffffffffffffffffffffffffff1673ffffffffffffffffffffffffffffffffffffffff16815260200190815260200160002081905550505b600073ffffffffffffffffffffffffffffffffffffffff168273ffffffffffffffffffffffffffffffffffffffff160362000a41578060026000828254039250508190555062000a8e565b806000808473ffffffffffffffffffffffffffffffffffffffff1673ffffffffffffffffffffffffffffffffffffffff168152602001908152602001600020600082825401925050819055505b8173ffffffffffffffffffffffffffffffffffffffff168373ffffffffffffffffffffffffffffffffffffffff167fddf252ad1be2c89b69c2b068fc378daa952ba7f163c4a11628f55a4df523b3ef8360405162000aed9190620017e4565b60405180910390a3505050565b60026006540362000b37576040517f3ee5aeb500000000000000000000000000000000000000000000000000000000815260040160405180910390fd5b6002600681905550565b60008060008373ffffffffffffffffffffffffffffffffffffffff1673ffffffffffffffffffffffffffffffffffffffff168152602001908152602001600020549050919050565b600073ffffffffffffffffffffffffffffffffffffffff16600a60009054906101000a900473ffffffffffffffffffffffffffffffffffffffff1673ffffffffffffffffffffffffffffffffffffffff161462000deb576000600267ffffffffffffffff81111562000c005762000bff620010da565b5b60405190808252806020026020018201604052801562000c2f5781602001602082028036833780820191505090505b509050308160008151811062000c4a5762000c4962001801565b5b602002602001019073ffffffffffffffffffffffffffffffffffffffff16908173ffffffffffffffffffffffffffffffffffffffff1681525050600a60009054906101000a900473ffffffffffffffffffffffffffffffffffffffff168160018151811062000cbe5762000cbd62001801565b5b602002602001019073ffffffffffffffffffffffffffffffffffffffff16908173ffffffffffffffffffffffffffffffffffffffff168152505062000d2d30600c60009054906101000a900473ffffffffffffffffffffffffffffffffffffffff168462000e0f60201b60201c565b600c60009054906101000a900473ffffffffffffffffffffffffffffffffffffffff1673ffffffffffffffffffffffffffffffffffffffff1663791ac94783600084600960009054906101000a900473ffffffffffffffffffffffffffffffffffffffff16426040518663ffffffff1660e01b815260040162000db595949392919062001941565b600060405180830381600087803b15801562000dd057600080fd5b505af115801562000de5573d6000803e3d6000fd5b50505050505b50565b6001600681905550565b6000600560009054906101000a900460ff16905090565b62000e24838383600162000e2960201b60201c565b505050565b600073ffffffffffffffffffffffffffffffffffffffff168473ffffffffffffffffffffffffffffffffffffffff160362000e9e5760006040517fe602df0500000000000000000000000000000000000000000000000000000000815260040162000e95919062001441565b60405180910390fd5b600073ffffffffffffffffffffffffffffffffffffffff168373ffffffffffffffffffffffffffffffffffffffff160362000f135760006040517f94280d6200000000000000000000000000000000000000000000000000000000815260040162000f0a919062001441565b60405180910390fd5b81600160008673ffffffffffffffffffffffffffffffffffffffff1673ffffffffffffffffffffffffffffffffffffffff16815260200190815260200160002060008573ffffffffffffffffffffffffffffffffffffffff1673ffffffffffffffffffffffffffffffffffffffff16815260200190815260200160002081905550801562001003578273ffffffffffffffffffffffffffffffffffffffff168473ffffffffffffffffffffffffffffffffffffffff167f8c5be1e5ebec7d5bd14f71427d1e84f3dd0314c0f7b2291e5b200ac8c7c3b9258460405162000ffa9190620017e4565b60405180910390a35b50505050565b600080fd5b600073ffffffffffffffffffffffffffffffffffffffff82169050919050565b60006200103b826200100e565b9050919050565b6200104d816200102e565b81146200105957600080fd5b50565b6000815190506200106d8162001042565b92915050565b6000806000606084860312156200108f576200108e62001009565b5b60006200109f868287016200105c565b9350506020620010b2868287016200105c565b9250506040620010c5868287016200105c565b9150509250925092565b600081519050919050565b7f4e487b7100000000000000000000000000000000000000000000000000000000600052604160045260246000fd5b7f4e487b7100000000000000000000000000000000000000000000000000000000600052602260045260246000fd5b600060028204905060018216806200115157607f821691505b60208210810362001167576200116662001109565b5b50919050565b60008190508160005260206000209050919050565b60006020601f8301049050919050565b600082821b905092915050565b600060088302620011d17fffffffffffffffffffffffffffffffffffffffffffffffffffffffffffffffff8262001192565b620011dd868362001192565b95508019841693508086168417925050509392505050565b6000819050919050565b6000819050919050565b60006200122a620012246200121e84620011f5565b620011ff565b620011f5565b9050919050565b6000819050919050565b620012468362001209565b6200125e620012558262001231565b8484546200119f565b825550505050565b600090565b6200127562001266565b620012828184846200123b565b505050565b5b81811015620012aa576200129e6000826200126b565b60018101905062001288565b5050565b601f821115620012f957620012c3816200116d565b620012ce8462001182565b81016020851015620012de578190505b620012f6620012ed8562001182565b83018262001287565b50505b505050565b600082821c905092915050565b60006200131e60001984600802620012fe565b1980831691505092915050565b60006200133983836200130b565b9150826002028217905092915050565b6200135482620010cf565b67ffffffffffffffff81111562001370576200136f620010da565b5b6200137c825462001138565b62001389828285620012ae565b600060209050601f831160018114620013c15760008415620013ac578287015190505b620013b885826200132b565b86555062001428565b601f198416620013d1866200116d565b60005b82811015620013fb57848901518255600182019150602085019450602081019050620013d4565b868310156200141b578489015162001417601f8916826200130b565b8355505b6001600288020188555050505b505050505050565b6200143b816200102e565b82525050565b600060208201905062001458600083018462001430565b92915050565b7f4e487b7100000000000000000000000000000000000000000000000000000000600052601160045260246000fd5b60008160011c9050919050565b6000808291508390505b6001851115620014ec57808604811115620014c457620014c36200145e565b5b6001851615620014d45780820291505b8081029050620014e4856200148d565b9450620014a4565b94509492505050565b600082620015075760019050620015da565b81620015175760009050620015da565b81600181146200153057600281146200153b5762001571565b6001915050620015da565b60ff84111562001550576200154f6200145e565b5b8360020a9150848211156200156a57620015696200145e565b5b50620015da565b5060208310610133831016604e8410600b8410161715620015ab5782820a905083811115620015a557620015a46200145e565b5b620015da565b620015ba84848460016200149a565b92509050818404811115620015d457620015d36200145e565b5b81810290505b9392505050565b600060ff82169050919050565b6000620015fb82620011f5565b91506200160883620015e1565b9250620016377fffffffffffffffffffffffffffffffffffffffffffffffffffffffffffffffff8484620014f5565b905092915050565b60006200164c82620011f5565b91506200165983620011f5565b92508282026200166981620011f5565b915082820484148315176200168357620016826200145e565b5b5092915050565b7f4e487b7100000000000000000000000000000000000000000000000000000000600052602160045260246000fd5b7f4e487b7100000000000000000000000000000000000000000000000000000000600052601260045260246000fd5b6000620016f582620011f5565b91506200170283620011f5565b925082620017155762001714620016b9565b5b828204905092915050565b60006200172d82620011f5565b91506200173a83620011f5565b92508282039050818111156200175557620017546200145e565b5b92915050565b60006200176882620011f5565b91506200177583620011f5565b925082820190508082111562001790576200178f6200145e565b5b92915050565b620017a181620011f5565b82525050565b6000606082019050620017be600083018662001430565b620017cd602083018562001796565b620017dc604083018462001796565b949350505050565b6000602082019050620017fb600083018462001796565b92915050565b7f4e487b7100000000000000000000000000000000000000000000000000000000600052603260045260246000fd5b6000819050919050565b60006200185b620018556200184f8462001830565b620011ff565b620011f5565b9050919050565b6200186d816200183a565b82525050565b600081519050919050565b600082825260208201905092915050565b6000819050602082019050919050565b620018aa816200102e565b82525050565b6000620018be83836200189f565b60208301905092915050565b6000602082019050919050565b6000620018e48262001873565b620018f081856200187e565b9350620018fd836200188f565b8060005b8381101562001934578151620019188882620018b0565b97506200192583620018ca565b92505060018101905062001901565b5085935050505092915050565b600060a08201905062001958600083018862001796565b62001967602083018762001862565b81810360408301526200197b8186620018d7565b90506200198c606083018562001430565b6200199b608083018462001796565b9695505050505050565b61281d80620019b56000396000f3fe608060405234801561001057600080fd5b50600436106101f05760003560e01c8063715018a61161010f578063a9059cbb116100a2578063dd62ed3e11610071578063dd62ed3e1461054b578063f18e79511461057b578063f2fde38b14610597578063f887ea40146105b3576101f0565b8063a9059cbb146104c3578063bc063e1a146104f3578063bca93cf514610511578063c0d786551461052f576101f0565b80638b4cee08116100de5780638b4cee081461044d5780638da5cb5b1461046957806395d89b4114610487578063a8aa1b31146104a5576101f0565b8063715018a61461040157806379cc67901461040b5780638187f516146104275780638456cb5914610443576101f0565b80633f4218e0116101875780635c975abb116101565780635c975abb14610379578063600b2c8a14610397578063647846a5146103b357806370a08231146103d1576101f0565b80633f4218e0146103055780633f4ba83a1461033557806342966c681461033f578063470624021461035b576101f0565b806318160ddd116101c357806318160ddd1461027b57806323b872dd146102995780632b14ca56146102c9578063313ce567146102e7576101f0565b806306fdde03146101f5578063095ea7b3146102135780630cc835a31461024357806315cce2241461025f575b600080fd5b6101fd6105d1565b60405161020a9190611eef565b60405180910390f35b61022d60048036038101906102289190611faa565b610663565b60405161023a9190612005565b60405180910390f35b61025d60048036038101906102589190612020565b610686565b005b6102796004803603810190610274919061204d565b610713565b005b610283610805565b6040516102909190612089565b60405180910390f35b6102b360048036038101906102ae91906120a4565b61080f565b6040516102c09190612005565b60405180910390f35b6102d161083e565b6040516102de9190612089565b60405180910390f35b6102ef610844565b6040516102fc9190612113565b60405180910390f35b61031f600480360381019061031a919061204d565b61084d565b60405161032c9190612005565b60405180910390f35b61033d61086d565b005b61035960048036038101906103549190612020565b61087f565b005b610363610893565b6040516103709190612089565b60405180910390f35b610381610899565b60405161038e9190612005565b60405180910390f35b6103b160048036038101906103ac919061215a565b6108b0565b005b6103bb6109bb565b6040516103c891906121a9565b60405180910390f35b6103eb60048036038101906103e6919061204d565b6109e1565b6040516103f89190612089565b60405180910390f35b610409610a29565b005b61042560048036038101906104209190611faa565b610a3d565b005b610441600480360381019061043c919061204d565b610a5d565b005b61044b610b4f565b005b61046760048036038101906104629190612020565b610b61565b005b610471610bee565b60405161047e91906121a9565b60405180910390f35b61048f610c18565b60405161049c9190611eef565b60405180910390f35b6104ad610caa565b6040516104ba91906121a9565b60405180910390f35b6104dd60048036038101906104d89190611faa565b610cd0565b6040516104ea9190612005565b60405180910390f35b6104fb610cf3565b6040516105089190612089565b60405180910390f35b610519610cf8565b60405161052691906121a9565b60405180910390f35b6105496004803603810190610544919061204d565b610d1e565b005b610565600480360381019061056091906121c4565b610e10565b6040516105729190612089565b60405180910390f35b6105956004803603810190610590919061204d565b610e97565b005b6105b160048036038101906105ac919061204d565b610f89565b005b6105bb61100f565b6040516105c89190612263565b60405180910390f35b6060600380546105e0906122ad565b80601f016020809104026020016040519081016040528092919081815260200182805461060c906122ad565b80156106595780601f1061062e57610100808354040283529160200191610659565b820191906000526020600020905b81548152906001019060200180831161063c57829003601f168201915b5050505050905090565b60008061066e611035565b905061067b81858561103d565b600191505092915050565b61068e61104f565b600a8111156106d2576040517f08c379a00000000000000000000000000000000000000000000000000000000081526004016106c990612350565b60405180910390fd5b806007819055507f4164afd9904b0eee72326020b7f2a0de2e3f5b8998738fbacf09229b66e5fd80816040516107089190612089565b60405180910390a150565b61071b61104f565b600073ffffffffffffffffffffffffffffffffffffffff168173ffffffffffffffffffffffffffffffffffffffff160361078a576040517f08c379a0000000000000000000000000000000000000000000000000000000008152600401610781906123bc565b60405180910390fd5b80600a60006101000a81548173ffffffffffffffffffffffffffffffffffffffff021916908373ffffffffffffffffffffffffffffffffffffffff1602179055507f0842bcbb92ca6d47ae89816778a843992dff9b876fad009865e1c5df73d46d1f816040516107fa91906121a9565b60405180910390a150565b6000600254905090565b60008061081a611035565b90506108278582856110d6565b61083285858561116a565b60019150509392505050565b60085481565b60006012905090565b600d6020528060005260406000206000915054906101000a900460ff1681565b61087561104f565b61087d61125e565b565b61089061088a611035565b826112c1565b50565b60075481565b6000600560009054906101000a900460ff16905090565b6108b861104f565b600073ffffffffffffffffffffffffffffffffffffffff168273ffffffffffffffffffffffffffffffffffffffff1603610927576040517f08c379a000000000000000000000000000000000000000000000000000000000815260040161091e906123bc565b60405180910390fd5b80600d60008473ffffffffffffffffffffffffffffffffffffffff1673ffffffffffffffffffffffffffffffffffffffff16815260200190815260200160002060006101000a81548160ff0219169083151502179055507f3cb0dc9d432b9f6f82bd813b801d540e7937da97f51df31272c984e5f1a1da2e82826040516109af9291906123dc565b60405180910390a15050565b600a60009054906101000a900473ffffffffffffffffffffffffffffffffffffffff1681565b60008060008373ffffffffffffffffffffffffffffffffffffffff1673ffffffffffffffffffffffffffffffffffffffff168152602001908152602001600020549050919050565b610a3161104f565b610a3b6000611343565b565b610a4f82610a49611035565b836110d6565b610a5982826112c1565b5050565b610a6561104f565b600073ffffffffffffffffffffffffffffffffffffffff168173ffffffffffffffffffffffffffffffffffffffff1603610ad4576040517f08c379a0000000000000000000000000000000000000000000000000000000008152600401610acb906123bc565b60405180910390fd5b80600b60006101000a81548173ffffffffffffffffffffffffffffffffffffffff021916908373ffffffffffffffffffffffffffffffffffffffff1602179055507f88d61fbc2c37e8a539b73481a13b38e481e0a71b20e372509165fd07eec05df381604051610b4491906121a9565b60405180910390a150565b610b5761104f565b610b5f611409565b565b610b6961104f565b600a811115610bad576040517f08c379a0000000000000000000000000000000000000000000000000000000008152600401610ba490612477565b60405180910390fd5b806008819055507f74ee7e999ca1ca5e528cb19e41c5e12b09ef7ec7f52723b917fec754ce95047281604051610be39190612089565b60405180910390a150565b6000600560019054906101000a900473ffffffffffffffffffffffffffffffffffffffff16905090565b606060048054610c27906122ad565b80601f0160208091040260200160405190810160405280929190818152602001828054610c53906122ad565b8015610ca05780601f10610c7557610100808354040283529160200191610ca0565b820191906000526020600020905b815481529060010190602001808311610c8357829003601f168201915b5050505050905090565b600b60009054906101000a900473ffffffffffffffffffffffffffffffffffffffff1681565b600080610cdb611035565b9050610ce881858561116a565b600191505092915050565b600a81565b600960009054906101000a900473ffffffffffffffffffffffffffffffffffffffff1681565b610d2661104f565b600073ffffffffffffffffffffffffffffffffffffffff168173ffffffffffffffffffffffffffffffffffffffff1603610d95576040517f08c379a0000000000000000000000000000000000000000000000000000000008152600401610d8c906123bc565b60405180910390fd5b80600c60006101000a81548173ffffffffffffffffffffffffffffffffffffffff021916908373ffffffffffffffffffffffffffffffffffffffff1602179055507f6de4326a8b9054d72d9dbab97d27bc4edffadee7d966f5af9cc4eafdaf8e545581604051610e0591906121a9565b60405180910390a150565b6000600160008473ffffffffffffffffffffffffffffffffffffffff1673ffffffffffffffffffffffffffffffffffffffff16815260200190815260200160002060008373ffffffffffffffffffffffffffffffffffffffff1673ffffffffffffffffffffffffffffffffffffffff16815260200190815260200160002054905092915050565b610e9f61104f565b600073ffffffffffffffffffffffffffffffffffffffff168173ffffffffffffffffffffffffffffffffffffffff1603610f0e576040517f08c379a0000000000000000000000000000000000000000000000000000000008152600401610f05906123bc565b60405180910390fd5b80600960006101000a81548173ffffffffffffffffffffffffffffffffffffffff021916908373ffffffffffffffffffffffffffffffffffffffff1602179055507f739fe1a68aad7be430b27de30ccf7d935b85459de671a05e7d60ea3d5677229581604051610f7e91906121a9565b60405180910390a150565b610f9161104f565b600073ffffffffffffffffffffffffffffffffffffffff168173ffffffffffffffffffffffffffffffffffffffff16036110035760006040517f1e4fbdf7000000000000000000000000000000000000000000000000000000008152600401610ffa91906121a9565b60405180910390fd5b61100c81611343565b50565b600c60009054906101000a900473ffffffffffffffffffffffffffffffffffffffff1681565b600033905090565b61104a838383600161146c565b505050565b611057611035565b73ffffffffffffffffffffffffffffffffffffffff16611075610bee565b73ffffffffffffffffffffffffffffffffffffffff16146110d457611098611035565b6040517f118cdaa70000000000000000000000000000000000000000000000000000000081526004016110cb91906121a9565b60405180910390fd5b565b60006110e28484610e10565b90507fffffffffffffffffffffffffffffffffffffffffffffffffffffffffffffffff81146111645781811015611154578281836040517ffb8f41b200000000000000000000000000000000000000000000000000000000815260040161114b93929190612497565b60405180910390fd5b6111638484848403600061146c565b5b50505050565b600073ffffffffffffffffffffffffffffffffffffffff168373ffffffffffffffffffffffffffffffffffffffff16036111dc5760006040517f96c6fd1e0000000000000000000000000000000000000000000000000000000081526004016111d391906121a9565b60405180910390fd5b600073ffffffffffffffffffffffffffffffffffffffff168273ffffffffffffffffffffffffffffffffffffffff160361124e5760006040517fec442f0500000000000000000000000000000000000000000000000000000000815260040161124591906121a9565b60405180910390fd5b611259838383611643565b505050565b611266611678565b6000600560006101000a81548160ff0219169083151502179055507f5db9ee0a495bf2e6ff9c91a7834c1ba4fdd244a5e8aa4e537bd38aeae4b073aa6112aa611035565b6040516112b791906121a9565b60405180910390a1565b600073ffffffffffffffffffffffffffffffffffffffff168273ffffffffffffffffffffffffffffffffffffffff16036113335760006040517f96c6fd1e00000000000000000000000000000000000000000000000000000000815260040161132a91906121a9565b60405180910390fd5b61133f82600083611643565b5050565b6000600560019054906101000a900473ffffffffffffffffffffffffffffffffffffffff16905081600560016101000a81548173ffffffffffffffffffffffffffffffffffffffff021916908373ffffffffffffffffffffffffffffffffffffffff1602179055508173ffffffffffffffffffffffffffffffffffffffff168173ffffffffffffffffffffffffffffffffffffffff167f8be0079c531659141344cd1fd0a4f28419497f9722a3daafe3b4186f6b6457e060405160405180910390a35050565b6114116116b8565b6001600560006101000a81548160ff0219169083151502179055507f62e78cea01bee320cd4e420270b5ea74000d11b0c9f74754ebdbfc544b05a258611455611035565b60405161146291906121a9565b60405180910390a1565b600073ffffffffffffffffffffffffffffffffffffffff168473ffffffffffffffffffffffffffffffffffffffff16036114de5760006040517fe602df050000000000000000000000000000000000000000000000000000000081526004016114d591906121a9565b60405180910390fd5b600073ffffffffffffffffffffffffffffffffffffffff168373ffffffffffffffffffffffffffffffffffffffff16036115505760006040517f94280d6200000000000000000000000000000000000000000000000000000000815260040161154791906121a9565b60405180910390fd5b81600160008673ffffffffffffffffffffffffffffffffffffffff1673ffffffffffffffffffffffffffffffffffffffff16815260200190815260200160002060008573ffffffffffffffffffffffffffffffffffffffff1673ffffffffffffffffffffffffffffffffffffffff16815260200190815260200160002081905550801561163d578273ffffffffffffffffffffffffffffffffffffffff168473ffffffffffffffffffffffffffffffffffffffff167f8c5be1e5ebec7d5bd14f71427d1e84f3dd0314c0f7b2291e5b200ac8c7c3b925846040516116349190612089565b60405180910390a35b50505050565b600061164f84846116f9565b6116595781611665565b6116648484846117b5565b5b9050611672848483611888565b50505050565b611680610899565b6116b6576040517f8dfc202b00000000000000000000000000000000000000000000000000000000815260040160405180910390fd5b565b6116c0610899565b156116f7576040517fd93c066500000000000000000000000000000000000000000000000000000000815260040160405180910390fd5b565b6000600d60008473ffffffffffffffffffffffffffffffffffffffff1673ffffffffffffffffffffffffffffffffffffffff16815260200190815260200160002060009054906101000a900460ff168061179c5750600d60008373ffffffffffffffffffffffffffffffffffffffff1673ffffffffffffffffffffffffffffffffffffffff16815260200190815260200160002060009054906101000a900460ff165b156117aa57600090506117af565b600190505b92915050565b60008060006117c486866118a0565b9050600060028111156117da576117d96124ce565b5b8160028111156117ed576117ec6124ce565b5b036117fc576007549150611838565b600160028111156118105761180f6124ce565b5b816002811115611823576118226124ce565b5b03611832576008549150611837565b600091505b5b600060648386611848919061252c565b611852919061259d565b90506000831461187057611867873083611888565b61186f611969565b5b808561187c91906125ce565b93505050509392505050565b6118906116b8565b61189b83838361199c565b505050565b6000600b60009054906101000a900473ffffffffffffffffffffffffffffffffffffffff1673ffffffffffffffffffffffffffffffffffffffff168373ffffffffffffffffffffffffffffffffffffffff16036119005760009050611963565b600b60009054906101000a900473ffffffffffffffffffffffffffffffffffffffff1673ffffffffffffffffffffffffffffffffffffffff168273ffffffffffffffffffffffffffffffffffffffff160361195e5760019050611963565b600290505b92915050565b611971611bc1565b600061197c306109e1565b905060008111156119915761199081611c07565b5b5061199a611e55565b565b600073ffffffffffffffffffffffffffffffffffffffff168373ffffffffffffffffffffffffffffffffffffffff16036119ee5780600260008282546119e29190612602565b92505081905550611ac1565b60008060008573ffffffffffffffffffffffffffffffffffffffff1673ffffffffffffffffffffffffffffffffffffffff16815260200190815260200160002054905081811015611a7a578381836040517fe450d38c000000000000000000000000000000000000000000000000000000008152600401611a7193929190612497565b60405180910390fd5b8181036000808673ffffffffffffffffffffffffffffffffffffffff1673ffffffffffffffffffffffffffffffffffffffff16815260200190815260200160002081905550505b600073ffffffffffffffffffffffffffffffffffffffff168273ffffffffffffffffffffffffffffffffffffffff1603611b0a5780600260008282540392505081905550611b57565b806000808473ffffffffffffffffffffffffffffffffffffffff1673ffffffffffffffffffffffffffffffffffffffff168152602001908152602001600020600082825401925050819055505b8173ffffffffffffffffffffffffffffffffffffffff168373ffffffffffffffffffffffffffffffffffffffff167fddf252ad1be2c89b69c2b068fc378daa952ba7f163c4a11628f55a4df523b3ef83604051611bb49190612089565b60405180910390a3505050565b600260065403611bfd576040517f3ee5aeb500000000000000000000000000000000000000000000000000000000815260040160405180910390fd5b6002600681905550565b600073ffffffffffffffffffffffffffffffffffffffff16600a60009054906101000a900473ffffffffffffffffffffffffffffffffffffffff1673ffffffffffffffffffffffffffffffffffffffff1614611e52576000600267ffffffffffffffff811115611c7a57611c79612636565b5b604051908082528060200260200182016040528015611ca85781602001602082028036833780820191505090505b5090503081600081518110611cc057611cbf612665565b5b602002602001019073ffffffffffffffffffffffffffffffffffffffff16908173ffffffffffffffffffffffffffffffffffffffff1681525050600a60009054906101000a900473ffffffffffffffffffffffffffffffffffffffff1681600181518110611d3157611d30612665565b5b602002602001019073ffffffffffffffffffffffffffffffffffffffff16908173ffffffffffffffffffffffffffffffffffffffff1681525050611d9830600c60009054906101000a900473ffffffffffffffffffffffffffffffffffffffff168461103d565b600c60009054906101000a900473ffffffffffffffffffffffffffffffffffffffff1673ffffffffffffffffffffffffffffffffffffffff1663791ac94783600084600960009054906101000a900473ffffffffffffffffffffffffffffffffffffffff16426040518663ffffffff1660e01b8152600401611e1e95949392919061278d565b600060405180830381600087803b158015611e3857600080fd5b505af1158015611e4c573d6000803e3d6000fd5b50505050505b50565b6001600681905550565b600081519050919050565b600082825260208201905092915050565b60005b83811015611e99578082015181840152602081019050611e7e565b60008484015250505050565b6000601f19601f8301169050919050565b6000611ec182611e5f565b611ecb8185611e6a565b9350611edb818560208601611e7b565b611ee481611ea5565b840191505092915050565b60006020820190508181036000830152611f098184611eb6565b905092915050565b600080fd5b600073ffffffffffffffffffffffffffffffffffffffff82169050919050565b6000611f4182611f16565b9050919050565b611f5181611f36565b8114611f5c57600080fd5b50565b600081359050611f6e81611f48565b92915050565b6000819050919050565b611f8781611f74565b8114611f9257600080fd5b50565b600081359050611fa481611f7e565b92915050565b60008060408385031215611fc157611fc0611f11565b5b6000611fcf85828601611f5f565b9250506020611fe085828601611f95565b9150509250929050565b60008115159050919050565b611fff81611fea565b82525050565b600060208201905061201a6000830184611ff6565b92915050565b60006020828403121561203657612035611f11565b5b600061204484828501611f95565b91505092915050565b60006020828403121561206357612062611f11565b5b600061207184828501611f5f565b91505092915050565b61208381611f74565b82525050565b600060208201905061209e600083018461207a565b92915050565b6000806000606084860312156120bd576120bc611f11565b5b60006120cb86828701611f5f565b93505060206120dc86828701611f5f565b92505060406120ed86828701611f95565b9150509250925092565b600060ff82169050919050565b61210d816120f7565b82525050565b60006020820190506121286000830184612104565b92915050565b61213781611fea565b811461214257600080fd5b50565b6000813590506121548161212e565b92915050565b6000806040838503121561217157612170611f11565b5b600061217f85828601611f5f565b925050602061219085828601612145565b9150509250929050565b6121a381611f36565b82525050565b60006020820190506121be600083018461219a565b92915050565b600080604083850312156121db576121da611f11565b5b60006121e985828601611f5f565b92505060206121fa85828601611f5f565b9150509250929050565b6000819050919050565b600061222961222461221f84611f16565b612204565b611f16565b9050919050565b600061223b8261220e565b9050919050565b600061224d82612230565b9050919050565b61225d81612242565b82525050565b60006020820190506122786000830184612254565b92915050565b7f4e487b7100000000000000000000000000000000000000000000000000000000600052602260045260246000fd5b600060028204905060018216806122c557607f821691505b6020821081036122d8576122d761227e565b5b50919050565b7f427579206665652063616e6e6f74206265206c6172676572207468616e204d4160008201527f585f464545000000000000000000000000000000000000000000000000000000602082015250565b600061233a602583611e6a565b9150612345826122de565b604082019050919050565b600060208201905081810360008301526123698161232d565b9050919050565b7f494e56414c494420414444524553530000000000000000000000000000000000600082015250565b60006123a6600f83611e6a565b91506123b182612370565b602082019050919050565b600060208201905081810360008301526123d581612399565b9050919050565b60006040820190506123f1600083018561219a565b6123fe6020830184611ff6565b9392505050565b7f53656c6c206665652063616e6e6f74206265206c6172676572207468616e204d60008201527f41585f4645450000000000000000000000000000000000000000000000000000602082015250565b6000612461602683611e6a565b915061246c82612405565b604082019050919050565b6000602082019050818103600083015261249081612454565b9050919050565b60006060820190506124ac600083018661219a565b6124b9602083018561207a565b6124c6604083018461207a565b949350505050565b7f4e487b7100000000000000000000000000000000000000000000000000000000600052602160045260246000fd5b7f4e487b7100000000000000000000000000000000000000000000000000000000600052601160045260246000fd5b600061253782611f74565b915061254283611f74565b925082820261255081611f74565b91508282048414831517612567576125666124fd565b5b5092915050565b7f4e487b7100000000000000000000000000000000000000000000000000000000600052601260045260246000fd5b60006125a882611f74565b91506125b383611f74565b9250826125c3576125c261256e565b5b828204905092915050565b60006125d982611f74565b91506125e483611f74565b92508282039050818111156125fc576125fb6124fd565b5b92915050565b600061260d82611f74565b915061261883611f74565b92508282019050808211156126305761262f6124fd565b5b92915050565b7f4e487b7100000000000000000000000000000000000000000000000000000000600052604160045260246000fd5b7f4e487b7100000000000000000000000000000000000000000000000000000000600052603260045260246000fd5b6000819050919050565b60006126b96126b46126af84612694565b612204565b611f74565b9050919050565b6126c98161269e565b82525050565b600081519050919050565b600082825260208201905092915050565b6000819050602082019050919050565b61270481611f36565b82525050565b600061271683836126fb565b60208301905092915050565b6000602082019050919050565b600061273a826126cf565b61274481856126da565b935061274f836126eb565b8060005b83811015612780578151612767888261270a565b975061277283612722565b925050600181019050612753565b5085935050505092915050565b600060a0820190506127a2600083018861207a565b6127af60208301876126c0565b81810360408301526127c1818661272f565b90506127d0606083018561219a565b6127dd608083018461207a565b969550505050505056fea2646970667358221220aab3134cae4d6f3cdadf7e5e6399eefedbb4dba7be0a754addbf02fc4012bb2a64736f6c63430008180033",
  "linkReferences": {},
  "deployedLinkReferences": {}
}